{
  "contractName": "Administrable",
  "abi": [
    {
      "anonymous": false,
      "inputs": [
        {
          "indexed": true,
          "internalType": "address",
          "name": "newAdmin",
          "type": "address"
        },
        {
          "indexed": false,
          "internalType": "int16",
          "name": "adminRights",
          "type": "int16"
        }
      ],
      "name": "AdminRightsGranted",
      "type": "event"
    },
    {
      "anonymous": false,
      "inputs": [
        {
          "indexed": true,
          "internalType": "address",
          "name": "noAdmin",
          "type": "address"
        }
      ],
      "name": "AdminRightsRevoked",
      "type": "event"
    },
    {
      "anonymous": false,
      "inputs": [
        {
          "indexed": true,
          "internalType": "address",
          "name": "previousOwner",
          "type": "address"
        },
        {
          "indexed": true,
          "internalType": "address",
          "name": "newOwner",
          "type": "address"
        }
      ],
      "name": "OwnershipTransferred",
      "type": "event"
    },
    {
      "inputs": [],
      "name": "isOwner",
      "outputs": [
        {
          "internalType": "bool",
          "name": "",
          "type": "bool"
        }
      ],
      "stateMutability": "view",
      "type": "function"
    },
    {
      "inputs": [],
      "name": "owner",
      "outputs": [
        {
          "internalType": "address",
          "name": "",
          "type": "address"
        }
      ],
      "stateMutability": "view",
      "type": "function"
    },
    {
      "inputs": [],
      "name": "renounceOwnership",
      "outputs": [],
      "stateMutability": "nonpayable",
      "type": "function"
    },
    {
      "inputs": [
        {
          "internalType": "address",
          "name": "newOwner",
          "type": "address"
        }
      ],
      "name": "transferOwnership",
      "outputs": [],
      "stateMutability": "nonpayable",
      "type": "function"
    },
    {
      "inputs": [
        {
          "internalType": "address",
          "name": "_admin",
          "type": "address"
        }
      ],
      "name": "adminRightsOf",
      "outputs": [
        {
          "internalType": "int16",
          "name": "",
          "type": "int16"
        }
      ],
      "stateMutability": "view",
      "type": "function"
    },
    {
      "inputs": [
        {
          "internalType": "address",
          "name": "_admin",
          "type": "address"
        }
      ],
      "name": "isMinter",
      "outputs": [
        {
          "internalType": "bool",
          "name": "",
          "type": "bool"
        }
      ],
      "stateMutability": "view",
      "type": "function"
    },
    {
      "inputs": [
        {
          "internalType": "address",
          "name": "_admin",
          "type": "address"
        }
      ],
      "name": "isMinterBurner",
      "outputs": [
        {
          "internalType": "bool",
          "name": "",
          "type": "bool"
        }
      ],
      "stateMutability": "view",
      "type": "function"
    },
    {
      "inputs": [],
      "name": "canMint",
      "outputs": [
        {
          "internalType": "bool",
          "name": "",
          "type": "bool"
        }
      ],
      "stateMutability": "view",
      "type": "function"
    },
    {
      "inputs": [],
      "name": "canMintBurn",
      "outputs": [
        {
          "internalType": "bool",
          "name": "",
          "type": "bool"
        }
      ],
      "stateMutability": "view",
      "type": "function"
    },
    {
      "inputs": [
        {
          "internalType": "address",
          "name": "_admin",
          "type": "address"
        }
      ],
      "name": "grantMinterRights",
      "outputs": [],
      "stateMutability": "nonpayable",
      "type": "function"
    },
    {
      "inputs": [
        {
          "internalType": "address",
          "name": "_admin",
          "type": "address"
        }
      ],
      "name": "grantMinterBurnerRights",
      "outputs": [],
      "stateMutability": "nonpayable",
      "type": "function"
    },
    {
      "inputs": [
        {
          "internalType": "address",
          "name": "_admin",
          "type": "address"
        }
      ],
      "name": "revokeAdminRights",
      "outputs": [],
      "stateMutability": "nonpayable",
      "type": "function"
    }
  ],
  "bytecode": "0x608060405234801561001057600080fd5b50610837806100206000396000f3fe608060405234801561001057600080fd5b50600436106100b45760003560e01c80638f32d59b116100715780638f32d59b146101755780639adfecf91461017d578063a2e4d239146101bc578063aa271e1a146101e2578063beb9716d14610208578063f2fde38b14610210576100b4565b806305d52d09146100b95780631f6eeb68146100e157806342679683146100fd5780636a68119014610123578063715018a6146101495780638da5cb5b14610151575b600080fd5b6100df600480360360208110156100cf57600080fd5b50356001600160a01b0316610236565b005b6100e9610324565b604080519115158252519081900360200190f35b6100e96004803603602081101561011357600080fd5b50356001600160a01b0316610334565b6100df6004803603602081101561013957600080fd5b50356001600160a01b0316610389565b6100df610489565b610159610522565b604080516001600160a01b039092168252519081900360200190f35b6100e9610531565b6101a36004803603602081101561019357600080fd5b50356001600160a01b0316610542565b60408051600192830b90920b8252519081900360200190f35b6100df600480360360208110156101d257600080fd5b50356001600160a01b0316610591565b6100e9600480360360208110156101f857600080fd5b50356001600160a01b0316610694565b6100e96106e5565b6100df6004803603602081101561022657600080fd5b50356001600160a01b03166106f0565b61023e610531565b610285576040805162461bcd60e51b815260206004820152601360248201527239b2b73232b91034b9903737ba1037bbb732b960691b604482015290519081900360640190fd5b806001600160a01b0381166102d9576040805162461bcd60e51b8152602060048201526015602482015274696e76616c69642061646d696e206164647265737360581b604482015290519081900360640190fd5b6001600160a01b038216600081815260016020526040808220805461ffff19169055517f75063598bb424244ef6461ff8e1e0a1836998c3c84ef9e591015fbe8d94fa71f9190a25050565b600061032f33610334565b905090565b600061033e610522565b6001600160a01b0316826001600160a01b0316141561035f57506001610384565b506001600160a01b038116600090815260016020819052604090912054810b900b6002145b919050565b610391610531565b6103d8576040805162461bcd60e51b815260206004820152601360248201527239b2b73232b91034b9903737ba1037bbb732b960691b604482015290519081900360640190fd5b806001600160a01b03811661042c576040805162461bcd60e51b8152602060048201526015602482015274696e76616c69642061646d696e206164647265737360581b604482015290519081900360640190fd5b6001600160a01b038216600081815260016020818152604092839020805461ffff191683179055825191825291517fc9650477e67b3b00a3cf84fb7f5e1c3c95d7271a855253a09dde0a403695a367929181900390910190a25050565b610491610531565b6104d8576040805162461bcd60e51b815260206004820152601360248201527239b2b73232b91034b9903737ba1037bbb732b960691b604482015290519081900360640190fd5b600080546040516001600160a01b03909116907f8be0079c531659141344cd1fd0a4f28419497f9722a3daafe3b4186f6b6457e0908390a3600080546001600160a01b0319169055565b6000546001600160a01b031690565b6000546001600160a01b0316331490565b600061054c610522565b6001600160a01b0316826001600160a01b0316141561056d57506002610384565b506001600160a01b038116600090815260016020819052604090912054900b610384565b610599610531565b6105e0576040805162461bcd60e51b815260206004820152601360248201527239b2b73232b91034b9903737ba1037bbb732b960691b604482015290519081900360640190fd5b806001600160a01b038116610634576040805162461bcd60e51b8152602060048201526015602482015274696e76616c69642061646d696e206164647265737360581b604482015290519081900360640190fd5b6001600160a01b038216600081815260016020908152604091829020805461ffff19166002908117909155825190815291517fc9650477e67b3b00a3cf84fb7f5e1c3c95d7271a855253a09dde0a403695a3679281900390910190a25050565b600061069e610522565b6001600160a01b0316826001600160a01b031614156106bf57506001610384565b506001600160a01b0381166000908152600160208190526040822054810b900b13610384565b600061032f33610694565b6106f8610531565b61073f576040805162461bcd60e51b815260206004820152601360248201527239b2b73232b91034b9903737ba1037bbb732b960691b604482015290519081900360640190fd5b6107488161074b565b50565b6001600160a01b0381166107a6576040805162461bcd60e51b815260206004820152601d60248201527f6e6577206f776e65722063616e6e6f7420626520616464726573732030000000604482015290519081900360640190fd5b600080546040516001600160a01b03808516939216917f8be0079c531659141344cd1fd0a4f28419497f9722a3daafe3b4186f6b6457e091a3600080546001600160a01b0319166001600160a01b039290921691909117905556fea26469706673582212208c24f56de84c07b832ab9fd902ab402ca1f6e86dfe022f7d8ad62e5880b797f164736f6c63430006020033",
  "source": "pragma solidity 0.6.2;\n\nimport \"./Ownable.sol\";\n\n/**\n * @title Administrable\n * @dev Handle allowances for NFTs administration :\n *      - minting\n *      - access to admin web interfaces\n*/\ncontract Administrable is Ownable {\n    // /**\n    // * @dev ADMINS STORAGE \n    // * @dev rights are integer(int16) defined as follow :\n    // *       1 : address can only mint tokens \n    // *       2 : address can mint AND burn tokens\n    // */\n    mapping(address => int16) private admins;\n\n    /***** EVENTS *****/\n    event AdminRightsGranted(address indexed newAdmin, int16 adminRights);\n    event AdminRightsRevoked(address indexed noAdmin);\n\n    /***** GETTERS *****/\n    /**\n    * @dev know if an address has admin rights and its type of rights\n    * @param _admin the address to find admin rights of\n    * @return int16 the admin right for _admin :\n    *       1 : address can only mint tokens \n    *       2 : address can mint AND burn tokens \n    */\n    function adminRightsOf(address _admin) public view returns(int16) {\n        if (_admin == owner()) return 2;\n        else return admins[_admin];\n    }\n\n    /**\n    * @dev verifiy if an address can mint new tokens\n    * @param _admin : the address to verify minting rights of\n    * @return a boolean, truthy when _admin has rights to mint new tokens\n    */\n    function isMinter(address _admin) public view returns (bool) {\n        if (_admin == owner()) return true;\n        else return(\n            admins[_admin] > 0\n        );\n    }\n\n\n    /**\n    * @dev verifiy if an address has rights to mint and burn new tokens\n    * @param _admin : the address to verify minter-burner rights of\n    * @return a boolean, truthy when _admin has rights to mint and burn new tokens\n    */\n    function isMinterBurner(address _admin) public view returns (bool) {\n        if (_admin == owner()) return true;\n        else return(\n            admins[_admin] == 2\n        );\n    }\n\n\n    /**\n    * @dev canMint external \n    * @return bool : truthy if msg.sender has admin rights to mint new tokens\n    */\n    function canMint() public view returns(bool) {\n        return(\n            isMinter(msg.sender)\n        );\n    }\n\n\n    /**\n    * @dev canBurn external\n    * @return bool : truthy if msg.sender has admin rights to mint new tokens and burn existing tokens\n    */\n    function canMintBurn() public view returns(bool) {\n        return(\n            isMinterBurner(msg.sender)\n        );\n    }\n\n\n    /***** VERIFIERS *****/\n    /**\n    * @dev onlyMinter internal\n    */\n    modifier onlyMinter() {\n        require(\n            canMint(),\n            \"denied : no admin minting rights\"\n        );\n        _;\n    }\n\n\n    /**\n    * @dev onlyBurner internal\n    */\n    modifier onlyMinterBurner() {\n        require(\n            canMintBurn(),\n            \"denied : no admin burning rights\"\n        );\n        _;\n    }\n\n    modifier validAddress(address _admin) {\n        require(_admin != address(0), \"invalid admin address\");\n        _;\n    }\n\n\n    /***** SETTERS *****/\n    /**\n    * @dev owner can grant admin access to allow any address to mint new tokens\n    * @dev Restricted to CONTRACT OWNER ONLY\n    * @param _admin : address to grant admin minter rights to\n    */\n    function grantMinterRights(address _admin) external onlyOwner validAddress(_admin) {\n        admins[_admin] = 1;\n        emit AdminRightsGranted(_admin, 1);\n    }\n\n    /**\n    * @dev owner can grant admin access to allow any address to mint new tokens and to burn existing tokens\n    * @dev Restricted to CONTRACT OWNER ONLY\n    * @param _admin : address to grant admin minter and burner rights to\n    */\n    function grantMinterBurnerRights(address _admin) external onlyOwner validAddress(_admin) {\n        admins[_admin] = 2;\n        emit AdminRightsGranted(_admin, 2);\n    }\n\n    /**\n    * @dev owner can revoke admin right of any admin address\n    * @dev Restricted to CONTRACT OWNER ONLY\n    * @param _admin : address to revoke admin access to\n    */\n    function revokeAdminRights(address _admin) external onlyOwner validAddress(_admin) {\n        admins[_admin] = 0;\n        emit AdminRightsRevoked(_admin);\n    }\n\n}",
  "sourcePath": "/Users/macos/Desktop/Mat/Apps/ETHERLAND/Etherland_ERC721/ERC721/contracts/Administrable.sol",
  "compiler": {
    "name": "solc",
    "version": "0.6.2+commit.bacdbe57.Emscripten.clang"
  },
  "schemaVersion": "3.3.0",
  "updatedAt": "2020-11-05T20:42:35.278Z",
  "devdoc": {
    "details": "Handle allowances for NFTs administration :     - minting     - access to admin web interfaces",
    "methods": {
      "adminRightsOf(address)": {
        "details": "know if an address has admin rights and its type of rights",
        "params": {
          "_admin": "the address to find admin rights of"
        },
        "returns": {
          "_0": "int16 the admin right for _admin :      1 : address can only mint tokens       2 : address can mint AND burn tokens "
        }
      },
      "canMint()": {
        "details": "canMint external ",
        "returns": {
          "_0": "bool : truthy if msg.sender has admin rights to mint new tokens"
        }
      },
      "canMintBurn()": {
        "details": "canBurn external",
        "returns": {
          "_0": "bool : truthy if msg.sender has admin rights to mint new tokens and burn existing tokens"
        }
      },
      "grantMinterBurnerRights(address)": {
        "details": "owner can grant admin access to allow any address to mint new tokens and to burn existing tokensRestricted to CONTRACT OWNER ONLY",
        "params": {
          "_admin": ": address to grant admin minter and burner rights to"
        }
      },
      "grantMinterRights(address)": {
        "details": "owner can grant admin access to allow any address to mint new tokensRestricted to CONTRACT OWNER ONLY",
        "params": {
          "_admin": ": address to grant admin minter rights to"
        }
      },
      "isMinter(address)": {
        "details": "verifiy if an address can mint new tokens",
        "params": {
          "_admin": ": the address to verify minting rights of"
        },
        "returns": {
          "_0": "a boolean, truthy when _admin has rights to mint new tokens"
        }
      },
      "isMinterBurner(address)": {
        "details": "verifiy if an address has rights to mint and burn new tokens",
        "params": {
          "_admin": ": the address to verify minter-burner rights of"
        },
        "returns": {
          "_0": "a boolean, truthy when _admin has rights to mint and burn new tokens"
        }
      },
      "renounceOwnership()": {
        "details": "Allows the current owner to relinquish control of the contract. It will not be possible to call the functions with the `onlyOwner` modifier anymore."
      },
      "revokeAdminRights(address)": {
        "details": "owner can revoke admin right of any admin addressRestricted to CONTRACT OWNER ONLY",
        "params": {
          "_admin": ": address to revoke admin access to"
        }
      },
      "transferOwnership(address)": {
        "details": "Allows the current owner to transfer control of the contract to a newOwner.",
        "params": {
          "newOwner": "The address to transfer ownership to."
        }
      }
    },
    "title": "Administrable"
  },
  "userdoc": {
    "methods": {
      "renounceOwnership()": {
        "notice": "Renouncing ownership will leave the contract without an owner, thereby removing any functionality that is only available to the owner."
      }
    }
  }
}