{
  "contractName": "Administrable",
  "abi": [
    {
      "anonymous": false,
      "inputs": [
        {
          "indexed": true,
          "internalType": "address",
          "name": "previousOwner",
          "type": "address"
        },
        {
          "indexed": true,
          "internalType": "address",
          "name": "newOwner",
          "type": "address"
        }
      ],
      "name": "OwnershipTransferred",
      "type": "event"
    },
    {
      "inputs": [],
      "name": "isOwner",
      "outputs": [
        {
          "internalType": "bool",
          "name": "",
          "type": "bool"
        }
      ],
      "stateMutability": "view",
      "type": "function"
    },
    {
      "inputs": [],
      "name": "owner",
      "outputs": [
        {
          "internalType": "address",
          "name": "",
          "type": "address"
        }
      ],
      "stateMutability": "view",
      "type": "function"
    },
    {
      "inputs": [],
      "name": "renounceOwnership",
      "outputs": [],
      "stateMutability": "nonpayable",
      "type": "function"
    },
    {
      "inputs": [
        {
          "internalType": "address",
          "name": "newOwner",
          "type": "address"
        }
      ],
      "name": "transferOwnership",
      "outputs": [],
      "stateMutability": "nonpayable",
      "type": "function"
    },
    {
      "inputs": [
        {
          "internalType": "address",
          "name": "_admin",
          "type": "address"
        }
      ],
      "name": "adminRightsOf",
      "outputs": [
        {
          "internalType": "int16",
          "name": "",
          "type": "int16"
        }
      ],
      "stateMutability": "view",
      "type": "function"
    },
    {
      "inputs": [
        {
          "internalType": "address",
          "name": "_admin",
          "type": "address"
        }
      ],
      "name": "isMinter",
      "outputs": [
        {
          "internalType": "bool",
          "name": "",
          "type": "bool"
        }
      ],
      "stateMutability": "view",
      "type": "function"
    },
    {
      "inputs": [
        {
          "internalType": "address",
          "name": "_admin",
          "type": "address"
        }
      ],
      "name": "isMinterBurner",
      "outputs": [
        {
          "internalType": "bool",
          "name": "",
          "type": "bool"
        }
      ],
      "stateMutability": "view",
      "type": "function"
    },
    {
      "inputs": [],
      "name": "canMint",
      "outputs": [
        {
          "internalType": "bool",
          "name": "",
          "type": "bool"
        }
      ],
      "stateMutability": "view",
      "type": "function"
    },
    {
      "inputs": [],
      "name": "canMintBurn",
      "outputs": [
        {
          "internalType": "bool",
          "name": "",
          "type": "bool"
        }
      ],
      "stateMutability": "view",
      "type": "function"
    },
    {
      "inputs": [
        {
          "internalType": "address",
          "name": "_admin",
          "type": "address"
        }
      ],
      "name": "grantMinterRights",
      "outputs": [],
      "stateMutability": "nonpayable",
      "type": "function"
    },
    {
      "inputs": [
        {
          "internalType": "address",
          "name": "_admin",
          "type": "address"
        }
      ],
      "name": "grantMinterBurnerRights",
      "outputs": [],
      "stateMutability": "nonpayable",
      "type": "function"
    },
    {
      "inputs": [
        {
          "internalType": "address",
          "name": "_admin",
          "type": "address"
        }
      ],
      "name": "revokeAdminRights",
      "outputs": [],
      "stateMutability": "nonpayable",
      "type": "function"
    }
  ],
  "bytecode": "0x60806040819052600080546001600160a01b03191633178082556001600160a01b0316917f8be0079c531659141344cd1fd0a4f28419497f9722a3daafe3b4186f6b6457e0908290a36107a1806100576000396000f3fe608060405234801561001057600080fd5b50600436106100b45760003560e01c80638f32d59b116100715780638f32d59b146101755780639adfecf91461017d578063a2e4d239146101bc578063aa271e1a146101e2578063beb9716d14610208578063f2fde38b14610210576100b4565b806305d52d09146100b95780631f6eeb68146100e157806342679683146100fd5780636a68119014610123578063715018a6146101495780638da5cb5b14610151575b600080fd5b6100df600480360360208110156100cf57600080fd5b50356001600160a01b0316610236565b005b6100e96102fc565b604080519115158252519081900360200190f35b6100e96004803603602081101561011357600080fd5b50356001600160a01b031661030c565b6100df6004803603602081101561013957600080fd5b50356001600160a01b0316610361565b6100df61042d565b6101596104c6565b604080516001600160a01b039092168252519081900360200190f35b6100e96104d5565b6101a36004803603602081101561019357600080fd5b50356001600160a01b03166104e6565b60408051600192830b90920b8252519081900360200190f35b6100df600480360360208110156101d257600080fd5b50356001600160a01b0316610535565b6100e9600480360360208110156101f857600080fd5b50356001600160a01b03166105fe565b6100e961064f565b6100df6004803603602081101561022657600080fd5b50356001600160a01b031661065a565b61023e6104d5565b610285576040805162461bcd60e51b815260206004820152601360248201527239b2b73232b91034b9903737ba1037bbb732b960691b604482015290519081900360640190fd5b806001600160a01b0381166102d9576040805162461bcd60e51b8152602060048201526015602482015274696e76616c69642061646d696e206164647265737360581b604482015290519081900360640190fd5b506001600160a01b03166000908152600160205260409020805461ffff19169055565b60006103073361030c565b905090565b60006103166104c6565b6001600160a01b0316826001600160a01b031614156103375750600161035c565b506001600160a01b038116600090815260016020819052604090912054810b900b6002145b919050565b6103696104d5565b6103b0576040805162461bcd60e51b815260206004820152601360248201527239b2b73232b91034b9903737ba1037bbb732b960691b604482015290519081900360640190fd5b806001600160a01b038116610404576040805162461bcd60e51b8152602060048201526015602482015274696e76616c69642061646d696e206164647265737360581b604482015290519081900360640190fd5b506001600160a01b03166000908152600160208190526040909120805461ffff19169091179055565b6104356104d5565b61047c576040805162461bcd60e51b815260206004820152601360248201527239b2b73232b91034b9903737ba1037bbb732b960691b604482015290519081900360640190fd5b600080546040516001600160a01b03909116907f8be0079c531659141344cd1fd0a4f28419497f9722a3daafe3b4186f6b6457e0908390a3600080546001600160a01b0319169055565b6000546001600160a01b031690565b6000546001600160a01b0316331490565b60006104f06104c6565b6001600160a01b0316826001600160a01b031614156105115750600261035c565b506001600160a01b038116600090815260016020819052604090912054900b61035c565b61053d6104d5565b610584576040805162461bcd60e51b815260206004820152601360248201527239b2b73232b91034b9903737ba1037bbb732b960691b604482015290519081900360640190fd5b806001600160a01b0381166105d8576040805162461bcd60e51b8152602060048201526015602482015274696e76616c69642061646d696e206164647265737360581b604482015290519081900360640190fd5b506001600160a01b03166000908152600160205260409020805461ffff19166002179055565b60006106086104c6565b6001600160a01b0316826001600160a01b031614156106295750600161035c565b506001600160a01b0381166000908152600160208190526040822054810b900b1361035c565b6000610307336105fe565b6106626104d5565b6106a9576040805162461bcd60e51b815260206004820152601360248201527239b2b73232b91034b9903737ba1037bbb732b960691b604482015290519081900360640190fd5b6106b2816106b5565b50565b6001600160a01b038116610710576040805162461bcd60e51b815260206004820152601d60248201527f6e6577206f776e65722063616e6e6f7420626520616464726573732030000000604482015290519081900360640190fd5b600080546040516001600160a01b03808516939216917f8be0079c531659141344cd1fd0a4f28419497f9722a3daafe3b4186f6b6457e091a3600080546001600160a01b0319166001600160a01b039290921691909117905556fea264697066735822122057cd9cb9486ccf1bda52f91efbf2b7b82b9c71c4e2a55dbe9da3bae1c82a162d64736f6c63430006020033",
  "source": "pragma solidity 0.6.2;\n\nimport \"./Ownable.sol\";\n\n/**\n * @title Administrable\n * @dev Handle allowances for NFTs administration :\n *      - minting\n *      - access to admin web interfaces\n*/\ncontract Administrable is Ownable {\n    /**\n    * @dev ADMINS STORAGE \n    * @dev rights are defined as integer(int16) as follow :\n    *       1 : address can only mint tokens \n    *       2 : address can mint AND burn tokens\n    */\n    mapping(address => int16) private admins;\n    \n    /***** GETTERS *****/\n    /**\n    * @dev know if an address has admin rights and what type of right it has\n    * @param _admin the address to find admin rights of\n    * @return int16 the admin right for _admin :\n    *       1 : address can only mint tokens \n    *       2 : address can mint AND burn tokens \n    */\n    function adminRightsOf(address _admin) public view returns(int16) {\n        if (_admin == owner()) return 2;\n        else return admins[_admin];\n    }\n\n    /**\n    * @dev verifiy if an address can mint new tokens\n    * @param _admin : the address to verify minting rights of\n    * @return a boolean, truthy when _admin has rights to mint new tokens\n    */\n    function isMinter(address _admin) public view returns (bool) {\n        if (_admin == owner()) return true;\n        else return(\n            admins[_admin] > 0\n        );\n    }\n\n\n    /**\n    * @dev verifiy if an address has rights to mint and burn new tokens\n    * @param _admin : the address to verify minter-burner rights of\n    * @return a boolean, truthy when _admin has rights to mint and burn new tokens\n    */\n    function isMinterBurner(address _admin) public view returns (bool) {\n        if (_admin == owner()) return true;\n        else return(\n            admins[_admin] == 2\n        );\n    }\n\n\n    /**\n    * @dev canMint external \n    * @return bool : truthy if msg.sender has admin rights to mint new tokens\n    */\n    function canMint() public view returns(bool) {\n        return(\n            isMinter(msg.sender)\n        );\n    }\n\n\n    /**\n    * @dev canBurn external\n    * @return bool : truthy if msg.sender has admin rights to mint new tokens and burn existing tokens\n    */\n    function canMintBurn() public view returns(bool) {\n        return(\n            isMinterBurner(msg.sender)\n        );\n    }\n\n\n    /***** VERIFIERS *****/\n    /**\n    * @dev onlyMinter internal\n    */\n    modifier onlyMinter() {\n        require(\n            canMint(),\n            \"denied : no admin minting rights\"\n        );\n        _;\n    }\n\n\n    /**\n    * @dev onlyBurner internal\n    */\n    modifier onlyMinterBurner() {\n        require(\n            canMintBurn(),\n            \"denied : no admin burning rights\"\n        );\n        _;\n    }\n\n    modifier validAddress(address _admin) {\n        require(_admin != address(0), \"invalid admin address\");\n        _;\n    }\n\n\n    /***** SETTERS *****/\n    /**\n    * @dev owner can grant admin access to allow any address to mint new tokens\n    * @dev Restricted to CONTRACT OWNER ONLY\n    * @param _admin : address to grant admin minter rights to\n    */\n    function grantMinterRights(address _admin) external onlyOwner validAddress(_admin) {\n        admins[_admin] = 1;\n    }\n\n    /**\n    * @dev owner can grant admin access to allow any address to mint new tokens and to burn existing tokens\n    * @dev Restricted to CONTRACT OWNER ONLY\n    * @param _admin : address to grant admin minter and burner rights to\n    */\n    function grantMinterBurnerRights(address _admin) external onlyOwner validAddress(_admin) {\n        admins[_admin] = 2;\n    }\n\n    /**\n    * @dev owner can revoke admin right of any admin address\n    * @dev Restricted to CONTRACT OWNER ONLY\n    * @param _admin : address to revoke admin access to\n    */\n    function revokeAdminRights(address _admin) external onlyOwner validAddress(_admin) {\n        admins[_admin] = 0;\n    }\n\n}",
  "sourcePath": "/Users/joachimlebrun/IdeaProjects/ERC721/contracts/Administrable.sol",
  "compiler": {
    "name": "solc",
    "version": "0.6.2+commit.bacdbe57.Emscripten.clang"
  },
  "schemaVersion": "3.3.0",
  "updatedAt": "2020-10-15T20:40:47.706Z",
  "devdoc": {
    "details": "Handle allowances for NFTs administration :     - minting     - access to admin web interfaces",
    "methods": {
      "adminRightsOf(address)": {
        "details": "know if an address has admin rights and what type of right it has",
        "params": {
          "_admin": "the address to find admin rights of"
        },
        "returns": {
          "_0": "int16 the admin right for _admin :      1 : address can only mint tokens       2 : address can mint AND burn tokens "
        }
      },
      "canMint()": {
        "details": "canMint external ",
        "returns": {
          "_0": "bool : truthy if msg.sender has admin rights to mint new tokens"
        }
      },
      "canMintBurn()": {
        "details": "canBurn external",
        "returns": {
          "_0": "bool : truthy if msg.sender has admin rights to mint new tokens and burn existing tokens"
        }
      },
      "grantMinterBurnerRights(address)": {
        "details": "owner can grant admin access to allow any address to mint new tokens and to burn existing tokensRestricted to CONTRACT OWNER ONLY",
        "params": {
          "_admin": ": address to grant admin minter and burner rights to"
        }
      },
      "grantMinterRights(address)": {
        "details": "owner can grant admin access to allow any address to mint new tokensRestricted to CONTRACT OWNER ONLY",
        "params": {
          "_admin": ": address to grant admin minter rights to"
        }
      },
      "isMinter(address)": {
        "details": "verifiy if an address can mint new tokens",
        "params": {
          "_admin": ": the address to verify minting rights of"
        },
        "returns": {
          "_0": "a boolean, truthy when _admin has rights to mint new tokens"
        }
      },
      "isMinterBurner(address)": {
        "details": "verifiy if an address has rights to mint and burn new tokens",
        "params": {
          "_admin": ": the address to verify minter-burner rights of"
        },
        "returns": {
          "_0": "a boolean, truthy when _admin has rights to mint and burn new tokens"
        }
      },
      "renounceOwnership()": {
        "details": "Allows the current owner to relinquish control of the contract. It will not be possible to call the functions with the `onlyOwner` modifier anymore."
      },
      "revokeAdminRights(address)": {
        "details": "owner can revoke admin right of any admin addressRestricted to CONTRACT OWNER ONLY",
        "params": {
          "_admin": ": address to revoke admin access to"
        }
      },
      "transferOwnership(address)": {
        "details": "Allows the current owner to transfer control of the contract to a newOwner.",
        "params": {
          "newOwner": "The address to transfer ownership to."
        }
      }
    },
    "title": "Administrable"
  },
  "userdoc": {
    "methods": {
      "renounceOwnership()": {
        "notice": "Renouncing ownership will leave the contract without an owner, thereby removing any functionality that is only available to the owner."
      }
    }
  }
}