{
  "contractName": "ERC165",
  "abi": [
    {
      "inputs": [],
      "name": "proxyRegistryAddress",
      "outputs": [
        {
          "internalType": "address",
          "name": "",
          "type": "address"
        }
      ],
      "stateMutability": "view",
      "type": "function"
    },
    {
      "inputs": [
        {
          "internalType": "bytes4",
          "name": "interfaceId",
          "type": "bytes4"
        }
      ],
      "name": "supportsInterface",
      "outputs": [
        {
          "internalType": "bool",
          "name": "",
          "type": "bool"
        }
      ],
      "stateMutability": "view",
      "type": "function"
    }
  ],
  "bytecode": "0x6080604052600060045534801561001557600080fd5b5060f5806100246000396000f3fe6080604052348015600f57600080fd5b506004361060325760003560e01c806301ffc9a7146037578063cd7c032614606f575b600080fd5b605b60048036036020811015604b57600080fd5b50356001600160e01b0319166091565b604080519115158252519081900360200190f35b607560b0565b604080516001600160a01b039092168252519081900360200190f35b6001600160e01b03191660009081526006602052604090205460ff1690565b6003546001600160a01b03168156fea26469706673582212205bc69c2597bdf929b33c757e952ee56b63577b75a61e7d03840bc9aaa6f1f33664736f6c63430006020033",
  "source": "pragma solidity 0.6.2;\n\nimport \"./Interfaces/IERC165.sol\";\nimport \"./Storage.sol\";\n\n/**\n* @title ERC165\n* @author Matt Condon (@shrugs)\n* @dev Implements ERC165 using a lookup table.\n* @dev source : openzeppelin-solidity/contracts/introspection/ERC165.sol\n*/\ncontract ERC165 is IERC165, Storage {\n\n    // /**\n    // * @dev A contract implementing SupportsInterfaceWithLookup\n    // * implement ERC165 itself\n    // */\n    // constructor () internal {\n    //     _registerInterface(_INTERFACE_ID_ERC165);\n    // }\n\n    /**\n    * @dev implement supportsInterface(bytes4) using a lookup table\n    */\n    function supportsInterface(bytes4 interfaceId) external override view returns (bool) {\n        return _supportedInterfaces[interfaceId];\n    }\n\n    /**\n    * @dev internal method for registering an interface\n    */\n    function _registerInterface(bytes4 interfaceId) internal {\n        require(interfaceId != 0xffffffff, \"bad interface\");\n        _supportedInterfaces[interfaceId] = true;\n    }\n}\n",
  "sourcePath": "/Users/proapps/Desktop/Mat/Apps/Etherland/ERC721/contracts/ERC165.sol",
  "compiler": {
    "name": "solc",
    "version": "0.6.2+commit.bacdbe57.Emscripten.clang"
  },
  "schemaVersion": "3.3.2",
  "updatedAt": "2020-11-13T22:10:05.495Z",
  "devdoc": {
    "author": "Matt Condon (@shrugs)",
    "details": "Implements ERC165 using a lookup table.source : openzeppelin-solidity/contracts/introspection/ERC165.sol",
    "methods": {
      "supportsInterface(bytes4)": {
        "details": "implement supportsInterface(bytes4) using a lookup table"
      }
    },
    "title": "ERC165"
  },
  "userdoc": {
    "methods": {}
  }
}