{
  "contractName": "ERC721Full",
  "abi": [
    {
      "anonymous": false,
      "inputs": [
        {
          "indexed": true,
          "internalType": "address",
          "name": "owner",
          "type": "address"
        },
        {
          "indexed": true,
          "internalType": "address",
          "name": "approved",
          "type": "address"
        },
        {
          "indexed": false,
          "internalType": "uint256",
          "name": "tokenId",
          "type": "uint256"
        }
      ],
      "name": "Approval",
      "type": "event"
    },
    {
      "anonymous": false,
      "inputs": [
        {
          "indexed": true,
          "internalType": "address",
          "name": "owner",
          "type": "address"
        },
        {
          "indexed": true,
          "internalType": "address",
          "name": "operator",
          "type": "address"
        },
        {
          "indexed": false,
          "internalType": "bool",
          "name": "approved",
          "type": "bool"
        }
      ],
      "name": "ApprovalForAll",
      "type": "event"
    },
    {
      "anonymous": false,
      "inputs": [
        {
          "indexed": true,
          "internalType": "address",
          "name": "from",
          "type": "address"
        },
        {
          "indexed": true,
          "internalType": "address",
          "name": "to",
          "type": "address"
        },
        {
          "indexed": false,
          "internalType": "uint256",
          "name": "tokenId",
          "type": "uint256"
        }
      ],
      "name": "Transfer",
      "type": "event"
    },
    {
      "inputs": [
        {
          "internalType": "address",
          "name": "to",
          "type": "address"
        },
        {
          "internalType": "uint256",
          "name": "tokenId",
          "type": "uint256"
        }
      ],
      "name": "approve",
      "outputs": [],
      "stateMutability": "nonpayable",
      "type": "function"
    },
    {
      "inputs": [
        {
          "internalType": "address",
          "name": "owner",
          "type": "address"
        }
      ],
      "name": "balanceOf",
      "outputs": [
        {
          "internalType": "uint256",
          "name": "",
          "type": "uint256"
        }
      ],
      "stateMutability": "view",
      "type": "function"
    },
    {
      "inputs": [
        {
          "internalType": "uint256",
          "name": "tokenId",
          "type": "uint256"
        }
      ],
      "name": "getApproved",
      "outputs": [
        {
          "internalType": "address",
          "name": "",
          "type": "address"
        }
      ],
      "stateMutability": "view",
      "type": "function"
    },
    {
      "inputs": [
        {
          "internalType": "address",
          "name": "owner",
          "type": "address"
        },
        {
          "internalType": "address",
          "name": "operator",
          "type": "address"
        }
      ],
      "name": "isApprovedForAll",
      "outputs": [
        {
          "internalType": "bool",
          "name": "",
          "type": "bool"
        }
      ],
      "stateMutability": "view",
      "type": "function"
    },
    {
      "inputs": [
        {
          "internalType": "uint256",
          "name": "tokenId",
          "type": "uint256"
        }
      ],
      "name": "ownerOf",
      "outputs": [
        {
          "internalType": "address",
          "name": "",
          "type": "address"
        }
      ],
      "stateMutability": "view",
      "type": "function"
    },
    {
      "inputs": [],
      "name": "proxyRegistryAddress",
      "outputs": [
        {
          "internalType": "address",
          "name": "",
          "type": "address"
        }
      ],
      "stateMutability": "view",
      "type": "function"
    },
    {
      "inputs": [
        {
          "internalType": "address",
          "name": "from",
          "type": "address"
        },
        {
          "internalType": "address",
          "name": "to",
          "type": "address"
        },
        {
          "internalType": "uint256",
          "name": "tokenId",
          "type": "uint256"
        }
      ],
      "name": "safeTransferFrom",
      "outputs": [],
      "stateMutability": "nonpayable",
      "type": "function"
    },
    {
      "inputs": [
        {
          "internalType": "address",
          "name": "from",
          "type": "address"
        },
        {
          "internalType": "address",
          "name": "to",
          "type": "address"
        },
        {
          "internalType": "uint256",
          "name": "tokenId",
          "type": "uint256"
        },
        {
          "internalType": "bytes",
          "name": "_data",
          "type": "bytes"
        }
      ],
      "name": "safeTransferFromWithData",
      "outputs": [],
      "stateMutability": "nonpayable",
      "type": "function"
    },
    {
      "inputs": [
        {
          "internalType": "address",
          "name": "to",
          "type": "address"
        },
        {
          "internalType": "bool",
          "name": "approved",
          "type": "bool"
        }
      ],
      "name": "setApprovalForAll",
      "outputs": [],
      "stateMutability": "nonpayable",
      "type": "function"
    },
    {
      "inputs": [
        {
          "internalType": "bytes4",
          "name": "interfaceId",
          "type": "bytes4"
        }
      ],
      "name": "supportsInterface",
      "outputs": [
        {
          "internalType": "bool",
          "name": "",
          "type": "bool"
        }
      ],
      "stateMutability": "view",
      "type": "function"
    },
    {
      "inputs": [
        {
          "internalType": "address",
          "name": "from",
          "type": "address"
        },
        {
          "internalType": "address",
          "name": "to",
          "type": "address"
        },
        {
          "internalType": "uint256",
          "name": "tokenId",
          "type": "uint256"
        }
      ],
      "name": "transferFrom",
      "outputs": [],
      "stateMutability": "nonpayable",
      "type": "function"
    },
    {
      "inputs": [],
      "name": "name",
      "outputs": [
        {
          "internalType": "string",
          "name": "",
          "type": "string"
        }
      ],
      "stateMutability": "view",
      "type": "function"
    },
    {
      "inputs": [],
      "name": "symbol",
      "outputs": [
        {
          "internalType": "string",
          "name": "",
          "type": "string"
        }
      ],
      "stateMutability": "view",
      "type": "function"
    },
    {
      "inputs": [
        {
          "internalType": "address",
          "name": "owner",
          "type": "address"
        },
        {
          "internalType": "uint256",
          "name": "index",
          "type": "uint256"
        }
      ],
      "name": "tokenOfOwnerByIndex",
      "outputs": [
        {
          "internalType": "uint256",
          "name": "",
          "type": "uint256"
        }
      ],
      "stateMutability": "view",
      "type": "function"
    },
    {
      "inputs": [],
      "name": "totalSupply",
      "outputs": [
        {
          "internalType": "uint256",
          "name": "",
          "type": "uint256"
        }
      ],
      "stateMutability": "view",
      "type": "function"
    },
    {
      "inputs": [
        {
          "internalType": "uint256",
          "name": "index",
          "type": "uint256"
        }
      ],
      "name": "tokenByIndex",
      "outputs": [
        {
          "internalType": "uint256",
          "name": "",
          "type": "uint256"
        }
      ],
      "stateMutability": "view",
      "type": "function"
    },
    {
      "inputs": [
        {
          "internalType": "address",
          "name": "owner",
          "type": "address"
        }
      ],
      "name": "tokensOf",
      "outputs": [
        {
          "internalType": "uint256[]",
          "name": "",
          "type": "uint256[]"
        }
      ],
      "stateMutability": "view",
      "type": "function"
    }
  ],
  "bytecode": "0x6080604052600060045534801561001557600080fd5b50611179806100256000396000f3fe608060405234801561001057600080fd5b506004361061010b5760003560e01c80634f6ccce7116100a257806370a082311161007157806370a082311461045757806395d89b411461047d578063a22cb46514610485578063cd7c0326146104b3578063e985e9c5146104bb5761010b565b80634f6ccce7146102e15780635a3f2672146102fe57806360a11672146103745780636352211e1461043a5761010b565b806318160ddd116100de57806318160ddd1461022f57806323b872dd146102495780632f745c591461027f57806342842e0e146102ab5761010b565b806301ffc9a71461011057806306fdde031461014b578063081812fc146101c8578063095ea7b314610201575b600080fd5b6101376004803603602081101561012657600080fd5b50356001600160e01b0319166104e9565b604080519115158252519081900360200190f35b610153610508565b6040805160208082528351818301528351919283929083019185019080838360005b8381101561018d578181015183820152602001610175565b50505050905090810190601f1680156101ba5780820380516001836020036101000a031916815260200191505b509250505060405180910390f35b6101e5600480360360208110156101de57600080fd5b503561059e565b604080516001600160a01b039092168252519081900360200190f35b61022d6004803603604081101561021757600080fd5b506001600160a01b03813516906020013561060e565b005b610237610746565b60408051918252519081900360200190f35b61022d6004803603606081101561025f57600080fd5b506001600160a01b0381358116916020810135909116906040013561074c565b6102376004803603604081101561029557600080fd5b506001600160a01b0381351690602001356107b7565b61022d600480360360608110156102c157600080fd5b506001600160a01b03813581169160208101359091169060400135610840565b610237600480360360208110156102f757600080fd5b503561085b565b6103246004803603602081101561031457600080fd5b50356001600160a01b03166108cb565b60408051602080825283518183015283519192839290830191858101910280838360005b83811015610360578181015183820152602001610348565b505050509050019250505060405180910390f35b61022d6004803603608081101561038a57600080fd5b6001600160a01b038235811692602081013590911691604082013591908101906080810160608201356401000000008111156103c557600080fd5b8201836020820111156103d757600080fd5b803590602001918460018302840111640100000000831117156103f957600080fd5b91908080601f01602080910402602001604051908101604052809392919081815260200183838082843760009201919091525092955061092c945050505050565b6101e56004803603602081101561045057600080fd5b5035610991565b6102376004803603602081101561046d57600080fd5b50356001600160a01b03166109fd565b610153610a77565b61022d6004803603604081101561049b57600080fd5b506001600160a01b0381351690602001351515610ad7565b6101e5610b9d565b610137600480360360408110156104d157600080fd5b506001600160a01b0381358116916020013516610bac565b6001600160e01b03191660009081526006602052604090205460ff1690565b60008054604080516020601f60026000196101006001881615020190951694909404938401819004810282018101909252828152606093909290918301828280156105945780601f1061056957610100808354040283529160200191610594565b820191906000526020600020905b81548152906001019060200180831161057757829003601f168201915b5050505050905090565b60006105a982610bda565b6105f2576040805162461bcd60e51b81526020600482015260156024820152741d1bdad95b925108191bd95cdb89dd08195e1a5cdd605a1b604482015290519081900360640190fd5b506000908152600860205260409020546001600160a01b031690565b600061061982610991565b9050806001600160a01b0316836001600160a01b0316141561067c576040805162461bcd60e51b815260206004820152601760248201527631b0b73737ba1030b8383937bb32903cb7bab939b2b63360491b604482015290519081900360640190fd5b336001600160a01b038216148061069857506106988133610bac565b6106dd576040805162461bcd60e51b81526020600482015260116024820152701c195c9b5a5cdcda5bdb8819195b9a5959607a1b604482015290519081900360640190fd5b60008281526008602090815260409182902080546001600160a01b0319166001600160a01b03878116918217909255835186815293519093918516927f8c5be1e5ebec7d5bd14f71427d1e84f3dd0314c0f7b2291e5b200ac8c7c3b925928290030190a3505050565b60055490565b6107563382610bf7565b6107a7576040805162461bcd60e51b815260206004820152601760248201527f7370656e646572206973206e6f7420617070726f766564000000000000000000604482015290519081900360640190fd5b6107b2838383610c56565b505050565b60006107c2836109fd565b8210610809576040805162461bcd60e51b81526020600482015260116024820152700d2dcc8caf040d2e640e8dede40d0d2ced607b1b604482015290519081900360640190fd5b6001600160a01b0383166000908152600c6020526040902080548390811061082d57fe5b9060005260206000200154905092915050565b6107b28383836040518060200160405280600081525061092c565b6000610865610746565b82106108ac576040805162461bcd60e51b81526020600482015260116024820152700d2dcc8caf040d2e640e8dede40d0d2ced607b1b604482015290519081900360640190fd5b600582815481106108b957fe5b90600052602060002001549050919050565b60606108d682610c75565b80548060200260200160405190810160405280929190818152602001828054801561092057602002820191906000526020600020905b81548152602001906001019080831161090c575b50505050509050919050565b61093784848461074c565b61094384848484610c8f565b61098b576040805162461bcd60e51b81526020600482015260146024820152736461746120636865636b206973206e6f74206f6b60601b604482015290519081900360640190fd5b50505050565b6000818152600760205260408120546001600160a01b0316806109f7576040805162461bcd60e51b815260206004820152601960248201527806f776e65722063616e6e6f742062652061646472657373203603c1b604482015290519081900360640190fd5b92915050565b60006001600160a01b038216610a56576040805162461bcd60e51b815260206004820152601960248201527806f776e65722063616e6e6f742062652061646472657373203603c1b604482015290519081900360640190fd5b6001600160a01b03821660009081526009602052604090206109f790610dc2565b60018054604080516020601f600260001961010087891615020190951694909404938401819004810282018101909252828152606093909290918301828280156105945780601f1061056957610100808354040283529160200191610594565b6001600160a01b038216331415610b2f576040805162461bcd60e51b815260206004820152601760248201527631b0b73737ba1030b8383937bb32903cb7bab939b2b63360491b604482015290519081900360640190fd5b336000818152600a602090815260408083206001600160a01b03871680855290835292819020805460ff1916861515908117909155815190815290519293927f17307eab39ab6107e8899845ad3d59bd9653f200f220920489ca2b5937696c31929181900390910190a35050565b6003546001600160a01b031681565b6001600160a01b039182166000908152600a6020908152604080832093909416825291909152205460ff1690565b6000908152600760205260409020546001600160a01b0316151590565b600080610c0383610991565b9050806001600160a01b0316846001600160a01b03161480610c3e5750836001600160a01b0316610c338461059e565b6001600160a01b0316145b80610c4e5750610c4e8185610bac565b949350505050565b610c61838383610dc6565b610c6b8382610f43565b6107b28282611045565b6001600160a01b03166000908152600c6020526040902090565b6000610ca3846001600160a01b0316611083565b610caf57506001610c4e565b604051630a85bd0160e11b815233600482018181526001600160a01b03888116602485015260448401879052608060648501908152865160848601528651600095928a169463150b7a029490938c938b938b939260a4019060208501908083838e5b83811015610d29578181015183820152602001610d11565b50505050905090810190601f168015610d565780820380516001836020036101000a031916815260200191505b5095505050505050602060405180830381600087803b158015610d7857600080fd5b505af1158015610d8c573d6000803e3d6000fd5b505050506040513d6020811015610da257600080fd5b50516001600160e01b031916630a85bd0160e11b14915050949350505050565b5490565b826001600160a01b0316610dd982610991565b6001600160a01b031614610e34576040805162461bcd60e51b815260206004820181905260248201527f73656e646572206973206e6f74206f776e6572206f662074686520746f6b656e604482015290519081900360640190fd5b6001600160a01b038216610e8f576040805162461bcd60e51b815260206004820152601860248201527f63616e6e6f742073656e6420746f203020616464726573730000000000000000604482015290519081900360640190fd5b610e9881611089565b6001600160a01b0383166000908152600960205260409020610eb9906110c6565b6001600160a01b0382166000908152600960205260409020610eda906110dd565b60008181526007602090815260409182902080546001600160a01b0319166001600160a01b03868116918217909255835185815293519093918716927fddf252ad1be2c89b69c2b068fc378daa952ba7f163c4a11628f55a4df523b3ef928290030190a3505050565b6001600160a01b0382166000908152600c6020526040812054610f6d90600163ffffffff6110e616565b6000838152600d6020526040902054909150808214611008576001600160a01b0384166000908152600c60205260408120805484908110610faa57fe5b9060005260206000200154905080600c6000876001600160a01b03166001600160a01b031681526020019081526020016000208381548110610fe857fe5b6000918252602080832090910192909255918252600d9052604090208190555b6001600160a01b0384166000908152600c6020526040902080548061102957fe5b6001900381819060005260206000200160009055905550505050565b6001600160a01b039091166000908152600c602081815260408084208054868652600d84529185208290559282526001810183559183529091200155565b3b151590565b6000818152600860205260409020546001600160a01b0316156110c357600081815260086020526040902080546001600160a01b03191690555b50565b80546110d990600163ffffffff6110e616565b9055565b80546001019055565b60008282111561113d576040805162461bcd60e51b815260206004820152601d60248201527f726573756c742063616e6e6f74206265206c6f776572207468616e2030000000604482015290519081900360640190fd5b5090039056fea264697066735822122082d13bc65f59629c1932c36a5a020faf7da47165b62a7d948db22d7689c954e064736f6c63430006020033",
  "source": "pragma solidity 0.6.2;\n\nimport \"./ERC721.sol\";\nimport \"./Interfaces/IERC721Full.sol\";\n\n/**\n* @title Full ERC721 Token\n* This implementation includes all the required and some optional functionality of the ERC721 standard\n* Moreover, it includes approve all functionality using operator terminology\n* @dev see https://eips.ethereum.org/EIPS/eip-721\n* @dev source : openzeppelin-solidity/contracts/token/ERC721/ERC721Full.sol\n*/\ncontract ERC721Full is ERC721, IERC721Full {\n    using SafeMath for uint256;\n\n    /**\n    * @dev Constructor function\n    */\n    function init (string memory name, string memory symbol) internal {\n        _name = name;\n        _symbol = symbol;\n    }\n\n    /**\n    * @dev Gets the token name\n    * @return string representing the token name\n    */\n    function name() external override view returns (string memory) {\n        return _name;\n    }\n\n    /**\n    * @dev Gets the token symbol\n    * @return string representing the token symbol\n    */\n    function symbol() external override view returns (string memory) {\n        return _symbol;\n    }\n\n    /**\n    * @dev Gets the token ID at a given index of the tokens list of the requested owner\n    * @param owner address owning the tokens list to be accessed\n    * @param index uint256 representing the index to be accessed of the requested tokens list\n    * @return uint256 token ID at the given index of the tokens list owned by the requested address\n    */\n    function tokenOfOwnerByIndex(address owner, uint256 index) public override view returns (uint256) {\n        require(index < balanceOf(owner), \"index is too high\");\n        return _ownedTokens[owner][index];\n    }\n\n    /**\n    * @dev Gets the total amount of tokens stored by the contract\n    * @return uint256 representing the total amount of tokens\n    */\n    function totalSupply() public override view returns (uint256) {\n        return _allTokens.length;\n    }\n\n    /**\n    * @dev Gets the token ID at a given index of all the tokens in this contract\n    * Reverts if the index is greater or equal to the total number of tokens\n    * @param index uint256 representing the index to be accessed of the tokens list\n    * @return uint256 token ID at the given index of the tokens list\n    */\n    function tokenByIndex(uint256 index) public override view returns (uint256) {\n        require(index < totalSupply(), \"index is too high\");\n        return _allTokens[index];\n    }\n\n    /**\n    * @dev Internal function to transfer ownership of a given token ID to another address.\n    * As opposed to transferFrom, this imposes no restrictions on msg.sender.\n    * @param from current owner of the token\n    * @param to address to receive the ownership of the given token ID\n    * @param tokenId uint256 ID of the token to be transferred\n    */\n    function _transferFrom(address from, address to, uint256 tokenId) internal override {\n        super._transferFrom(from, to, tokenId);\n\n        _removeTokenFromOwnerEnumeration(from, tokenId);\n\n        _addTokenToOwnerEnumeration(to, tokenId);\n    }\n\n    /**\n    * @dev Internal function to mint a new token\n    * Reverts if the given token ID already exists\n    * @param to address the beneficiary that will own the minted token\n    * @param tokenId uint256 ID of the token to be minted\n    */\n    function _mint(address to, uint256 tokenId) internal override {\n        super._mint(to, tokenId);\n\n        _addTokenToOwnerEnumeration(to, tokenId);\n\n        _addTokenToAllTokensEnumeration(tokenId);\n    }\n\n    /**\n    * @dev Internal function to burn a specific token\n    * Reverts if the token does not exist\n    * Deprecated, use _burn(uint256) instead\n    * @param owner owner of the token to burn\n    * @param tokenId uint256 ID of the token being burned\n    */\n    function _burn(address owner, uint256 tokenId) internal override {\n        super._burn(owner, tokenId);\n\n        _removeTokenFromOwnerEnumeration(owner, tokenId);\n        // Since tokenId will be deleted, we can clear its slot in _ownedTokensIndex to trigger a gas refund\n        _ownedTokensIndex[tokenId] = 0;\n\n        _removeTokenFromAllTokensEnumeration(tokenId);\n\n    }\n\n    /**\n    * @dev Gets the list of token IDs of the requested owner\n    * @param owner address owning the tokens\n    * @return uint256[] List of token IDs owned by the requested address\n    */\n    function _tokensOfOwner(address owner) internal view returns (uint256[] storage) {\n        return _ownedTokens[owner];\n    }\n\n    /**\n    * @dev Private function to add a token to this extension's ownership-tracking data structures.\n    * @param to address representing the new owner of the given token ID\n    * @param tokenId uint256 ID of the token to be added to the tokens list of the given address\n    */\n    function _addTokenToOwnerEnumeration(address to, uint256 tokenId) private {\n        _ownedTokensIndex[tokenId] = _ownedTokens[to].length;\n        _ownedTokens[to].push(tokenId);\n    }\n\n    /**\n    * @dev Private function to add a token to this extension's token tracking data structures.\n    * @param tokenId uint256 ID of the token to be added to the tokens list\n    */\n    function _addTokenToAllTokensEnumeration(uint256 tokenId) private {\n        _allTokensIndex[tokenId] = _allTokens.length;\n        _allTokens.push(tokenId);\n    }\n\n    /**\n    * @dev Private function to remove a token from this extension's ownership-tracking data structures. Note that\n    * while the token is not assigned a new owner, the _ownedTokensIndex mapping is _not_ updated: this allows for\n    * gas optimizations e.g. when performing a transfer operation (avoiding double writes).\n    * This has O(1) time complexity, but alters the order of the _ownedTokens array.\n    * @param from address representing the previous owner of the given token ID\n    * @param tokenId uint256 ID of the token to be removed from the tokens list of the given address\n    */\n    function _removeTokenFromOwnerEnumeration(address from, uint256 tokenId) private {\n        uint256 lastTokenIndex = _ownedTokens[from].length.sub(1);\n        uint256 tokenIndex = _ownedTokensIndex[tokenId];\n\n        if (tokenIndex != lastTokenIndex) {\n            uint256 lastTokenId = _ownedTokens[from][lastTokenIndex];\n\n            _ownedTokens[from][tokenIndex] = lastTokenId; \n            _ownedTokensIndex[lastTokenId] = tokenIndex; \n        }\n\n        _ownedTokens[from].pop();\n    }\n\n    /**\n    * @dev Private function to remove a token from this extension's token tracking data structures.\n    * This has O(1) time complexity, but alters the order of the _allTokens array.\n    * @param tokenId uint256 ID of the token to be removed from the tokens list\n    */\n    function _removeTokenFromAllTokensEnumeration(uint256 tokenId) private {\n        uint256 lastTokenIndex = _allTokens.length.sub(1);\n        uint256 tokenIndex = _allTokensIndex[tokenId];\n\n        uint256 lastTokenId = _allTokens[lastTokenIndex];\n\n        _allTokens[tokenIndex] = lastTokenId; \n        _allTokensIndex[lastTokenId] = tokenIndex; \n\n        _allTokens.pop();\n        _allTokensIndex[tokenId] = 0;\n    }\n\n    /**\n     * @dev\n     * @notice Non-Standard method to retrieve all NFTs that specific owner owns\n     * @return uint[] containing all NFTs that owner owns\n     */\n    function tokensOf(address owner) public view returns (uint[] memory) {\n        return _tokensOfOwner(owner);\n    }\n}",
  "sourcePath": "/Users/proapps/Documents/Mat/Apps/Etherland/ERC721/contracts/ERC721Full.sol",
  "compiler": {
    "name": "solc",
    "version": "0.6.2+commit.bacdbe57.Emscripten.clang"
  },
  "schemaVersion": "3.3.2",
  "updatedAt": "2020-12-02T19:13:45.959Z",
  "devdoc": {
    "details": "see https://eips.ethereum.org/EIPS/eip-721source : openzeppelin-solidity/contracts/token/ERC721/ERC721Full.sol",
    "methods": {
      "approve(address,uint256)": {
        "details": "Approves another address to transfer the given token ID The zero address indicates there is no approved address. There can only be one approved address per token at a given time. Can only be called by the token owner or an approved operator.",
        "params": {
          "to": "address to be approved for the given token ID",
          "tokenId": "uint256 ID of the token to be approved"
        }
      },
      "balanceOf(address)": {
        "details": "Gets the balance of the specified address",
        "params": {
          "owner": "address to query the balance of"
        },
        "returns": {
          "_0": "uint256 representing the amount owned by the passed address"
        }
      },
      "getApproved(uint256)": {
        "details": "Gets the approved address for a token ID, or zero if no address set Reverts if the token ID does not exist.",
        "params": {
          "tokenId": "uint256 ID of the token to query the approval of"
        },
        "returns": {
          "_0": "address currently approved for the given token ID"
        }
      },
      "isApprovedForAll(address,address)": {
        "details": "Tells whether an operator is approved by a given owner",
        "params": {
          "operator": "operator address which you want to query the approval of",
          "owner": "owner address which you want to query the approval of"
        },
        "returns": {
          "_0": "bool whether the given operator is approved by the given owner"
        }
      },
      "name()": {
        "details": "Gets the token name",
        "returns": {
          "_0": "string representing the token name"
        }
      },
      "ownerOf(uint256)": {
        "details": "Gets the owner of the specified token ID",
        "params": {
          "tokenId": "uint256 ID of the token to query the owner of"
        },
        "returns": {
          "_0": "address currently marked as the owner of the given token ID"
        }
      },
      "safeTransferFrom(address,address,uint256)": {
        "details": "Safely transfers the ownership of a given token ID to another address If the target address is a contract, it must implement `onERC721Received`, which is called upon a safe transfer, and return the magic value `bytes4(keccak256(\"onERC721Received(address,address,uint256,bytes)\"))`; otherwise, the transfer is reverted. Requires the msg.sender to be the owner, approved, or operator",
        "params": {
          "from": "current owner of the token",
          "to": "address to receive the ownership of the given token ID",
          "tokenId": "uint256 ID of the token to be transferred"
        }
      },
      "safeTransferFromWithData(address,address,uint256,bytes)": {
        "details": "Safely transfers the ownership of a given token ID to another address If the target address is a contract, it must implement `onERC721Received`, which is called upon a safe transfer, and return the magic value `bytes4(keccak256(\"onERC721Received(address,address,uint256,bytes)\"))`; otherwise, the transfer is reverted. Requires the msg.sender to be the owner, approved, or operator",
        "params": {
          "_data": "bytes data to send along with a safe transfer check",
          "from": "current owner of the token",
          "to": "address to receive the ownership of the given token ID",
          "tokenId": "uint256 ID of the token to be transferred"
        }
      },
      "setApprovalForAll(address,bool)": {
        "details": "Sets or unsets the approval of a given operator An operator is allowed to transfer all tokens of the sender on their behalf",
        "params": {
          "approved": "representing the status of the approval to be set",
          "to": "operator address to set the approval"
        }
      },
      "supportsInterface(bytes4)": {
        "details": "implement supportsInterface(bytes4) using a lookup table"
      },
      "symbol()": {
        "details": "Gets the token symbol",
        "returns": {
          "_0": "string representing the token symbol"
        }
      },
      "tokenByIndex(uint256)": {
        "details": "Gets the token ID at a given index of all the tokens in this contract Reverts if the index is greater or equal to the total number of tokens",
        "params": {
          "index": "uint256 representing the index to be accessed of the tokens list"
        },
        "returns": {
          "_0": "uint256 token ID at the given index of the tokens list"
        }
      },
      "tokenOfOwnerByIndex(address,uint256)": {
        "details": "Gets the token ID at a given index of the tokens list of the requested owner",
        "params": {
          "index": "uint256 representing the index to be accessed of the requested tokens list",
          "owner": "address owning the tokens list to be accessed"
        },
        "returns": {
          "_0": "uint256 token ID at the given index of the tokens list owned by the requested address"
        }
      },
      "tokensOf(address)": {
        "details": "@notice Non-Standard method to retrieve all NFTs that specific owner owns",
        "returns": {
          "_0": "uint[] containing all NFTs that owner owns"
        }
      },
      "totalSupply()": {
        "details": "Gets the total amount of tokens stored by the contract",
        "returns": {
          "_0": "uint256 representing the total amount of tokens"
        }
      },
      "transferFrom(address,address,uint256)": {
        "details": "Transfers the ownership of a given token ID to another address Usage of this method is discouraged, use `safeTransferFrom` whenever possible Requires the msg.sender to be the owner, approved, or operator",
        "params": {
          "from": "current owner of the token",
          "to": "address to receive the ownership of the given token ID",
          "tokenId": "uint256 ID of the token to be transferred"
        }
      }
    },
    "title": "Full ERC721 Token This implementation includes all the required and some optional functionality of the ERC721 standard Moreover, it includes approve all functionality using operator terminology"
  },
  "userdoc": {
    "methods": {}
  }
}