{
  "contractName": "ERC721",
  "abi": [
    {
      "anonymous": false,
      "inputs": [
        {
          "indexed": true,
          "internalType": "address",
          "name": "owner",
          "type": "address"
        },
        {
          "indexed": true,
          "internalType": "address",
          "name": "approved",
          "type": "address"
        },
        {
          "indexed": false,
          "internalType": "uint256",
          "name": "tokenId",
          "type": "uint256"
        }
      ],
      "name": "Approval",
      "type": "event"
    },
    {
      "anonymous": false,
      "inputs": [
        {
          "indexed": true,
          "internalType": "address",
          "name": "owner",
          "type": "address"
        },
        {
          "indexed": true,
          "internalType": "address",
          "name": "operator",
          "type": "address"
        },
        {
          "indexed": false,
          "internalType": "bool",
          "name": "approved",
          "type": "bool"
        }
      ],
      "name": "ApprovalForAll",
      "type": "event"
    },
    {
      "anonymous": false,
      "inputs": [
        {
          "indexed": true,
          "internalType": "address",
          "name": "from",
          "type": "address"
        },
        {
          "indexed": true,
          "internalType": "address",
          "name": "to",
          "type": "address"
        },
        {
          "indexed": false,
          "internalType": "uint256",
          "name": "tokenId",
          "type": "uint256"
        }
      ],
      "name": "Transfer",
      "type": "event"
    },
    {
      "inputs": [],
      "name": "proxyRegistryAddress",
      "outputs": [
        {
          "internalType": "address",
          "name": "",
          "type": "address"
        }
      ],
      "stateMutability": "view",
      "type": "function"
    },
    {
      "inputs": [
        {
          "internalType": "bytes4",
          "name": "interfaceId",
          "type": "bytes4"
        }
      ],
      "name": "supportsInterface",
      "outputs": [
        {
          "internalType": "bool",
          "name": "",
          "type": "bool"
        }
      ],
      "stateMutability": "view",
      "type": "function"
    },
    {
      "inputs": [
        {
          "internalType": "address",
          "name": "owner",
          "type": "address"
        }
      ],
      "name": "balanceOf",
      "outputs": [
        {
          "internalType": "uint256",
          "name": "",
          "type": "uint256"
        }
      ],
      "stateMutability": "view",
      "type": "function"
    },
    {
      "inputs": [
        {
          "internalType": "uint256",
          "name": "tokenId",
          "type": "uint256"
        }
      ],
      "name": "ownerOf",
      "outputs": [
        {
          "internalType": "address",
          "name": "",
          "type": "address"
        }
      ],
      "stateMutability": "view",
      "type": "function"
    },
    {
      "inputs": [
        {
          "internalType": "address",
          "name": "to",
          "type": "address"
        },
        {
          "internalType": "uint256",
          "name": "tokenId",
          "type": "uint256"
        }
      ],
      "name": "approve",
      "outputs": [],
      "stateMutability": "nonpayable",
      "type": "function"
    },
    {
      "inputs": [
        {
          "internalType": "uint256",
          "name": "tokenId",
          "type": "uint256"
        }
      ],
      "name": "getApproved",
      "outputs": [
        {
          "internalType": "address",
          "name": "",
          "type": "address"
        }
      ],
      "stateMutability": "view",
      "type": "function"
    },
    {
      "inputs": [
        {
          "internalType": "address",
          "name": "to",
          "type": "address"
        },
        {
          "internalType": "bool",
          "name": "approved",
          "type": "bool"
        }
      ],
      "name": "setApprovalForAll",
      "outputs": [],
      "stateMutability": "nonpayable",
      "type": "function"
    },
    {
      "inputs": [
        {
          "internalType": "address",
          "name": "owner",
          "type": "address"
        },
        {
          "internalType": "address",
          "name": "operator",
          "type": "address"
        }
      ],
      "name": "isApprovedForAll",
      "outputs": [
        {
          "internalType": "bool",
          "name": "",
          "type": "bool"
        }
      ],
      "stateMutability": "view",
      "type": "function"
    },
    {
      "inputs": [
        {
          "internalType": "address",
          "name": "from",
          "type": "address"
        },
        {
          "internalType": "address",
          "name": "to",
          "type": "address"
        },
        {
          "internalType": "uint256",
          "name": "tokenId",
          "type": "uint256"
        }
      ],
      "name": "transferFrom",
      "outputs": [],
      "stateMutability": "nonpayable",
      "type": "function"
    },
    {
      "inputs": [
        {
          "internalType": "address",
          "name": "from",
          "type": "address"
        },
        {
          "internalType": "address",
          "name": "to",
          "type": "address"
        },
        {
          "internalType": "uint256",
          "name": "tokenId",
          "type": "uint256"
        }
      ],
      "name": "safeTransferFrom",
      "outputs": [],
      "stateMutability": "nonpayable",
      "type": "function"
    },
    {
      "inputs": [
        {
          "internalType": "address",
          "name": "from",
          "type": "address"
        },
        {
          "internalType": "address",
          "name": "to",
          "type": "address"
        },
        {
          "internalType": "uint256",
          "name": "tokenId",
          "type": "uint256"
        },
        {
          "internalType": "bytes",
          "name": "_data",
          "type": "bytes"
        }
      ],
      "name": "safeTransferFromWithData",
      "outputs": [],
      "stateMutability": "nonpayable",
      "type": "function"
    }
  ],
  "bytecode": "0x6080604052600060045534801561001557600080fd5b50610bf8806100256000396000f3fe608060405234801561001057600080fd5b50600436106100a95760003560e01c806360a116721161007157806360a11672146101bc5780636352211e1461028257806370a082311461029f578063a22cb465146102d7578063cd7c032614610305578063e985e9c51461030d576100a9565b806301ffc9a7146100ae578063081812fc146100e9578063095ea7b31461012257806323b872dd1461015057806342842e0e14610186575b600080fd5b6100d5600480360360208110156100c457600080fd5b50356001600160e01b03191661033b565b604080519115158252519081900360200190f35b610106600480360360208110156100ff57600080fd5b503561035a565b604080516001600160a01b039092168252519081900360200190f35b61014e6004803603604081101561013857600080fd5b506001600160a01b0381351690602001356103ca565b005b61014e6004803603606081101561016657600080fd5b506001600160a01b03813581169160208101359091169060400135610502565b61014e6004803603606081101561019c57600080fd5b506001600160a01b0381358116916020810135909116906040013561056d565b61014e600480360360808110156101d257600080fd5b6001600160a01b0382358116926020810135909116916040820135919081019060808101606082013564010000000081111561020d57600080fd5b82018360208201111561021f57600080fd5b8035906020019184600183028401116401000000008311171561024157600080fd5b91908080601f016020809104026020016040519081016040528093929190818152602001838380828437600092019190915250929550610584945050505050565b6101066004803603602081101561029857600080fd5b50356105e9565b6102c5600480360360208110156102b557600080fd5b50356001600160a01b0316610655565b60408051918252519081900360200190f35b61014e600480360360408110156102ed57600080fd5b506001600160a01b03813516906020013515156106cf565b610106610795565b6100d56004803603604081101561032357600080fd5b506001600160a01b03813581169160200135166107a4565b6001600160e01b03191660009081526006602052604090205460ff1690565b6000610365826107d2565b6103ae576040805162461bcd60e51b81526020600482015260156024820152741d1bdad95b925108191bd95cdb89dd08195e1a5cdd605a1b604482015290519081900360640190fd5b506000908152600860205260409020546001600160a01b031690565b60006103d5826105e9565b9050806001600160a01b0316836001600160a01b03161415610438576040805162461bcd60e51b815260206004820152601760248201527631b0b73737ba1030b8383937bb32903cb7bab939b2b63360491b604482015290519081900360640190fd5b336001600160a01b0382161480610454575061045481336107a4565b610499576040805162461bcd60e51b81526020600482015260116024820152701c195c9b5a5cdcda5bdb8819195b9a5959607a1b604482015290519081900360640190fd5b60008281526008602090815260409182902080546001600160a01b0319166001600160a01b03878116918217909255835186815293519093918516927f8c5be1e5ebec7d5bd14f71427d1e84f3dd0314c0f7b2291e5b200ac8c7c3b925928290030190a3505050565b61050c33826107ef565b61055d576040805162461bcd60e51b815260206004820152601760248201527f7370656e646572206973206e6f7420617070726f766564000000000000000000604482015290519081900360640190fd5b61056883838361084e565b505050565b610568838383604051806020016040528060008152505b61058f848484610502565b61059b848484846109cb565b6105e3576040805162461bcd60e51b81526020600482015260146024820152736461746120636865636b206973206e6f74206f6b60601b604482015290519081900360640190fd5b50505050565b6000818152600760205260408120546001600160a01b03168061064f576040805162461bcd60e51b815260206004820152601960248201527806f776e65722063616e6e6f742062652061646472657373203603c1b604482015290519081900360640190fd5b92915050565b60006001600160a01b0382166106ae576040805162461bcd60e51b815260206004820152601960248201527806f776e65722063616e6e6f742062652061646472657373203603c1b604482015290519081900360640190fd5b6001600160a01b038216600090815260096020526040902061064f90610afe565b6001600160a01b038216331415610727576040805162461bcd60e51b815260206004820152601760248201527631b0b73737ba1030b8383937bb32903cb7bab939b2b63360491b604482015290519081900360640190fd5b336000818152600a602090815260408083206001600160a01b03871680855290835292819020805460ff1916861515908117909155815190815290519293927f17307eab39ab6107e8899845ad3d59bd9653f200f220920489ca2b5937696c31929181900390910190a35050565b6003546001600160a01b031681565b6001600160a01b039182166000908152600a6020908152604080832093909416825291909152205460ff1690565b6000908152600760205260409020546001600160a01b0316151590565b6000806107fb836105e9565b9050806001600160a01b0316846001600160a01b031614806108365750836001600160a01b031661082b8461035a565b6001600160a01b0316145b80610846575061084681856107a4565b949350505050565b826001600160a01b0316610861826105e9565b6001600160a01b0316146108bc576040805162461bcd60e51b815260206004820181905260248201527f73656e646572206973206e6f74206f776e6572206f662074686520746f6b656e604482015290519081900360640190fd5b6001600160a01b038216610917576040805162461bcd60e51b815260206004820152601860248201527f63616e6e6f742073656e6420746f203020616464726573730000000000000000604482015290519081900360640190fd5b61092081610b02565b6001600160a01b038316600090815260096020526040902061094190610b3f565b6001600160a01b038216600090815260096020526040902061096290610b56565b60008181526007602090815260409182902080546001600160a01b0319166001600160a01b03868116918217909255835185815293519093918716927fddf252ad1be2c89b69c2b068fc378daa952ba7f163c4a11628f55a4df523b3ef928290030190a3505050565b60006109df846001600160a01b0316610b5f565b6109eb57506001610846565b604051630a85bd0160e11b815233600482018181526001600160a01b03888116602485015260448401879052608060648501908152865160848601528651600095928a169463150b7a029490938c938b938b939260a4019060208501908083838e5b83811015610a65578181015183820152602001610a4d565b50505050905090810190601f168015610a925780820380516001836020036101000a031916815260200191505b5095505050505050602060405180830381600087803b158015610ab457600080fd5b505af1158015610ac8573d6000803e3d6000fd5b505050506040513d6020811015610ade57600080fd5b50516001600160e01b031916630a85bd0160e11b14915050949350505050565b5490565b6000818152600860205260409020546001600160a01b031615610b3c57600081815260086020526040902080546001600160a01b03191690555b50565b8054610b5290600163ffffffff610b6516565b9055565b80546001019055565b3b151590565b600082821115610bbc576040805162461bcd60e51b815260206004820152601d60248201527f726573756c742063616e6e6f74206265206c6f776572207468616e2030000000604482015290519081900360640190fd5b5090039056fea2646970667358221220f9692536964563d311dd0f94a5afc2ce268a1992ea50445b323538747341c7cf64736f6c63430006020033",
  "source": "pragma solidity 0.6.2;\n\nimport \"./ERC165.sol\";\nimport \"./Interfaces/IERC721.sol\";\nimport \"./Interfaces/IERC721Receiver.sol\";\nimport \"./Libraries/SafeMath.sol\";\nimport \"./Libraries/Address.sol\";\n\n/**\n* @title ERC721 Non-Fungible Token Standard basic implementation\n* @dev see https://eips.ethereum.org/EIPS/eip-721\n* @dev source : openzeppelin-solidity/contracts/token/ERC721/ERC721.sol\n*/\ncontract ERC721 is ERC165, IERC721 {\n    using SafeMath for uint256;\n    using Address for address;\n\n    /**\n    * @dev Event emitting when a NFT transfer occured\n    */\n    event Transfer(address indexed from, address indexed to, uint256 tokenId);\n\n    /**\n    * @dev Event emitting when an address has been approved by an owner for spending a specific NFT\n    */\n    event Approval(address indexed owner, address indexed approved, uint256 tokenId);\n\n    /**\n    * @dev Event emitting when an address has been approved by an owner for spending any of its NFT\n    */\n    event ApprovalForAll(address indexed owner, address indexed operator, bool approved);\n\n    /**\n    * @dev Gets the balance of the specified address\n    * @param owner address to query the balance of\n    * @return uint256 representing the amount owned by the passed address\n    */\n    function balanceOf(address owner) public override view returns (uint256) {\n        require(owner != address(0), \"owner cannot be address 0\");\n        return _ownedTokensCount[owner].current();\n    }\n\n    /**\n    * @dev Gets the owner of the specified token ID\n    * @param tokenId uint256 ID of the token to query the owner of\n    * @return address currently marked as the owner of the given token ID\n    */\n    function ownerOf(uint256 tokenId) public override view returns (address) {\n        address owner = _tokenOwner[tokenId];\n        require(owner != address(0), \"owner cannot be address 0\");\n        return owner;\n    }\n\n\n    /**\n    * @dev Approves another address to transfer the given token ID\n    * The zero address indicates there is no approved address.\n    * There can only be one approved address per token at a given time.\n    * Can only be called by the token owner or an approved operator.\n    * @param to address to be approved for the given token ID\n    * @param tokenId uint256 ID of the token to be approved\n    */\n    function approve(address to, uint256 tokenId) public override {\n        address owner = ownerOf(tokenId);\n        require(to != owner, \"cannot approve yourself\");\n        require(msg.sender == owner || isApprovedForAll(owner, msg.sender), \"permission denied\");\n\n        _tokenApprovals[tokenId] = to;\n        emit Approval(owner, to, tokenId);\n    }\n\n    /**\n    * @dev Gets the approved address for a token ID, or zero if no address set\n    * Reverts if the token ID does not exist.\n    * @param tokenId uint256 ID of the token to query the approval of\n    * @return address currently approved for the given token ID\n    */\n    function getApproved(uint256 tokenId) public override view returns (address) {\n        require(_exists(tokenId), \"tokenID doesn't exist\");\n        return _tokenApprovals[tokenId];\n    }\n\n    /**\n    * @dev Sets or unsets the approval of a given operator\n    * An operator is allowed to transfer all tokens of the sender on their behalf\n    * @param to operator address to set the approval\n    * @param approved representing the status of the approval to be set\n    */\n    function setApprovalForAll(address to, bool approved) public override {\n        require(to != msg.sender, \"cannot approve yourself\");\n        _operatorApprovals[msg.sender][to] = approved;\n        emit ApprovalForAll(msg.sender, to, approved);\n    }\n\n    /**\n    * @dev Tells whether an operator is approved by a given owner\n    * @param owner owner address which you want to query the approval of\n    * @param operator operator address which you want to query the approval of\n    * @return bool whether the given operator is approved by the given owner\n    */\n    function isApprovedForAll(address owner, address operator) public override virtual view returns (bool) {\n        return _operatorApprovals[owner][operator];\n    }\n\n    /**\n    * @dev Transfers the ownership of a given token ID to another address\n    * Usage of this method is discouraged, use `safeTransferFrom` whenever possible\n    * Requires the msg.sender to be the owner, approved, or operator\n    * @param from current owner of the token\n    * @param to address to receive the ownership of the given token ID\n    * @param tokenId uint256 ID of the token to be transferred\n    */\n    function transferFrom(address from, address to, uint256 tokenId) public override {\n        require(_isApprovedOrOwner(msg.sender, tokenId), \"spender is not approved\");\n\n        _transferFrom(from, to, tokenId);\n    }\n\n    /**\n    * @dev Safely transfers the ownership of a given token ID to another address\n    * If the target address is a contract, it must implement `onERC721Received`,\n    * which is called upon a safe transfer, and return the magic value\n    * `bytes4(keccak256(\"onERC721Received(address,address,uint256,bytes)\"))`; otherwise,\n    * the transfer is reverted.\n    * Requires the msg.sender to be the owner, approved, or operator\n    * @param from current owner of the token\n    * @param to address to receive the ownership of the given token ID\n    * @param tokenId uint256 ID of the token to be transferred\n    */\n    function safeTransferFrom(address from, address to, uint256 tokenId) public override {\n        safeTransferFromWithData(from, to, tokenId, \"\");\n    }\n\n    /**\n    * @dev Safely transfers the ownership of a given token ID to another address\n    * If the target address is a contract, it must implement `onERC721Received`,\n    * which is called upon a safe transfer, and return the magic value\n    * `bytes4(keccak256(\"onERC721Received(address,address,uint256,bytes)\"))`; otherwise,\n    * the transfer is reverted.\n    * Requires the msg.sender to be the owner, approved, or operator\n    * @param from current owner of the token\n    * @param to address to receive the ownership of the given token ID\n    * @param tokenId uint256 ID of the token to be transferred\n    * @param _data bytes data to send along with a safe transfer check\n    */\n    function safeTransferFromWithData(address from, address to, uint256 tokenId, bytes memory _data) public override {\n        transferFrom(from, to, tokenId);\n        require(_checkOnERC721Received(from, to, tokenId, _data), \"data check is not ok\");\n    }\n\n    /**\n    * @dev Returns whether the specified token exists\n    * @param tokenId uint256 ID of the token to query the existence of\n    * @return bool whether the token exists\n    */\n    function _exists(uint256 tokenId) internal view returns (bool) {\n        address owner = _tokenOwner[tokenId];\n        return owner != address(0);\n    }\n\n    /**\n    * @dev Returns whether the given spender can transfer a given token ID\n    * @param spender address of the spender to query\n    * @param tokenId uint256 ID of the token to be transferred\n    * @return bool whether the msg.sender is approved for the given token ID,\n    * is an operator of the owner, or is the owner of the token\n    */\n    function _isApprovedOrOwner(address spender, uint256 tokenId) internal view returns (bool) {\n        address owner = ownerOf(tokenId);\n        return (spender == owner || getApproved(tokenId) == spender || isApprovedForAll(owner, spender));\n    }\n\n    /**\n    * @dev Internal function to mint a new token\n    * Reverts if the given token ID already exists\n    * @param to The address that will own the minted token\n    * @param tokenId uint256 ID of the token to be minted\n    */\n    function _mint(address to, uint256 tokenId) internal virtual {\n        require(to != address(0), \"cannot mint to address 0\");\n        require(!_exists(tokenId), \"token already exists\");\n\n        _tokenOwner[tokenId] = to;\n        _ownedTokensCount[to].increment();\n\n        emit Transfer(address(0), to, tokenId);\n    }\n\n    /**\n    * @dev Internal function to burn a specific token\n    * Reverts if the token does not exist\n    * Deprecated, use _burn(uint256) instead.\n    * @param owner owner of the token to burn\n    * @param tokenId uint256 ID of the token being burned\n    */\n    function _burn(address owner, uint256 tokenId) internal virtual {\n        require(ownerOf(tokenId) == owner, \"address is not owner of tokenID\");\n\n        _clearApproval(tokenId);\n\n        _ownedTokensCount[owner].decrement();\n        _tokenOwner[tokenId] = address(0);\n\n        emit Transfer(owner, address(0), tokenId);\n    }\n\n    /**\n    * @dev Internal function to burn a specific token\n    * Reverts if the token does not exist\n    * @param tokenId uint256 ID of the token being burned\n    */\n    function _burn(uint256 tokenId) internal {\n        _burn(ownerOf(tokenId), tokenId);\n    }\n\n    /**\n    * @dev Internal function to transfer ownership of a given token ID to another address.\n    * As opposed to transferFrom, this imposes no restrictions on msg.sender.\n    * @param from current owner of the token\n    * @param to address to receive the ownership of the given token ID\n    * @param tokenId uint256 ID of the token to be transferred\n    */\n    function _transferFrom(address from, address to, uint256 tokenId) internal virtual {\n        require(ownerOf(tokenId) == from, \"sender is not owner of the token\");\n        require(to != address(0), \"cannot send to 0 address\");\n\n        _clearApproval(tokenId);\n\n        _ownedTokensCount[from].decrement();\n        _ownedTokensCount[to].increment();\n\n        _tokenOwner[tokenId] = to;\n\n        emit Transfer(from, to, tokenId);\n    }\n\n    /**\n    * @dev Internal function to invoke `onERC721Received` on a target address\n    * The call is not executed if the target address is not a contract\n    * @param from address representing the previous owner of the given token ID\n    * @param to target address that will receive the tokens\n    * @param tokenId uint256 ID of the token to be transferred\n    * @param _data bytes optional data to send along with the call\n    * @return bool whether the call correctly returned the expected magic value\n    */\n    function _checkOnERC721Received(address from, address to, uint256 tokenId, bytes memory _data)\n    internal returns (bool)\n    {\n        if (!to.isContract()) {\n            return true;\n        }\n\n        bytes4 retval = IERC721Receiver(to).onERC721Received(msg.sender, from, tokenId, _data);\n        return (retval == _ERC721_RECEIVED);\n    }\n\n    /**\n    * @dev Private function to clear current approval of a given token ID\n    * @param tokenId uint256 ID of the token to be transferred\n    */\n    function _clearApproval(uint256 tokenId) private {\n        if (_tokenApprovals[tokenId] != address(0)) {\n            _tokenApprovals[tokenId] = address(0);\n        }\n    }\n}",
  "sourcePath": "/Users/proapps/Documents/Mat/Apps/Etherland/ERC721/contracts/ERC721.sol",
  "compiler": {
    "name": "solc",
    "version": "0.6.2+commit.bacdbe57.Emscripten.clang"
  },
  "schemaVersion": "3.3.2",
  "updatedAt": "2020-12-02T19:13:45.952Z",
  "devdoc": {
    "details": "see https://eips.ethereum.org/EIPS/eip-721source : openzeppelin-solidity/contracts/token/ERC721/ERC721.sol",
    "methods": {
      "approve(address,uint256)": {
        "details": "Approves another address to transfer the given token ID The zero address indicates there is no approved address. There can only be one approved address per token at a given time. Can only be called by the token owner or an approved operator.",
        "params": {
          "to": "address to be approved for the given token ID",
          "tokenId": "uint256 ID of the token to be approved"
        }
      },
      "balanceOf(address)": {
        "details": "Gets the balance of the specified address",
        "params": {
          "owner": "address to query the balance of"
        },
        "returns": {
          "_0": "uint256 representing the amount owned by the passed address"
        }
      },
      "getApproved(uint256)": {
        "details": "Gets the approved address for a token ID, or zero if no address set Reverts if the token ID does not exist.",
        "params": {
          "tokenId": "uint256 ID of the token to query the approval of"
        },
        "returns": {
          "_0": "address currently approved for the given token ID"
        }
      },
      "isApprovedForAll(address,address)": {
        "details": "Tells whether an operator is approved by a given owner",
        "params": {
          "operator": "operator address which you want to query the approval of",
          "owner": "owner address which you want to query the approval of"
        },
        "returns": {
          "_0": "bool whether the given operator is approved by the given owner"
        }
      },
      "ownerOf(uint256)": {
        "details": "Gets the owner of the specified token ID",
        "params": {
          "tokenId": "uint256 ID of the token to query the owner of"
        },
        "returns": {
          "_0": "address currently marked as the owner of the given token ID"
        }
      },
      "safeTransferFrom(address,address,uint256)": {
        "details": "Safely transfers the ownership of a given token ID to another address If the target address is a contract, it must implement `onERC721Received`, which is called upon a safe transfer, and return the magic value `bytes4(keccak256(\"onERC721Received(address,address,uint256,bytes)\"))`; otherwise, the transfer is reverted. Requires the msg.sender to be the owner, approved, or operator",
        "params": {
          "from": "current owner of the token",
          "to": "address to receive the ownership of the given token ID",
          "tokenId": "uint256 ID of the token to be transferred"
        }
      },
      "safeTransferFromWithData(address,address,uint256,bytes)": {
        "details": "Safely transfers the ownership of a given token ID to another address If the target address is a contract, it must implement `onERC721Received`, which is called upon a safe transfer, and return the magic value `bytes4(keccak256(\"onERC721Received(address,address,uint256,bytes)\"))`; otherwise, the transfer is reverted. Requires the msg.sender to be the owner, approved, or operator",
        "params": {
          "_data": "bytes data to send along with a safe transfer check",
          "from": "current owner of the token",
          "to": "address to receive the ownership of the given token ID",
          "tokenId": "uint256 ID of the token to be transferred"
        }
      },
      "setApprovalForAll(address,bool)": {
        "details": "Sets or unsets the approval of a given operator An operator is allowed to transfer all tokens of the sender on their behalf",
        "params": {
          "approved": "representing the status of the approval to be set",
          "to": "operator address to set the approval"
        }
      },
      "supportsInterface(bytes4)": {
        "details": "implement supportsInterface(bytes4) using a lookup table"
      },
      "transferFrom(address,address,uint256)": {
        "details": "Transfers the ownership of a given token ID to another address Usage of this method is discouraged, use `safeTransferFrom` whenever possible Requires the msg.sender to be the owner, approved, or operator",
        "params": {
          "from": "current owner of the token",
          "to": "address to receive the ownership of the given token ID",
          "tokenId": "uint256 ID of the token to be transferred"
        }
      }
    },
    "title": "ERC721 Non-Fungible Token Standard basic implementation"
  },
  "userdoc": {
    "methods": {}
  }
}