{
  "contractName": "Etherland",
  "abi": [
    {
      "inputs": [
        {
          "internalType": "string",
          "name": "_name",
          "type": "string"
        },
        {
          "internalType": "string",
          "name": "_symbol",
          "type": "string"
        },
        {
          "internalType": "address",
          "name": "_proxyRegistryAddress",
          "type": "address"
        },
        {
          "internalType": "string",
          "name": "baseURI",
          "type": "string"
        }
      ],
      "stateMutability": "nonpayable",
      "type": "constructor"
    },
    {
      "anonymous": false,
      "inputs": [
        {
          "indexed": true,
          "internalType": "address",
          "name": "owner",
          "type": "address"
        },
        {
          "indexed": true,
          "internalType": "address",
          "name": "approved",
          "type": "address"
        },
        {
          "indexed": true,
          "internalType": "uint256",
          "name": "tokenId",
          "type": "uint256"
        }
      ],
      "name": "Approval",
      "type": "event"
    },
    {
      "anonymous": false,
      "inputs": [
        {
          "indexed": true,
          "internalType": "address",
          "name": "owner",
          "type": "address"
        },
        {
          "indexed": true,
          "internalType": "address",
          "name": "operator",
          "type": "address"
        },
        {
          "indexed": false,
          "internalType": "bool",
          "name": "approved",
          "type": "bool"
        }
      ],
      "name": "ApprovalForAll",
      "type": "event"
    },
    {
      "anonymous": false,
      "inputs": [
        {
          "indexed": true,
          "internalType": "address",
          "name": "previousOwner",
          "type": "address"
        },
        {
          "indexed": true,
          "internalType": "address",
          "name": "newOwner",
          "type": "address"
        }
      ],
      "name": "OwnershipTransferred",
      "type": "event"
    },
    {
      "anonymous": false,
      "inputs": [
        {
          "indexed": true,
          "internalType": "address",
          "name": "from",
          "type": "address"
        },
        {
          "indexed": true,
          "internalType": "address",
          "name": "to",
          "type": "address"
        },
        {
          "indexed": true,
          "internalType": "uint256",
          "name": "tokenId",
          "type": "uint256"
        }
      ],
      "name": "Transfer",
      "type": "event"
    },
    {
      "inputs": [
        {
          "internalType": "address",
          "name": "_admin",
          "type": "address"
        }
      ],
      "name": "adminRightsOf",
      "outputs": [
        {
          "internalType": "int16",
          "name": "",
          "type": "int16"
        }
      ],
      "stateMutability": "view",
      "type": "function"
    },
    {
      "inputs": [
        {
          "internalType": "address",
          "name": "to",
          "type": "address"
        },
        {
          "internalType": "uint256",
          "name": "tokenId",
          "type": "uint256"
        }
      ],
      "name": "approve",
      "outputs": [],
      "stateMutability": "nonpayable",
      "type": "function"
    },
    {
      "inputs": [
        {
          "internalType": "address",
          "name": "owner",
          "type": "address"
        }
      ],
      "name": "balanceOf",
      "outputs": [
        {
          "internalType": "uint256",
          "name": "",
          "type": "uint256"
        }
      ],
      "stateMutability": "view",
      "type": "function"
    },
    {
      "inputs": [
        {
          "internalType": "uint256",
          "name": "_total",
          "type": "uint256"
        },
        {
          "internalType": "address",
          "name": "_to",
          "type": "address"
        }
      ],
      "name": "batchMintTo",
      "outputs": [],
      "stateMutability": "nonpayable",
      "type": "function"
    },
    {
      "inputs": [
        {
          "internalType": "uint256",
          "name": "_tokenId",
          "type": "uint256"
        }
      ],
      "name": "burn",
      "outputs": [],
      "stateMutability": "nonpayable",
      "type": "function"
    },
    {
      "inputs": [],
      "name": "canMint",
      "outputs": [
        {
          "internalType": "bool",
          "name": "",
          "type": "bool"
        }
      ],
      "stateMutability": "view",
      "type": "function"
    },
    {
      "inputs": [],
      "name": "canMintBurn",
      "outputs": [
        {
          "internalType": "bool",
          "name": "",
          "type": "bool"
        }
      ],
      "stateMutability": "view",
      "type": "function"
    },
    {
      "inputs": [
        {
          "internalType": "uint256",
          "name": "tokenId",
          "type": "uint256"
        }
      ],
      "name": "getApproved",
      "outputs": [
        {
          "internalType": "address",
          "name": "",
          "type": "address"
        }
      ],
      "stateMutability": "view",
      "type": "function"
    },
    {
      "inputs": [
        {
          "internalType": "uint256",
          "name": "_tokenId",
          "type": "uint256"
        }
      ],
      "name": "getMetadatas",
      "outputs": [
        {
          "internalType": "string",
          "name": "",
          "type": "string"
        }
      ],
      "stateMutability": "view",
      "type": "function"
    },
    {
      "inputs": [
        {
          "internalType": "address",
          "name": "_admin",
          "type": "address"
        }
      ],
      "name": "grantMinterBurnerRights",
      "outputs": [],
      "stateMutability": "nonpayable",
      "type": "function"
    },
    {
      "inputs": [
        {
          "internalType": "address",
          "name": "_admin",
          "type": "address"
        }
      ],
      "name": "grantMinterRights",
      "outputs": [],
      "stateMutability": "nonpayable",
      "type": "function"
    },
    {
      "inputs": [
        {
          "internalType": "address",
          "name": "owner",
          "type": "address"
        },
        {
          "internalType": "address",
          "name": "operator",
          "type": "address"
        }
      ],
      "name": "isApprovedForAll",
      "outputs": [
        {
          "internalType": "bool",
          "name": "",
          "type": "bool"
        }
      ],
      "stateMutability": "view",
      "type": "function"
    },
    {
      "inputs": [
        {
          "internalType": "address",
          "name": "_admin",
          "type": "address"
        }
      ],
      "name": "isMinter",
      "outputs": [
        {
          "internalType": "bool",
          "name": "",
          "type": "bool"
        }
      ],
      "stateMutability": "view",
      "type": "function"
    },
    {
      "inputs": [
        {
          "internalType": "address",
          "name": "_admin",
          "type": "address"
        }
      ],
      "name": "isMinterBurner",
      "outputs": [
        {
          "internalType": "bool",
          "name": "",
          "type": "bool"
        }
      ],
      "stateMutability": "view",
      "type": "function"
    },
    {
      "inputs": [],
      "name": "isOwner",
      "outputs": [
        {
          "internalType": "bool",
          "name": "",
          "type": "bool"
        }
      ],
      "stateMutability": "view",
      "type": "function"
    },
    {
      "inputs": [
        {
          "internalType": "address",
          "name": "_to",
          "type": "address"
        }
      ],
      "name": "mintTo",
      "outputs": [],
      "stateMutability": "nonpayable",
      "type": "function"
    },
    {
      "inputs": [],
      "name": "name",
      "outputs": [
        {
          "internalType": "string",
          "name": "",
          "type": "string"
        }
      ],
      "stateMutability": "view",
      "type": "function"
    },
    {
      "inputs": [],
      "name": "owner",
      "outputs": [
        {
          "internalType": "address",
          "name": "",
          "type": "address"
        }
      ],
      "stateMutability": "view",
      "type": "function"
    },
    {
      "inputs": [
        {
          "internalType": "uint256",
          "name": "tokenId",
          "type": "uint256"
        }
      ],
      "name": "ownerOf",
      "outputs": [
        {
          "internalType": "address",
          "name": "",
          "type": "address"
        }
      ],
      "stateMutability": "view",
      "type": "function"
    },
    {
      "inputs": [],
      "name": "proxyRegistryAddress",
      "outputs": [
        {
          "internalType": "address",
          "name": "",
          "type": "address"
        }
      ],
      "stateMutability": "view",
      "type": "function"
    },
    {
      "inputs": [
        {
          "internalType": "uint256",
          "name": "_tokenId",
          "type": "uint256"
        }
      ],
      "name": "removeMetadatas",
      "outputs": [],
      "stateMutability": "nonpayable",
      "type": "function"
    },
    {
      "inputs": [],
      "name": "renounceOwnership",
      "outputs": [],
      "stateMutability": "nonpayable",
      "type": "function"
    },
    {
      "inputs": [
        {
          "internalType": "address",
          "name": "_admin",
          "type": "address"
        }
      ],
      "name": "revokeAdminRights",
      "outputs": [],
      "stateMutability": "nonpayable",
      "type": "function"
    },
    {
      "inputs": [
        {
          "internalType": "address",
          "name": "from",
          "type": "address"
        },
        {
          "internalType": "address",
          "name": "to",
          "type": "address"
        },
        {
          "internalType": "uint256",
          "name": "tokenId",
          "type": "uint256"
        }
      ],
      "name": "safeTransferFrom",
      "outputs": [],
      "stateMutability": "nonpayable",
      "type": "function"
    },
    {
      "inputs": [
        {
          "internalType": "address",
          "name": "from",
          "type": "address"
        },
        {
          "internalType": "address",
          "name": "to",
          "type": "address"
        },
        {
          "internalType": "uint256",
          "name": "tokenId",
          "type": "uint256"
        },
        {
          "internalType": "bytes",
          "name": "_data",
          "type": "bytes"
        }
      ],
      "name": "safeTransferFromWithData",
      "outputs": [],
      "stateMutability": "nonpayable",
      "type": "function"
    },
    {
      "inputs": [
        {
          "internalType": "address",
          "name": "to",
          "type": "address"
        },
        {
          "internalType": "bool",
          "name": "approved",
          "type": "bool"
        }
      ],
      "name": "setApprovalForAll",
      "outputs": [],
      "stateMutability": "nonpayable",
      "type": "function"
    },
    {
      "inputs": [
        {
          "internalType": "uint256",
          "name": "_tokenId",
          "type": "uint256"
        },
        {
          "internalType": "string",
          "name": "_metadatas",
          "type": "string"
        }
      ],
      "name": "setMetadatas",
      "outputs": [],
      "stateMutability": "nonpayable",
      "type": "function"
    },
    {
      "inputs": [
        {
          "internalType": "bytes4",
          "name": "interfaceId",
          "type": "bytes4"
        }
      ],
      "name": "supportsInterface",
      "outputs": [
        {
          "internalType": "bool",
          "name": "",
          "type": "bool"
        }
      ],
      "stateMutability": "view",
      "type": "function"
    },
    {
      "inputs": [],
      "name": "symbol",
      "outputs": [
        {
          "internalType": "string",
          "name": "",
          "type": "string"
        }
      ],
      "stateMutability": "view",
      "type": "function"
    },
    {
      "inputs": [
        {
          "internalType": "uint256",
          "name": "index",
          "type": "uint256"
        }
      ],
      "name": "tokenByIndex",
      "outputs": [
        {
          "internalType": "uint256",
          "name": "",
          "type": "uint256"
        }
      ],
      "stateMutability": "view",
      "type": "function"
    },
    {
      "inputs": [
        {
          "internalType": "address",
          "name": "owner",
          "type": "address"
        },
        {
          "internalType": "uint256",
          "name": "index",
          "type": "uint256"
        }
      ],
      "name": "tokenOfOwnerByIndex",
      "outputs": [
        {
          "internalType": "uint256",
          "name": "",
          "type": "uint256"
        }
      ],
      "stateMutability": "view",
      "type": "function"
    },
    {
      "inputs": [
        {
          "internalType": "address",
          "name": "owner",
          "type": "address"
        }
      ],
      "name": "tokensOf",
      "outputs": [
        {
          "internalType": "uint256[]",
          "name": "",
          "type": "uint256[]"
        }
      ],
      "stateMutability": "view",
      "type": "function"
    },
    {
      "inputs": [],
      "name": "totalSupply",
      "outputs": [
        {
          "internalType": "uint256",
          "name": "",
          "type": "uint256"
        }
      ],
      "stateMutability": "view",
      "type": "function"
    },
    {
      "inputs": [
        {
          "internalType": "address",
          "name": "from",
          "type": "address"
        },
        {
          "internalType": "address",
          "name": "to",
          "type": "address"
        },
        {
          "internalType": "uint256",
          "name": "tokenId",
          "type": "uint256"
        }
      ],
      "name": "transferFrom",
      "outputs": [],
      "stateMutability": "nonpayable",
      "type": "function"
    },
    {
      "inputs": [
        {
          "internalType": "address",
          "name": "newOwner",
          "type": "address"
        }
      ],
      "name": "transferOwnership",
      "outputs": [],
      "stateMutability": "nonpayable",
      "type": "function"
    },
    {
      "inputs": [],
      "name": "baseTokenURI",
      "outputs": [
        {
          "internalType": "string",
          "name": "",
          "type": "string"
        }
      ],
      "stateMutability": "view",
      "type": "function"
    },
    {
      "inputs": [
        {
          "internalType": "string",
          "name": "uri",
          "type": "string"
        }
      ],
      "name": "setBaseTokenURI",
      "outputs": [],
      "stateMutability": "nonpayable",
      "type": "function"
    },
    {
      "inputs": [
        {
          "internalType": "uint256",
          "name": "_tokenId",
          "type": "uint256"
        }
      ],
      "name": "tokenURI",
      "outputs": [
        {
          "internalType": "string",
          "name": "",
          "type": "string"
        }
      ],
      "stateMutability": "view",
      "type": "function"
    }
  ],
  "bytecode": "0x60806040526000600f553480156200001657600080fd5b5060405162002c7d38038062002c7d833981810160405260808110156200003c57600080fd5b81019080805160405193929190846401000000008211156200005d57600080fd5b9083019060208201858111156200007357600080fd5b82516401000000008111828201881017156200008e57600080fd5b82525081516020918201929091019080838360005b83811015620000bd578181015183820152602001620000a3565b50505050905090810190601f168015620000eb5780820380516001836020036101000a031916815260200191505b50604052602001805160405193929190846401000000008211156200010f57600080fd5b9083019060208201858111156200012557600080fd5b82516401000000008111828201881017156200014057600080fd5b82525081516020918201929091019080838360005b838110156200016f57818101518382015260200162000155565b50505050905090810190601f1680156200019d5780820380516001836020036101000a031916815260200191505b50604081815260208301519201805192949193919284640100000000821115620001c657600080fd5b908301906020820185811115620001dc57600080fd5b8251640100000000811182820188101715620001f757600080fd5b82525081516020918201929091019080838360005b83811015620002265781810151838201526020016200020c565b50505050905090810190601f168015620002545780820380516001836020036101000a031916815260200191505b50604052508591508490508382826200027d6301ffc9a760e01b6001600160e01b036200039e16565b620002986380ac58cd60e01b6001600160e01b036200039e16565b8151620002ad90600590602085019062000413565b508051620002c390600690602084019062000413565b50620002df635b5e139f60e01b6001600160e01b036200039e16565b620002fa63780e9d6360e01b6001600160e01b036200039e16565b5050600c80546001600160a01b031916737640abeb029a856d3104df93f13536e20cb00d7c17908190556040516001600160a01b0391909116906000907f8be0079c531659141344cd1fd0a4f28419497f9722a3daafe3b4186f6b6457e0908290a3600e80546001600160a01b0319166001600160a01b0392909216919091179055505080516200039390601190602084019062000413565b5050505050620004b8565b6001600160e01b03198082161415620003ee576040805162461bcd60e51b815260206004820152600d60248201526c62616420696e7465726661636560981b604482015290519081900360640190fd5b6001600160e01b0319166000908152602081905260409020805460ff19166001179055565b828054600181600116156101000203166002900490600052602060002090601f016020900481019282601f106200045657805160ff191683800117855562000486565b8280016001018555821562000486579182015b828111156200048657825182559160200191906001019062000469565b506200049492915062000498565b5090565b620004b591905b808211156200049457600081556001016200049f565b90565b6127b580620004c86000396000f3fe608060405234801561001057600080fd5b50600436106102325760003560e01c806370a0823111610130578063a22cb465116100b8578063cd7c03261161007c578063cd7c0326146108fb578063d547cfb714610903578063e985e9c51461090b578063f2fde38b14610939578063fbd2d1ac1461095f57610232565b8063a22cb4651461085c578063a2e4d2391461088a578063aa271e1a146108b0578063beb9716d146108d6578063c87b56dd146108de57610232565b80638da5cb5b116100ff5780638da5cb5b146107e85780638f32d59b146107f05780639216b370146107f857806395d89b41146108155780639adfecf91461081d57610232565b806370a0823114610768578063715018a61461078e578063755edd17146107965780638d0f5b70146107bc57610232565b806330176e13116101be5780634f6ccce7116101825780634f6ccce7146105cc5780635a3f2672146105e957806360a116721461065f5780636352211e146107255780636a6811901461074257610232565b806330176e13146104005780633d9a1379146104a6578063426796831461055357806342842e0e1461057957806342966c68146105af57610232565b8063095ea7b311610205578063095ea7b31461035057806318160ddd1461037c5780631f6eeb681461039657806323b872dd1461039e5780632f745c59146103d457610232565b806301ffc9a71461023757806305d52d091461027257806306fdde031461029a578063081812fc14610317575b600080fd5b61025e6004803603602081101561024d57600080fd5b50356001600160e01b03191661097c565b604080519115158252519081900360200190f35b6102986004803603602081101561028857600080fd5b50356001600160a01b031661099f565b005b6102a2610a65565b6040805160208082528351818301528351919283929083019185019080838360005b838110156102dc5781810151838201526020016102c4565b50505050905090810190601f1680156103095780820380516001836020036101000a031916815260200191505b509250505060405180910390f35b6103346004803603602081101561032d57600080fd5b5035610afc565b604080516001600160a01b039092168252519081900360200190f35b6102986004803603604081101561036657600080fd5b506001600160a01b038135169060200135610b6c565b610384610c97565b60408051918252519081900360200190f35b61025e610c9d565b610298600480360360608110156103b457600080fd5b506001600160a01b03813581169160208101359091169060400135610cad565b610384600480360360408110156103ea57600080fd5b506001600160a01b038135169060200135610d18565b6102986004803603602081101561041657600080fd5b81019060208101813564010000000081111561043157600080fd5b82018360208201111561044357600080fd5b8035906020019184600183028401116401000000008311171561046557600080fd5b91908080601f016020809104026020016040519081016040528093929190818152602001838380828437600092019190915250929550610da2945050505050565b610298600480360360408110156104bc57600080fd5b813591908101906040810160208201356401000000008111156104de57600080fd5b8201836020820111156104f057600080fd5b8035906020019184600183028401116401000000008311171561051257600080fd5b91908080601f016020809104026020016040519081016040528093929190818152602001838380828437600092019190915250929550610e08945050505050565b61025e6004803603602081101561056957600080fd5b50356001600160a01b0316610e76565b6102986004803603606081101561058f57600080fd5b506001600160a01b03813581169160208101359091169060400135610eca565b610298600480360360208110156105c557600080fd5b5035610ee5565b610384600480360360208110156105e257600080fd5b5035610f34565b61060f600480360360208110156105ff57600080fd5b50356001600160a01b0316610fa4565b60408051602080825283518183015283519192839290830191858101910280838360005b8381101561064b578181015183820152602001610633565b505050509050019250505060405180910390f35b6102986004803603608081101561067557600080fd5b6001600160a01b038235811692602081013590911691604082013591908101906080810160608201356401000000008111156106b057600080fd5b8201836020820111156106c257600080fd5b803590602001918460018302840111640100000000831117156106e457600080fd5b91908080601f016020809104026020016040519081016040528093929190818152602001838380828437600092019190915250929550611005945050505050565b6103346004803603602081101561073b57600080fd5b503561106a565b6102986004803603602081101561075857600080fd5b50356001600160a01b03166110d0565b6103846004803603602081101561077e57600080fd5b50356001600160a01b0316611199565b610298611213565b610298600480360360208110156107ac57600080fd5b50356001600160a01b03166112ac565b610298600480360360408110156107d257600080fd5b50803590602001356001600160a01b0316611323565b61033461143a565b61025e611449565b6102a26004803603602081101561080e57600080fd5b503561145a565b6102a26114f1565b6108436004803603602081101561083357600080fd5b50356001600160a01b0316611552565b60408051600192830b90920b8252519081900360200190f35b6102986004803603604081101561087257600080fd5b506001600160a01b038135169060200135151561159f565b610298600480360360208110156108a057600080fd5b50356001600160a01b0316611665565b61025e600480360360208110156108c657600080fd5b50356001600160a01b031661172e565b61025e611780565b6102a2600480360360208110156108f457600080fd5b503561178b565b6103346117a6565b6102a26117b5565b61025e6004803603604081101561092157600080fd5b506001600160a01b0381358116916020013516611816565b6102986004803603602081101561094f57600080fd5b50356001600160a01b03166118c1565b6102986004803603602081101561097557600080fd5b5035611919565b6001600160e01b0319811660009081526020819052604090205460ff165b919050565b6109a7611449565b6109ee576040805162461bcd60e51b815260206004820152601360248201527239b2b73232b91034b9903737ba1037bbb732b960691b604482015290519081900360640190fd5b806001600160a01b038116610a42576040805162461bcd60e51b8152602060048201526015602482015274696e76616c69642061646d696e206164647265737360581b604482015290519081900360640190fd5b506001600160a01b03166000908152600d60205260409020805461ffff19169055565b60058054604080516020601f6002600019610100600188161502019095169490940493840181900481028201810190925282815260609390929091830182828015610af15780601f10610ac657610100808354040283529160200191610af1565b820191906000526020600020905b815481529060010190602001808311610ad457829003601f168201915b505050505090505b90565b6000610b0782611991565b610b50576040805162461bcd60e51b81526020600482015260156024820152741d1bdad95b925108191bd95cdb89dd08195e1a5cdd605a1b604482015290519081900360640190fd5b506000908152600260205260409020546001600160a01b031690565b6000610b778261106a565b9050806001600160a01b0316836001600160a01b03161415610bda576040805162461bcd60e51b815260206004820152601760248201527631b0b73737ba1030b8383937bb32903cb7bab939b2b63360491b604482015290519081900360640190fd5b336001600160a01b0382161480610bf65750610bf68133611816565b610c3b576040805162461bcd60e51b81526020600482015260116024820152701c195c9b5a5cdcda5bdb8819195b9a5959607a1b604482015290519081900360640190fd5b60008281526002602052604080822080546001600160a01b0319166001600160a01b0387811691821790925591518593918516917f8c5be1e5ebec7d5bd14f71427d1e84f3dd0314c0f7b2291e5b200ac8c7c3b92591a4505050565b600a5490565b6000610ca833610e76565b905090565b610cb733826119ae565b610d08576040805162461bcd60e51b815260206004820152601760248201527f7370656e646572206973206e6f7420617070726f766564000000000000000000604482015290519081900360640190fd5b610d13838383611a05565b505050565b6000610d2383611199565b8210610d6a576040805162461bcd60e51b81526020600482015260116024820152700d2dcc8caf040d2e640e8dede40d0d2ced607b1b604482015290519081900360640190fd5b6001600160a01b0383166000908152600860205260409020805483908110610d8e57fe5b906000526020600020015490505b92915050565b610daa611449565b610df1576040805162461bcd60e51b815260206004820152601360248201527239b2b73232b91034b9903737ba1037bbb732b960691b604482015290519081900360640190fd5b8051610e049060119060208401906126bf565b5050565b610e10611449565b610e57576040805162461bcd60e51b815260206004820152601360248201527239b2b73232b91034b9903737ba1037bbb732b960691b604482015290519081900360640190fd5b60008281526010602090815260409091208251610d13928401906126bf565b6000610e8061143a565b6001600160a01b0316826001600160a01b03161415610ea15750600161099a565b506001600160a01b0381166000908152600d6020526040902054600190810b900b60021461099a565b610d1383838360405180602001604052806000815250611005565b610eed610c9d565b610f285760405162461bcd60e51b81526004018080602001828103825260288152602001806127586028913960400191505060405180910390fd5b610f3181611a24565b50565b6000610f3e610c97565b8210610f85576040805162461bcd60e51b81526020600482015260116024820152700d2dcc8caf040d2e640e8dede40d0d2ced607b1b604482015290519081900360640190fd5b600a8281548110610f9257fe5b90600052602060002001549050919050565b6060610faf82611a36565b805480602002602001604051908101604052809291908181526020018280548015610ff957602002820191906000526020600020905b815481526020019060010190808311610fe5575b50505050509050919050565b611010848484610cad565b61101c84848484611a50565b611064576040805162461bcd60e51b81526020600482015260146024820152736461746120636865636b206973206e6f74206f6b60601b604482015290519081900360640190fd5b50505050565b6000818152600160205260408120546001600160a01b031680610d9c576040805162461bcd60e51b815260206004820152601960248201527806f776e65722063616e6e6f742062652061646472657373203603c1b604482015290519081900360640190fd5b6110d8611449565b61111f576040805162461bcd60e51b815260206004820152601360248201527239b2b73232b91034b9903737ba1037bbb732b960691b604482015290519081900360640190fd5b806001600160a01b038116611173576040805162461bcd60e51b8152602060048201526015602482015274696e76616c69642061646d696e206164647265737360581b604482015290519081900360640190fd5b506001600160a01b03166000908152600d60205260409020805461ffff19166001179055565b60006001600160a01b0382166111f2576040805162461bcd60e51b815260206004820152601960248201527806f776e65722063616e6e6f742062652061646472657373203603c1b604482015290519081900360640190fd5b6001600160a01b0382166000908152600360205260409020610d9c90611b83565b61121b611449565b611262576040805162461bcd60e51b815260206004820152601360248201527239b2b73232b91034b9903737ba1037bbb732b960691b604482015290519081900360640190fd5b600c546040516000916001600160a01b0316907f8be0079c531659141344cd1fd0a4f28419497f9722a3daafe3b4186f6b6457e0908390a3600c80546001600160a01b0319169055565b6112b4611780565b611305576040805162461bcd60e51b815260206004820181905260248201527f64656e696564203a206e6f2061646d696e206d696e74696e6720726967687473604482015290519081900360640190fd5b600061130f611b87565b905061131b8282611b9e565b610e04611bbb565b61132b611780565b61137c576040805162461bcd60e51b815260206004820181905260248201527f64656e696564203a206e6f2061646d696e206d696e74696e6720726967687473604482015290519081900360640190fd5b600082116113c8576040805162461bcd60e51b815260206004820152601460248201527336b4b73a1036b4b734b6bab69018903a37b5b2b760611b604482015290519081900360640190fd5b6001600160a01b03811661141e576040805162461bcd60e51b8152602060048201526018602482015277063616e6e6f74206d696e7420746f206164647265737320360441b604482015290519081900360640190fd5b60005b82811015610d1357611432826112ac565b600101611421565b600c546001600160a01b031690565b600c546001600160a01b0316331490565b60008181526010602090815260409182902080548351601f6002600019610100600186161502019093169290920491820184900484028101840190945280845260609392830182828015610ff95780601f106114c457610100808354040283529160200191610ff9565b820191906000526020600020905b8154815290600101906020018083116114d25750939695505050505050565b60068054604080516020601f6002600019610100600188161502019095169490940493840181900481028201810190925282815260609390929091830182828015610af15780601f10610ac657610100808354040283529160200191610af1565b600061155c61143a565b6001600160a01b0316826001600160a01b0316141561157d5750600261099a565b506001600160a01b0381166000908152600d602052604090205460010b61099a565b6001600160a01b0382163314156115f7576040805162461bcd60e51b815260206004820152601760248201527631b0b73737ba1030b8383937bb32903cb7bab939b2b63360491b604482015290519081900360640190fd5b3360008181526004602090815260408083206001600160a01b03871680855290835292819020805460ff1916861515908117909155815190815290519293927f17307eab39ab6107e8899845ad3d59bd9653f200f220920489ca2b5937696c31929181900390910190a35050565b61166d611449565b6116b4576040805162461bcd60e51b815260206004820152601360248201527239b2b73232b91034b9903737ba1037bbb732b960691b604482015290519081900360640190fd5b806001600160a01b038116611708576040805162461bcd60e51b8152602060048201526015602482015274696e76616c69642061646d696e206164647265737360581b604482015290519081900360640190fd5b506001600160a01b03166000908152600d60205260409020805461ffff19166002179055565b600061173861143a565b6001600160a01b0316826001600160a01b031614156117595750600161099a565b506001600160a01b0381166000908152600d6020526040812054600190810b900b1361099a565b6000610ca83361172e565b6060610d9c6117986117b5565b6117a184611bc6565b611c87565b600e546001600160a01b031681565b60118054604080516020601f6002600019610100600188161502019095169490940493840181900481028201810190925282815260609390929091830182828015610af15780601f10610ac657610100808354040283529160200191610af1565b600e546040805163c455279160e01b81526001600160a01b0385811660048301529151600093831692851691839163c455279191602480820192602092909190829003018186803b15801561186a57600080fd5b505afa15801561187e573d6000803e3d6000fd5b505050506040513d602081101561189457600080fd5b50516001600160a01b031614156118af576001915050610d9c565b6118b98484611cca565b949350505050565b6118c9611449565b611910576040805162461bcd60e51b815260206004820152601360248201527239b2b73232b91034b9903737ba1037bbb732b960691b604482015290519081900360640190fd5b610f3181611cf8565b611921611449565b611968576040805162461bcd60e51b815260206004820152601360248201527239b2b73232b91034b9903737ba1037bbb732b960691b604482015290519081900360640190fd5b6040805160208082018084526000808452858152601090925292902081519192610d13926126bf565b6000908152600160205260409020546001600160a01b0316151590565b6000806119ba8361106a565b9050806001600160a01b0316846001600160a01b031614806119f55750836001600160a01b03166119ea84610afc565b6001600160a01b0316145b806118b957506118b98185611816565b611a10838383611daf565b611a1a8382611f1f565b610d138282612021565b610f31611a308261106a565b8261205f565b6001600160a01b0316600090815260086020526040902090565b6000611a64846001600160a01b031661208b565b611a70575060016118b9565b604051630a85bd0160e11b815233600482018181526001600160a01b03888116602485015260448401879052608060648501908152865160848601528651600095928a169463150b7a029490938c938b938b939260a4019060208501908083838e5b83811015611aea578181015183820152602001611ad2565b50505050905090810190601f168015611b175780820380516001836020036101000a031916815260200191505b5095505050505050602060405180830381600087803b158015611b3957600080fd5b505af1158015611b4d573d6000803e3d6000fd5b505050506040513d6020811015611b6357600080fd5b50516001600160e01b031916630a85bd0160e11b14915050949350505050565b5490565b600f54600090610ca890600163ffffffff61209116565b611ba882826120eb565b611bb28282612021565b610e048161220e565b600f80546001019055565b606081611beb57506040805180820190915260018152600360fc1b602082015261099a565b8160005b8115611c0357600101600a82049150611bef565b6060816040519080825280601f01601f191660200182016040528015611c30576020820181803883390190505b50905060001982015b8515611c7e57600a860660300160f81b82828060019003935081518110611c5c57fe5b60200101906001600160f81b031916908160001a905350600a86049550611c39565b50949350505050565b6060611cc38383604051806020016040528060008152506040518060200160405280600081525060405180602001604052806000815250612252565b9392505050565b6001600160a01b03918216600090815260046020908152604080832093909416825291909152205460ff1690565b6001600160a01b038116611d53576040805162461bcd60e51b815260206004820152601d60248201527f6e6577206f776e65722063616e6e6f7420626520616464726573732030000000604482015290519081900360640190fd5b600c546040516001600160a01b038084169216907f8be0079c531659141344cd1fd0a4f28419497f9722a3daafe3b4186f6b6457e090600090a3600c80546001600160a01b0319166001600160a01b0392909216919091179055565b826001600160a01b0316611dc28261106a565b6001600160a01b031614611e1d576040805162461bcd60e51b815260206004820181905260248201527f73656e646572206973206e6f74206f776e6572206f662074686520746f6b656e604482015290519081900360640190fd5b6001600160a01b038216611e78576040805162461bcd60e51b815260206004820152601860248201527f63616e6e6f742073656e6420746f203020616464726573730000000000000000604482015290519081900360640190fd5b611e8181612466565b6001600160a01b0383166000908152600360205260409020611ea2906124a1565b6001600160a01b0382166000908152600360205260409020611ec3906124b8565b60008181526001602052604080822080546001600160a01b0319166001600160a01b0386811691821790925591518493918716917fddf252ad1be2c89b69c2b068fc378daa952ba7f163c4a11628f55a4df523b3ef91a4505050565b6001600160a01b038216600090815260086020526040812054611f4990600163ffffffff6124c116565b600083815260096020526040902054909150808214611fe4576001600160a01b0384166000908152600860205260408120805484908110611f8657fe5b906000526020600020015490508060086000876001600160a01b03166001600160a01b031681526020019081526020016000208381548110611fc457fe5b600091825260208083209091019290925591825260099052604090208190555b6001600160a01b038416600090815260086020526040902080548061200557fe5b6001900381819060005260206000200160009055905550505050565b6001600160a01b0390911660009081526008602081815260408084208054868652600984529185208290559282526001810183559183529091200155565b612069828261251e565b6120738282611f1f565b600081815260096020526040812055610e048161260b565b3b151590565b600082820183811015611cc3576040805162461bcd60e51b815260206004820181905260248201527f626f7468206e756d62657273206861766520746f20626520706f736974697665604482015290519081900360640190fd5b6001600160a01b038216612141576040805162461bcd60e51b8152602060048201526018602482015277063616e6e6f74206d696e7420746f206164647265737320360441b604482015290519081900360640190fd5b61214a81611991565b15612193576040805162461bcd60e51b8152602060048201526014602482015273746f6b656e20616c72656164792065786973747360601b604482015290519081900360640190fd5b600081815260016020908152604080832080546001600160a01b0319166001600160a01b0387169081179091558352600390915290206121d2906124b8565b60405181906001600160a01b038416906000907fddf252ad1be2c89b69c2b068fc378daa952ba7f163c4a11628f55a4df523b3ef908290a45050565b600a80546000838152600b60205260408120829055600182018355919091527fc65a7bb8d6351c1cf70c95a316cc6a92839c986682d98bc35f958f4883f9d2a80155565b6060808690506060869050606086905060608690506060869050606081518351855187518951010101016040519080825280601f01601f1916602001820160405280156122a6576020820181803883390190505b509050806000805b88518110156122ff578881815181106122c357fe5b602001015160f81c60f81b8383806001019450815181106122e057fe5b60200101906001600160f81b031916908160001a9053506001016122ae565b5060005b87518110156123545787818151811061231857fe5b602001015160f81c60f81b83838060010194508151811061233557fe5b60200101906001600160f81b031916908160001a905350600101612303565b5060005b86518110156123a95786818151811061236d57fe5b602001015160f81c60f81b83838060010194508151811061238a57fe5b60200101906001600160f81b031916908160001a905350600101612358565b5060005b85518110156123fe578581815181106123c257fe5b602001015160f81c60f81b8383806001019450815181106123df57fe5b60200101906001600160f81b031916908160001a9053506001016123ad565b5060005b84518110156124535784818151811061241757fe5b602001015160f81c60f81b83838060010194508151811061243457fe5b60200101906001600160f81b031916908160001a905350600101612402565b50909d9c50505050505050505050505050565b6000818152600260205260409020546001600160a01b031615610f3157600090815260026020526040902080546001600160a01b0319169055565b80546124b490600163ffffffff6124c116565b9055565b80546001019055565b600082821115612518576040805162461bcd60e51b815260206004820152601d60248201527f726573756c742063616e6e6f74206265206c6f776572207468616e2030000000604482015290519081900360640190fd5b50900390565b816001600160a01b03166125318261106a565b6001600160a01b03161461258c576040805162461bcd60e51b815260206004820152601f60248201527f61646472657373206973206e6f74206f776e6572206f6620746f6b656e494400604482015290519081900360640190fd5b61259581612466565b6001600160a01b03821660009081526003602052604090206125b6906124a1565b60008181526001602052604080822080546001600160a01b0319169055518291906001600160a01b038516907fddf252ad1be2c89b69c2b068fc378daa952ba7f163c4a11628f55a4df523b3ef908390a45050565b600a5460009061262290600163ffffffff6124c116565b6000838152600b6020526040812054600a805493945090928490811061264457fe5b9060005260206000200154905080600a838154811061265f57fe5b6000918252602080832090910192909255828152600b90915260409020829055600a80548061268a57fe5b600190038181906000526020600020016000905590556000600b60008681526020019081526020016000208190555050505050565b828054600181600116156101000203166002900490600052602060002090601f016020900481019282601f1061270057805160ff191683800117855561272d565b8280016001018555821561272d579182015b8281111561272d578251825591602001919060010190612712565b5061273992915061273d565b5090565b610af991905b80821115612739576000815560010161274356fe64656e696564203a206e6f2061646d696e206d696e74696e672d6275726e696e6720726967687473a26469706673582212202969079f767923f6c5cec0d1b3c3937c564c393631778dfbaeca91f3312509d864736f6c63430006020033",
  "source": "// SPDX-License-Identifier: UNLICENSED\n/**\n * @dev Credits to\n * Mathieu Lecoq\n * september 3rd 2020 \n *\n * @dev Property\n * all rights are reserved to EtherLand ltd\n *\n * @dev deployed with compiler version 0.6.2\n */\npragma solidity 0.6.2;\n\nimport \"./TradeableERC721Token.sol\";\nimport \"./TokensMetadatas.sol\";\n\n/**\n* @title Etherland NFT Assets\n*/\ncontract Etherland is TradeableERC721Token, TokensMetadatas {\n    string private _baseTokenURI;\n\n    constructor(\n        string memory _name,\n        string memory _symbol,\n        address _proxyRegistryAddress,\n        string memory baseURI\n    ) public TradeableERC721Token(_name, _symbol, _proxyRegistryAddress) {\n        _baseTokenURI = baseURI;\n    }\n\n    function baseTokenURI() public view returns (string memory) {\n        return _baseTokenURI;\n    }\n\n    function setBaseTokenURI(string memory uri) public onlyOwner {\n        _baseTokenURI = uri;\n    }\n\n    function tokenURI(uint256 _tokenId) external view returns (string memory) {\n        return Strings.strConcat(\n            baseTokenURI(),\n            Strings.uint2str(_tokenId)\n        );\n    }\n\n}\n",
  "sourcePath": "/Users/macos/Desktop/Mat/Apps/ETHERLAND/Etherland_ERC721/ERC721/contracts/Etherland.sol",
  "compiler": {
    "name": "solc",
    "version": "0.6.2+commit.bacdbe57.Emscripten.clang"
  },
  "schemaVersion": "3.3.0",
  "updatedAt": "2020-10-14T22:13:44.095Z",
  "devdoc": {
    "methods": {
      "adminRightsOf(address)": {
        "details": "know if an address has admin rights and what type of right it has",
        "params": {
          "_admin": "the address to find admin rights of"
        },
        "returns": {
          "_0": "int16 the admin right for _admin :      1 : address can only mint tokens       2 : address can mint AND burn tokens "
        }
      },
      "approve(address,uint256)": {
        "details": "Approves another address to transfer the given token ID The zero address indicates there is no approved address. There can only be one approved address per token at a given time. Can only be called by the token owner or an approved operator.",
        "params": {
          "to": "address to be approved for the given token ID",
          "tokenId": "uint256 ID of the token to be approved"
        }
      },
      "balanceOf(address)": {
        "details": "Gets the balance of the specified address",
        "params": {
          "owner": "address to query the balance of"
        },
        "returns": {
          "_0": "uint256 representing the amount owned by the passed address"
        }
      },
      "batchMintTo(uint256,address)": {
        "details": "Mint several tokens to an address.",
        "params": {
          "_to": "default owner of the new created NFT (reverts if a zero address)",
          "_total": "total number of NFT to mint (reverts if <= 0)"
        }
      },
      "burn(uint256)": {
        "details": "External Burn NFT method"
      },
      "canMint()": {
        "details": "canMint external ",
        "returns": {
          "_0": "bool : truthy if msg.sender has admin rights to mint new tokens"
        }
      },
      "canMintBurn()": {
        "details": "canBurn external",
        "returns": {
          "_0": "bool : truthy if msg.sender has admin rights to mint new tokens and burn existing tokens"
        }
      },
      "getApproved(uint256)": {
        "details": "Gets the approved address for a token ID, or zero if no address set Reverts if the token ID does not exist.",
        "params": {
          "tokenId": "uint256 ID of the token to query the approval of"
        },
        "returns": {
          "_0": "address currently approved for the given token ID"
        }
      },
      "grantMinterBurnerRights(address)": {
        "details": "owner can grant admin access to allow any address to mint new tokens and to burn existing tokensRestricted to CONTRACT OWNER ONLY",
        "params": {
          "_admin": ": address to grant admin minter and burner rights to"
        }
      },
      "grantMinterRights(address)": {
        "details": "owner can grant admin access to allow any address to mint new tokensRestricted to CONTRACT OWNER ONLY",
        "params": {
          "_admin": ": address to grant admin minter rights to"
        }
      },
      "isMinter(address)": {
        "details": "verifiy if an address can mint new tokens",
        "params": {
          "_admin": ": the address to verify minting rights of"
        },
        "returns": {
          "_0": "a boolean, truthy when _admin has rights to mint new tokens"
        }
      },
      "isMinterBurner(address)": {
        "details": "verifiy if an address has rights to mint and burn new tokens",
        "params": {
          "_admin": ": the address to verify minter-burner rights of"
        },
        "returns": {
          "_0": "a boolean, truthy when _admin has rights to mint and burn new tokens"
        }
      },
      "mintTo(address)": {
        "details": "Mints a token to an address.",
        "params": {
          "_to": "address of the future owner of the token"
        }
      },
      "name()": {
        "details": "Gets the token name",
        "returns": {
          "_0": "string representing the token name"
        }
      },
      "ownerOf(uint256)": {
        "details": "Gets the owner of the specified token ID",
        "params": {
          "tokenId": "uint256 ID of the token to query the owner of"
        },
        "returns": {
          "_0": "address currently marked as the owner of the given token ID"
        }
      },
      "renounceOwnership()": {
        "details": "Allows the current owner to relinquish control of the contract. It will not be possible to call the functions with the `onlyOwner` modifier anymore."
      },
      "revokeAdminRights(address)": {
        "details": "owner can revoke admin right of any admin addressRestricted to CONTRACT OWNER ONLY",
        "params": {
          "_admin": ": address to revoke admin access to"
        }
      },
      "safeTransferFrom(address,address,uint256)": {
        "details": "Safely transfers the ownership of a given token ID to another address If the target address is a contract, it must implement `onERC721Received`, which is called upon a safe transfer, and return the magic value `bytes4(keccak256(\"onERC721Received(address,address,uint256,bytes)\"))`; otherwise, the transfer is reverted. Requires the msg.sender to be the owner, approved, or operator",
        "params": {
          "from": "current owner of the token",
          "to": "address to receive the ownership of the given token ID",
          "tokenId": "uint256 ID of the token to be transferred"
        }
      },
      "safeTransferFromWithData(address,address,uint256,bytes)": {
        "details": "Safely transfers the ownership of a given token ID to another address If the target address is a contract, it must implement `onERC721Received`, which is called upon a safe transfer, and return the magic value `bytes4(keccak256(\"onERC721Received(address,address,uint256,bytes)\"))`; otherwise, the transfer is reverted. Requires the msg.sender to be the owner, approved, or operator",
        "params": {
          "_data": "bytes data to send along with a safe transfer check",
          "from": "current owner of the token",
          "to": "address to receive the ownership of the given token ID",
          "tokenId": "uint256 ID of the token to be transferred"
        }
      },
      "setApprovalForAll(address,bool)": {
        "details": "Sets or unsets the approval of a given operator An operator is allowed to transfer all tokens of the sender on their behalf",
        "params": {
          "approved": "representing the status of the approval to be set",
          "to": "operator address to set the approval"
        }
      },
      "supportsInterface(bytes4)": {
        "details": "implement supportsInterface(bytes4) using a lookup table"
      },
      "symbol()": {
        "details": "Gets the token symbol",
        "returns": {
          "_0": "string representing the token symbol"
        }
      },
      "tokenByIndex(uint256)": {
        "details": "Gets the token ID at a given index of all the tokens in this contract Reverts if the index is greater or equal to the total number of tokens",
        "params": {
          "index": "uint256 representing the index to be accessed of the tokens list"
        },
        "returns": {
          "_0": "uint256 token ID at the given index of the tokens list"
        }
      },
      "tokenOfOwnerByIndex(address,uint256)": {
        "details": "Gets the token ID at a given index of the tokens list of the requested owner",
        "params": {
          "index": "uint256 representing the index to be accessed of the requested tokens list",
          "owner": "address owning the tokens list to be accessed"
        },
        "returns": {
          "_0": "uint256 token ID at the given index of the tokens list owned by the requested address"
        }
      },
      "tokensOf(address)": {
        "details": "@notice Non-Standard method to retrieve all NFTs that specific owner owns",
        "returns": {
          "_0": "uint[] containing all NFTs that owner owns"
        }
      },
      "totalSupply()": {
        "details": "Gets the total amount of tokens stored by the contract",
        "returns": {
          "_0": "uint256 representing the total amount of tokens"
        }
      },
      "transferFrom(address,address,uint256)": {
        "details": "Transfers the ownership of a given token ID to another address Usage of this method is discouraged, use `safeTransferFrom` whenever possible Requires the msg.sender to be the owner, approved, or operator",
        "params": {
          "from": "current owner of the token",
          "to": "address to receive the ownership of the given token ID",
          "tokenId": "uint256 ID of the token to be transferred"
        }
      },
      "transferOwnership(address)": {
        "details": "Allows the current owner to transfer control of the contract to a newOwner.",
        "params": {
          "newOwner": "The address to transfer ownership to."
        }
      }
    },
    "title": "Etherland NFT Assets"
  },
  "userdoc": {
    "methods": {
      "isApprovedForAll(address,address)": {
        "notice": "Override isApprovedForAll to whitelist user's OpenSea proxy accounts to enable gas-less listings."
      },
      "renounceOwnership()": {
        "notice": "Renouncing ownership will leave the contract without an owner, thereby removing any functionality that is only available to the owner."
      }
    }
  }
}