{
  "contractName": "Etherland",
  "abi": [
    {
      "anonymous": false,
      "inputs": [
        {
          "indexed": true,
          "internalType": "address",
          "name": "newAdmin",
          "type": "address"
        },
        {
          "indexed": false,
          "internalType": "int16",
          "name": "adminRights",
          "type": "int16"
        }
      ],
      "name": "AdminRightsGranted",
      "type": "event"
    },
    {
      "anonymous": false,
      "inputs": [
        {
          "indexed": true,
          "internalType": "address",
          "name": "noAdmin",
          "type": "address"
        }
      ],
      "name": "AdminRightsRevoked",
      "type": "event"
    },
    {
      "anonymous": false,
      "inputs": [
        {
          "indexed": true,
          "internalType": "address",
          "name": "owner",
          "type": "address"
        },
        {
          "indexed": true,
          "internalType": "address",
          "name": "approved",
          "type": "address"
        },
        {
          "indexed": false,
          "internalType": "uint256",
          "name": "tokenId",
          "type": "uint256"
        }
      ],
      "name": "Approval",
      "type": "event"
    },
    {
      "anonymous": false,
      "inputs": [
        {
          "indexed": true,
          "internalType": "address",
          "name": "owner",
          "type": "address"
        },
        {
          "indexed": true,
          "internalType": "address",
          "name": "operator",
          "type": "address"
        },
        {
          "indexed": false,
          "internalType": "bool",
          "name": "approved",
          "type": "bool"
        }
      ],
      "name": "ApprovalForAll",
      "type": "event"
    },
    {
      "anonymous": false,
      "inputs": [
        {
          "indexed": false,
          "internalType": "string",
          "name": "newUri",
          "type": "string"
        }
      ],
      "name": "BaseTokenUriUpdated",
      "type": "event"
    },
    {
      "anonymous": false,
      "inputs": [
        {
          "indexed": true,
          "internalType": "address",
          "name": "previousOwner",
          "type": "address"
        },
        {
          "indexed": true,
          "internalType": "address",
          "name": "newOwner",
          "type": "address"
        }
      ],
      "name": "OwnershipTransferred",
      "type": "event"
    },
    {
      "anonymous": false,
      "inputs": [
        {
          "indexed": true,
          "internalType": "address",
          "name": "from",
          "type": "address"
        },
        {
          "indexed": true,
          "internalType": "address",
          "name": "to",
          "type": "address"
        },
        {
          "indexed": false,
          "internalType": "uint256",
          "name": "tokenId",
          "type": "uint256"
        }
      ],
      "name": "Transfer",
      "type": "event"
    },
    {
      "inputs": [
        {
          "internalType": "address",
          "name": "_admin",
          "type": "address"
        }
      ],
      "name": "adminRightsOf",
      "outputs": [
        {
          "internalType": "int16",
          "name": "",
          "type": "int16"
        }
      ],
      "stateMutability": "view",
      "type": "function",
      "constant": true
    },
    {
      "inputs": [
        {
          "internalType": "address",
          "name": "to",
          "type": "address"
        },
        {
          "internalType": "uint256",
          "name": "tokenId",
          "type": "uint256"
        }
      ],
      "name": "approve",
      "outputs": [],
      "stateMutability": "nonpayable",
      "type": "function"
    },
    {
      "inputs": [
        {
          "internalType": "address",
          "name": "owner",
          "type": "address"
        }
      ],
      "name": "balanceOf",
      "outputs": [
        {
          "internalType": "uint256",
          "name": "",
          "type": "uint256"
        }
      ],
      "stateMutability": "view",
      "type": "function",
      "constant": true
    },
    {
      "inputs": [
        {
          "internalType": "uint256",
          "name": "_total",
          "type": "uint256"
        },
        {
          "internalType": "address",
          "name": "_to",
          "type": "address"
        }
      ],
      "name": "batchMintTo",
      "outputs": [],
      "stateMutability": "nonpayable",
      "type": "function"
    },
    {
      "inputs": [
        {
          "internalType": "uint256",
          "name": "_tokenId",
          "type": "uint256"
        }
      ],
      "name": "burn",
      "outputs": [],
      "stateMutability": "nonpayable",
      "type": "function"
    },
    {
      "inputs": [],
      "name": "canMint",
      "outputs": [
        {
          "internalType": "bool",
          "name": "",
          "type": "bool"
        }
      ],
      "stateMutability": "view",
      "type": "function",
      "constant": true
    },
    {
      "inputs": [],
      "name": "canMintBurn",
      "outputs": [
        {
          "internalType": "bool",
          "name": "",
          "type": "bool"
        }
      ],
      "stateMutability": "view",
      "type": "function",
      "constant": true
    },
    {
      "inputs": [
        {
          "internalType": "uint256",
          "name": "tokenId",
          "type": "uint256"
        }
      ],
      "name": "getApproved",
      "outputs": [
        {
          "internalType": "address",
          "name": "",
          "type": "address"
        }
      ],
      "stateMutability": "view",
      "type": "function",
      "constant": true
    },
    {
      "inputs": [
        {
          "internalType": "uint256",
          "name": "tokenId",
          "type": "uint256"
        },
        {
          "internalType": "string",
          "name": "docType",
          "type": "string"
        }
      ],
      "name": "getIpfsHash",
      "outputs": [
        {
          "internalType": "string",
          "name": "",
          "type": "string"
        }
      ],
      "stateMutability": "view",
      "type": "function",
      "constant": true
    },
    {
      "inputs": [
        {
          "internalType": "address",
          "name": "_admin",
          "type": "address"
        }
      ],
      "name": "grantMinterBurnerRights",
      "outputs": [],
      "stateMutability": "nonpayable",
      "type": "function"
    },
    {
      "inputs": [
        {
          "internalType": "address",
          "name": "_admin",
          "type": "address"
        }
      ],
      "name": "grantMinterRights",
      "outputs": [],
      "stateMutability": "nonpayable",
      "type": "function"
    },
    {
      "inputs": [],
      "name": "initialized",
      "outputs": [
        {
          "internalType": "bool",
          "name": "",
          "type": "bool"
        }
      ],
      "stateMutability": "view",
      "type": "function",
      "constant": true
    },
    {
      "inputs": [
        {
          "internalType": "address",
          "name": "owner",
          "type": "address"
        },
        {
          "internalType": "address",
          "name": "operator",
          "type": "address"
        }
      ],
      "name": "isApprovedForAll",
      "outputs": [
        {
          "internalType": "bool",
          "name": "",
          "type": "bool"
        }
      ],
      "stateMutability": "view",
      "type": "function",
      "constant": true
    },
    {
      "inputs": [
        {
          "internalType": "address",
          "name": "_admin",
          "type": "address"
        }
      ],
      "name": "isMinter",
      "outputs": [
        {
          "internalType": "bool",
          "name": "",
          "type": "bool"
        }
      ],
      "stateMutability": "view",
      "type": "function",
      "constant": true
    },
    {
      "inputs": [
        {
          "internalType": "address",
          "name": "_admin",
          "type": "address"
        }
      ],
      "name": "isMinterBurner",
      "outputs": [
        {
          "internalType": "bool",
          "name": "",
          "type": "bool"
        }
      ],
      "stateMutability": "view",
      "type": "function",
      "constant": true
    },
    {
      "inputs": [],
      "name": "isOwner",
      "outputs": [
        {
          "internalType": "bool",
          "name": "",
          "type": "bool"
        }
      ],
      "stateMutability": "view",
      "type": "function",
      "constant": true
    },
    {
      "inputs": [
        {
          "internalType": "address",
          "name": "_to",
          "type": "address"
        }
      ],
      "name": "mintTo",
      "outputs": [],
      "stateMutability": "nonpayable",
      "type": "function"
    },
    {
      "inputs": [],
      "name": "name",
      "outputs": [
        {
          "internalType": "string",
          "name": "",
          "type": "string"
        }
      ],
      "stateMutability": "view",
      "type": "function",
      "constant": true
    },
    {
      "inputs": [],
      "name": "owner",
      "outputs": [
        {
          "internalType": "address",
          "name": "",
          "type": "address"
        }
      ],
      "stateMutability": "view",
      "type": "function",
      "constant": true
    },
    {
      "inputs": [
        {
          "internalType": "uint256",
          "name": "tokenId",
          "type": "uint256"
        }
      ],
      "name": "ownerOf",
      "outputs": [
        {
          "internalType": "address",
          "name": "",
          "type": "address"
        }
      ],
      "stateMutability": "view",
      "type": "function",
      "constant": true
    },
    {
      "inputs": [],
      "name": "proxiableUUID",
      "outputs": [
        {
          "internalType": "bytes32",
          "name": "",
          "type": "bytes32"
        }
      ],
      "stateMutability": "pure",
      "type": "function",
      "constant": true
    },
    {
      "inputs": [],
      "name": "proxyRegistryAddress",
      "outputs": [
        {
          "internalType": "address",
          "name": "",
          "type": "address"
        }
      ],
      "stateMutability": "view",
      "type": "function",
      "constant": true
    },
    {
      "inputs": [
        {
          "internalType": "uint256",
          "name": "tokenId",
          "type": "uint256"
        },
        {
          "internalType": "string",
          "name": "docType",
          "type": "string"
        }
      ],
      "name": "removeIpfsHash",
      "outputs": [],
      "stateMutability": "nonpayable",
      "type": "function"
    },
    {
      "inputs": [],
      "name": "renounceOwnership",
      "outputs": [],
      "stateMutability": "nonpayable",
      "type": "function"
    },
    {
      "inputs": [
        {
          "internalType": "address",
          "name": "_admin",
          "type": "address"
        }
      ],
      "name": "revokeAdminRights",
      "outputs": [],
      "stateMutability": "nonpayable",
      "type": "function"
    },
    {
      "inputs": [
        {
          "internalType": "address",
          "name": "from",
          "type": "address"
        },
        {
          "internalType": "address",
          "name": "to",
          "type": "address"
        },
        {
          "internalType": "uint256",
          "name": "tokenId",
          "type": "uint256"
        }
      ],
      "name": "safeTransferFrom",
      "outputs": [],
      "stateMutability": "nonpayable",
      "type": "function"
    },
    {
      "inputs": [
        {
          "internalType": "address",
          "name": "from",
          "type": "address"
        },
        {
          "internalType": "address",
          "name": "to",
          "type": "address"
        },
        {
          "internalType": "uint256",
          "name": "tokenId",
          "type": "uint256"
        },
        {
          "internalType": "bytes",
          "name": "_data",
          "type": "bytes"
        }
      ],
      "name": "safeTransferFromWithData",
      "outputs": [],
      "stateMutability": "nonpayable",
      "type": "function"
    },
    {
      "inputs": [
        {
          "internalType": "address",
          "name": "to",
          "type": "address"
        },
        {
          "internalType": "bool",
          "name": "approved",
          "type": "bool"
        }
      ],
      "name": "setApprovalForAll",
      "outputs": [],
      "stateMutability": "nonpayable",
      "type": "function"
    },
    {
      "inputs": [
        {
          "internalType": "uint256",
          "name": "tokenId",
          "type": "uint256"
        },
        {
          "internalType": "string",
          "name": "docType",
          "type": "string"
        },
        {
          "internalType": "string",
          "name": "_hash",
          "type": "string"
        }
      ],
      "name": "setIpfsHash",
      "outputs": [],
      "stateMutability": "nonpayable",
      "type": "function"
    },
    {
      "inputs": [
        {
          "internalType": "bytes4",
          "name": "interfaceId",
          "type": "bytes4"
        }
      ],
      "name": "supportsInterface",
      "outputs": [
        {
          "internalType": "bool",
          "name": "",
          "type": "bool"
        }
      ],
      "stateMutability": "view",
      "type": "function",
      "constant": true
    },
    {
      "inputs": [],
      "name": "symbol",
      "outputs": [
        {
          "internalType": "string",
          "name": "",
          "type": "string"
        }
      ],
      "stateMutability": "view",
      "type": "function",
      "constant": true
    },
    {
      "inputs": [
        {
          "internalType": "uint256",
          "name": "index",
          "type": "uint256"
        }
      ],
      "name": "tokenByIndex",
      "outputs": [
        {
          "internalType": "uint256",
          "name": "",
          "type": "uint256"
        }
      ],
      "stateMutability": "view",
      "type": "function",
      "constant": true
    },
    {
      "inputs": [
        {
          "internalType": "address",
          "name": "owner",
          "type": "address"
        },
        {
          "internalType": "uint256",
          "name": "index",
          "type": "uint256"
        }
      ],
      "name": "tokenOfOwnerByIndex",
      "outputs": [
        {
          "internalType": "uint256",
          "name": "",
          "type": "uint256"
        }
      ],
      "stateMutability": "view",
      "type": "function",
      "constant": true
    },
    {
      "inputs": [
        {
          "internalType": "address",
          "name": "owner",
          "type": "address"
        }
      ],
      "name": "tokensOf",
      "outputs": [
        {
          "internalType": "uint256[]",
          "name": "",
          "type": "uint256[]"
        }
      ],
      "stateMutability": "view",
      "type": "function",
      "constant": true
    },
    {
      "inputs": [],
      "name": "totalSupply",
      "outputs": [
        {
          "internalType": "uint256",
          "name": "",
          "type": "uint256"
        }
      ],
      "stateMutability": "view",
      "type": "function",
      "constant": true
    },
    {
      "inputs": [
        {
          "internalType": "address",
          "name": "from",
          "type": "address"
        },
        {
          "internalType": "address",
          "name": "to",
          "type": "address"
        },
        {
          "internalType": "uint256",
          "name": "tokenId",
          "type": "uint256"
        }
      ],
      "name": "transferFrom",
      "outputs": [],
      "stateMutability": "nonpayable",
      "type": "function"
    },
    {
      "inputs": [
        {
          "internalType": "address",
          "name": "newOwner",
          "type": "address"
        }
      ],
      "name": "transferOwnership",
      "outputs": [],
      "stateMutability": "nonpayable",
      "type": "function"
    },
    {
      "inputs": [
        {
          "internalType": "string",
          "name": "_name",
          "type": "string"
        },
        {
          "internalType": "string",
          "name": "_symbol",
          "type": "string"
        },
        {
          "internalType": "address",
          "name": "_proxyRegistryAddress",
          "type": "address"
        },
        {
          "internalType": "string",
          "name": "baseURI",
          "type": "string"
        },
        {
          "internalType": "address",
          "name": "_owner",
          "type": "address"
        }
      ],
      "name": "init",
      "outputs": [],
      "stateMutability": "nonpayable",
      "type": "function"
    },
    {
      "inputs": [],
      "name": "baseTokenURI",
      "outputs": [
        {
          "internalType": "string",
          "name": "",
          "type": "string"
        }
      ],
      "stateMutability": "view",
      "type": "function",
      "constant": true
    },
    {
      "inputs": [
        {
          "internalType": "string",
          "name": "uri",
          "type": "string"
        }
      ],
      "name": "setBaseTokenURI",
      "outputs": [],
      "stateMutability": "nonpayable",
      "type": "function"
    },
    {
      "inputs": [
        {
          "internalType": "uint256",
          "name": "_tokenId",
          "type": "uint256"
        }
      ],
      "name": "tokenURI",
      "outputs": [
        {
          "internalType": "string",
          "name": "",
          "type": "string"
        }
      ],
      "stateMutability": "view",
      "type": "function",
      "constant": true
    },
    {
      "inputs": [
        {
          "internalType": "address",
          "name": "newCode",
          "type": "address"
        }
      ],
      "name": "updateCode",
      "outputs": [],
      "stateMutability": "nonpayable",
      "type": "function"
    }
  ],
  "bytecode": "0x608060405260006004556012805460ff1916905534801561001f57600080fd5b506131398061002f6000396000f3fe608060405234801561001057600080fd5b506004361061025e5760003560e01c806360a11672116101465780639adfecf9116100c3578063c87b56dd11610087578063c87b56dd14610af8578063cd7c032614610b15578063d547cfb714610b1d578063e985e9c514610b25578063f2fde38b14610b53578063faa0650b14610b795761025e565b80639adfecf914610a37578063a22cb46514610a76578063a2e4d23914610aa4578063aa271e1a14610aca578063beb9716d14610af05761025e565b8063755edd171161010a578063755edd17146109cd5780638d0f5b70146109f35780638da5cb5b14610a1f5780638f32d59b14610a2757806395d89b4114610a2f5761025e565b806360a11672146108985780636352211e1461095c5780636a6811901461097957806370a082311461099f578063715018a6146109c55761025e565b80632f745c59116101df57806342966c68116101a357806342966c681461070f578063469519541461072c5780634f6ccce71461075257806352d1902d1461076f578063598b34aa146107775780635a3f2672146108225761025e565b80632f745c591461053857806330176e13146105645780633b25f6a01461060857806342679683146106b357806342842e0e146106d95761025e565b8063158ef93e11610226578063158ef93e146103a857806318160ddd146103b05780631f6eeb68146103ca57806323b872dd146103d25780632a4b48ed146104085761025e565b806301ffc9a71461026357806305d52d091461029e57806306fdde03146102c6578063081812fc14610343578063095ea7b31461037c575b600080fd5b61028a6004803603602081101561027957600080fd5b50356001600160e01b031916610d43565b604080519115158252519081900360200190f35b6102c4600480360360208110156102b457600080fd5b50356001600160a01b0316610d66565b005b6102ce610e54565b6040805160208082528351818301528351919283929083019185019080838360005b838110156103085781810151838201526020016102f0565b50505050905090810190601f1680156103355780820380516001836020036101000a031916815260200191505b509250505060405180910390f35b6103606004803603602081101561035957600080fd5b5035610eeb565b604080516001600160a01b039092168252519081900360200190f35b6102c46004803603604081101561039257600080fd5b506001600160a01b038135169060200135610f5b565b61028a611093565b6103b861109c565b60408051918252519081900360200190f35b61028a6110a2565b6102c4600480360360608110156103e857600080fd5b506001600160a01b038135811691602081013590911690604001356110b2565b6102c46004803603606081101561041e57600080fd5b81359190810190604081016020820135600160201b81111561043f57600080fd5b82018360208201111561045157600080fd5b803590602001918460018302840111600160201b8311171561047257600080fd5b91908080601f0160208091040260200160405190810160405280939291908181526020018383808284376000920191909152509295949360208101935035915050600160201b8111156104c457600080fd5b8201836020820111156104d657600080fd5b803590602001918460018302840111600160201b831117156104f757600080fd5b91908080601f01602080910402602001604051908101604052809392919081815260200183838082843760009201919091525092955061111d945050505050565b6103b86004803603604081101561054e57600080fd5b506001600160a01b038135169060200135611256565b6102c46004803603602081101561057a57600080fd5b810190602081018135600160201b81111561059457600080fd5b8201836020820111156105a657600080fd5b803590602001918460018302840111600160201b831117156105c757600080fd5b91908080601f0160208091040260200160405190810160405280939291908181526020018383808284376000920191909152509295506112e0945050505050565b6102ce6004803603604081101561061e57600080fd5b81359190810190604081016020820135600160201b81111561063f57600080fd5b82018360208201111561065157600080fd5b803590602001918460018302840111600160201b8311171561067257600080fd5b91908080601f0160208091040260200160405190810160405280939291908181526020018383808284376000920191909152509295506113df945050505050565b61028a600480360360208110156106c957600080fd5b50356001600160a01b03166114e5565b6102c4600480360360608110156106ef57600080fd5b506001600160a01b03813581169160208101359091169060400135611539565b6102c46004803603602081101561072557600080fd5b5035611554565b6102c46004803603602081101561074257600080fd5b50356001600160a01b03166115b9565b6103b86004803603602081101561076857600080fd5b5035611611565b6103b8611681565b6102c46004803603604081101561078d57600080fd5b81359190810190604081016020820135600160201b8111156107ae57600080fd5b8201836020820111156107c057600080fd5b803590602001918460018302840111600160201b831117156107e157600080fd5b91908080601f0160208091040260200160405190810160405280939291908181526020018383808284376000920191909152509295506116a5945050505050565b6108486004803603602081101561083857600080fd5b50356001600160a01b0316611792565b60408051602080825283518183015283519192839290830191858101910280838360005b8381101561088457818101518382015260200161086c565b505050509050019250505060405180910390f35b6102c4600480360360808110156108ae57600080fd5b6001600160a01b03823581169260208101359091169160408201359190810190608081016060820135600160201b8111156108e857600080fd5b8201836020820111156108fa57600080fd5b803590602001918460018302840111600160201b8311171561091b57600080fd5b91908080601f0160208091040260200160405190810160405280939291908181526020018383808284376000920191909152509295506117f3945050505050565b6103606004803603602081101561097257600080fd5b5035611852565b6102c46004803603602081101561098f57600080fd5b50356001600160a01b03166118b8565b6103b8600480360360208110156109b557600080fd5b50356001600160a01b03166119bb565b6102c4611a35565b6102c4600480360360208110156109e357600080fd5b50356001600160a01b0316611ace565b6102c460048036036040811015610a0957600080fd5b50803590602001356001600160a01b0316611b49565b610360611c60565b61028a611c6f565b6102ce611c80565b610a5d60048036036020811015610a4d57600080fd5b50356001600160a01b0316611ce0565b60408051600192830b90920b8252519081900360200190f35b6102c460048036036040811015610a8c57600080fd5b506001600160a01b0381351690602001351515611d2d565b6102c460048036036020811015610aba57600080fd5b50356001600160a01b0316611df3565b61028a60048036036020811015610ae057600080fd5b50356001600160a01b0316611ef6565b61028a611f48565b6102ce60048036036020811015610b0e57600080fd5b5035611f53565b610360611f6e565b6102ce611f7d565b61028a60048036036040811015610b3b57600080fd5b506001600160a01b0381358116916020013516611fdb565b6102c460048036036020811015610b6957600080fd5b50356001600160a01b0316612086565b6102c4600480360360a0811015610b8f57600080fd5b810190602081018135600160201b811115610ba957600080fd5b820183602082011115610bbb57600080fd5b803590602001918460018302840111600160201b83111715610bdc57600080fd5b91908080601f0160208091040260200160405190810160405280939291908181526020018383808284376000920191909152509295949360208101935035915050600160201b811115610c2e57600080fd5b820183602082011115610c4057600080fd5b803590602001918460018302840111600160201b83111715610c6157600080fd5b91908080601f01602080910402602001604051908101604052809392919081815260200183838082843760009201919091525092956001600160a01b03853516959094909350604081019250602001359050600160201b811115610cc457600080fd5b820183602082011115610cd657600080fd5b803590602001918460018302840111600160201b83111715610cf757600080fd5b91908080601f016020809104026020016040519081016040528093929190818152602001838380828437600092019190915250929550505090356001600160a01b031691506120de9050565b6001600160e01b0319811660009081526006602052604090205460ff165b919050565b610d6e611c6f565b610db5576040805162461bcd60e51b815260206004820152601360248201527239b2b73232b91034b9903737ba1037bbb732b960691b604482015290519081900360640190fd5b806001600160a01b038116610e09576040805162461bcd60e51b8152602060048201526015602482015274696e76616c69642061646d696e206164647265737360581b604482015290519081900360640190fd5b6001600160a01b038216600081815260106020526040808220805461ffff19169055517f75063598bb424244ef6461ff8e1e0a1836998c3c84ef9e591015fbe8d94fa71f9190a25050565b60008054604080516020601f6002600019610100600188161502019095169490940493840181900481028201810190925282815260609390929091830182828015610ee05780601f10610eb557610100808354040283529160200191610ee0565b820191906000526020600020905b815481529060010190602001808311610ec357829003601f168201915b505050505090505b90565b6000610ef682612169565b610f3f576040805162461bcd60e51b81526020600482015260156024820152741d1bdad95b925108191bd95cdb89dd08195e1a5cdd605a1b604482015290519081900360640190fd5b506000908152600860205260409020546001600160a01b031690565b6000610f6682611852565b9050806001600160a01b0316836001600160a01b03161415610fc9576040805162461bcd60e51b815260206004820152601760248201527631b0b73737ba1030b8383937bb32903cb7bab939b2b63360491b604482015290519081900360640190fd5b336001600160a01b0382161480610fe55750610fe58133611fdb565b61102a576040805162461bcd60e51b81526020600482015260116024820152701c195c9b5a5cdcda5bdb8819195b9a5959607a1b604482015290519081900360640190fd5b60008281526008602090815260409182902080546001600160a01b0319166001600160a01b03878116918217909255835186815293519093918516927f8c5be1e5ebec7d5bd14f71427d1e84f3dd0314c0f7b2291e5b200ac8c7c3b925928290030190a3505050565b60125460ff1681565b60055490565b60006110ad336114e5565b905090565b6110bc3382612186565b61110d576040805162461bcd60e51b815260206004820152601760248201527f7370656e646572206973206e6f7420617070726f766564000000000000000000604482015290519081900360640190fd5b6111188383836121dd565b505050565b611125611f48565b611176576040805162461bcd60e51b815260206004820181905260248201527f64656e696564203a206e6f2061646d696e206d696e74696e6720726967687473604482015290519081900360640190fd5b600083116111cb576040805162461bcd60e51b815260206004820181905260248201527f64656e696564203a20746f6b656e207a65726f2063616e742062652075736564604482015290519081900360640190fd5b8060116000858152602001908152602001600020836040518082805190602001908083835b6020831061120f5780518252601f1990920191602091820191016111f0565b51815160209384036101000a60001901801990921691161790529201948552506040519384900381019093208451611250959194919091019250905061306b565b50505050565b6000611261836119bb565b82106112a8576040805162461bcd60e51b81526020600482015260116024820152700d2dcc8caf040d2e640e8dede40d0d2ced607b1b604482015290519081900360640190fd5b6001600160a01b0383166000908152600c602052604090208054839081106112cc57fe5b906000526020600020015490505b92915050565b6112e8611c6f565b61132f576040805162461bcd60e51b815260206004820152601360248201527239b2b73232b91034b9903737ba1037bbb732b960691b604482015290519081900360640190fd5b805161134290600290602084019061306b565b507fe0b4aa3a614e11365fec002edc82449b5849402d025b31c4770f0e270286e690816040518080602001828103825283818151815260200191508051906020019080838360005b838110156113a257818101518382015260200161138a565b50505050905090810190601f1680156113cf5780820380516001836020036101000a031916815260200191505b509250505060405180910390a150565b606060116000848152602001908152602001600020826040518082805190602001908083835b602083106114245780518252601f199092019160209182019101611405565b518151600019602094850361010090810a820192831692199390931691909117909252949092019687526040805197889003820188208054601f60026001831615909802909501169590950492830182900482028801820190528187529294509250508301828280156114d85780601f106114ad576101008083540402835291602001916114d8565b820191906000526020600020905b8154815290600101906020018083116114bb57829003601f168201915b5050505050905092915050565b60006114ef611c60565b6001600160a01b0316826001600160a01b0316141561151057506001610d61565b506001600160a01b038116600090815260106020526040902054600190810b900b600214610d61565b611118838383604051806020016040528060008152506117f3565b61155c6110a2565b6115ad576040805162461bcd60e51b815260206004820181905260248201527f64656e696564203a206e6f2061646d696e206275726e696e6720726967687473604482015290519081900360640190fd5b6115b6816121fc565b50565b6115c1611c6f565b611608576040805162461bcd60e51b815260206004820152601360248201527239b2b73232b91034b9903737ba1037bbb732b960691b604482015290519081900360640190fd5b6115b68161220e565b600061161b61109c565b8210611662576040805162461bcd60e51b81526020600482015260116024820152700d2dcc8caf040d2e640e8dede40d0d2ced607b1b604482015290519081900360640190fd5b6005828154811061166f57fe5b90600052602060002001549050919050565b7fc5f16f0fcc639fa48a6947836d9850f504798523bf8c9a3a87d5876cf622bcf790565b6116ad6110a2565b6116fe576040805162461bcd60e51b815260206004820181905260248201527f64656e696564203a206e6f2061646d696e206275726e696e6720726967687473604482015290519081900360640190fd5b6040518060200160405280600081525060116000848152602001908152602001600020826040518082805190602001908083835b602083106117515780518252601f199092019160209182019101611732565b51815160209384036101000a60001901801990921691161790529201948552506040519384900381019093208451611118959194919091019250905061306b565b606061179d826122fb565b8054806020026020016040519081016040528092919081815260200182805480156117e757602002820191906000526020600020905b8154815260200190600101908083116117d3575b50505050509050919050565b6117fe8484846110b2565b61180a84848484612315565b611250576040805162461bcd60e51b81526020600482015260146024820152736461746120636865636b206973206e6f74206f6b60601b604482015290519081900360640190fd5b6000818152600760205260408120546001600160a01b0316806112da576040805162461bcd60e51b815260206004820152601960248201527806f776e65722063616e6e6f742062652061646472657373203603c1b604482015290519081900360640190fd5b6118c0611c6f565b611907576040805162461bcd60e51b815260206004820152601360248201527239b2b73232b91034b9903737ba1037bbb732b960691b604482015290519081900360640190fd5b806001600160a01b03811661195b576040805162461bcd60e51b8152602060048201526015602482015274696e76616c69642061646d696e206164647265737360581b604482015290519081900360640190fd5b6001600160a01b038216600081815260106020908152604091829020805461ffff19166001908117909155825190815291517fc9650477e67b3b00a3cf84fb7f5e1c3c95d7271a855253a09dde0a403695a3679281900390910190a25050565b60006001600160a01b038216611a14576040805162461bcd60e51b815260206004820152601960248201527806f776e65722063616e6e6f742062652061646472657373203603c1b604482015290519081900360640190fd5b6001600160a01b03821660009081526009602052604090206112da90612448565b611a3d611c6f565b611a84576040805162461bcd60e51b815260206004820152601360248201527239b2b73232b91034b9903737ba1037bbb732b960691b604482015290519081900360640190fd5b600f546040516000916001600160a01b0316907f8be0079c531659141344cd1fd0a4f28419497f9722a3daafe3b4186f6b6457e0908390a3600f80546001600160a01b0319169055565b611ad6611f48565b611b27576040805162461bcd60e51b815260206004820181905260248201527f64656e696564203a206e6f2061646d696e206d696e74696e6720726967687473604482015290519081900360640190fd5b6000611b3161244c565b9050611b3d8282612463565b611b45612480565b5050565b611b51611f48565b611ba2576040805162461bcd60e51b815260206004820181905260248201527f64656e696564203a206e6f2061646d696e206d696e74696e6720726967687473604482015290519081900360640190fd5b60008211611bee576040805162461bcd60e51b815260206004820152601460248201527336b4b73a1036b4b734b6bab69018903a37b5b2b760611b604482015290519081900360640190fd5b6001600160a01b038116611c44576040805162461bcd60e51b8152602060048201526018602482015277063616e6e6f74206d696e7420746f206164647265737320360441b604482015290519081900360640190fd5b60005b8281101561111857611c5882611ace565b600101611c47565b600f546001600160a01b031690565b600f546001600160a01b0316331490565b60018054604080516020601f60026000196101008789161502019095169490940493840181900481028201810190925282815260609390929091830182828015610ee05780601f10610eb557610100808354040283529160200191610ee0565b6000611cea611c60565b6001600160a01b0316826001600160a01b03161415611d0b57506002610d61565b506001600160a01b03811660009081526010602052604090205460010b610d61565b6001600160a01b038216331415611d85576040805162461bcd60e51b815260206004820152601760248201527631b0b73737ba1030b8383937bb32903cb7bab939b2b63360491b604482015290519081900360640190fd5b336000818152600a602090815260408083206001600160a01b03871680855290835292819020805460ff1916861515908117909155815190815290519293927f17307eab39ab6107e8899845ad3d59bd9653f200f220920489ca2b5937696c31929181900390910190a35050565b611dfb611c6f565b611e42576040805162461bcd60e51b815260206004820152601360248201527239b2b73232b91034b9903737ba1037bbb732b960691b604482015290519081900360640190fd5b806001600160a01b038116611e96576040805162461bcd60e51b8152602060048201526015602482015274696e76616c69642061646d696e206164647265737360581b604482015290519081900360640190fd5b6001600160a01b038216600081815260106020908152604091829020805461ffff19166002908117909155825190815291517fc9650477e67b3b00a3cf84fb7f5e1c3c95d7271a855253a09dde0a403695a3679281900390910190a25050565b6000611f00611c60565b6001600160a01b0316826001600160a01b03161415611f2157506001610d61565b506001600160a01b038116600090815260106020526040812054600190810b900b13610d61565b60006110ad33611ef6565b60606112da611f60611f7d565b611f698461248b565b61254c565b6003546001600160a01b031681565b60028054604080516020601f6000196101006001871615020190941685900493840181900481028201810190925282815260609390929091830182828015610ee05780601f10610eb557610100808354040283529160200191610ee0565b6003546040805163c455279160e01b81526001600160a01b0385811660048301529151600093831692851691839163c455279191602480820192602092909190829003018186803b15801561202f57600080fd5b505afa158015612043573d6000803e3d6000fd5b505050506040513d602081101561205957600080fd5b50516001600160a01b031614156120745760019150506112da565b61207e848461258f565b949350505050565b61208e611c6f565b6120d5576040805162461bcd60e51b815260206004820152601360248201527239b2b73232b91034b9903737ba1037bbb732b960691b604482015290519081900360640190fd5b6115b6816125bd565b60125460ff161515600114612162576012805460ff19166001179055612105858585612674565b815161211890600290602085019061306b565b506121296301ffc9a760e01b6126a2565b612139635b5e139f60e01b6126a2565b61214963780e9d6360e01b6126a2565b6121596380ac58cd60e01b6126a2565b612162816125bd565b5050505050565b6000908152600760205260409020546001600160a01b0316151590565b60008061219283611852565b9050806001600160a01b0316846001600160a01b031614806121cd5750836001600160a01b03166121c284610eeb565b6001600160a01b0316145b8061207e575061207e8185611fdb565b6121e8838383612716565b6121f28382612893565b6111188282612995565b6115b661220882611852565b826129d3565b806001600160a01b03166352d1902d6040518163ffffffff1660e01b815260040160206040518083038186803b15801561224757600080fd5b505afa15801561225b573d6000803e3d6000fd5b505050506040513d602081101561227157600080fd5b50517fc5f16f0fcc639fa48a6947836d9850f504798523bf8c9a3a87d5876cf622bcf7146122d7576040805162461bcd60e51b815260206004820152600e60248201526d4e6f7420636f6d70617469626c6560901b604482015290519081900360640190fd5b7fc5f16f0fcc639fa48a6947836d9850f504798523bf8c9a3a87d5876cf622bcf755565b6001600160a01b03166000908152600c6020526040902090565b6000612329846001600160a01b03166129ff565b6123355750600161207e565b604051630a85bd0160e11b815233600482018181526001600160a01b03888116602485015260448401879052608060648501908152865160848601528651600095928a169463150b7a029490938c938b938b939260a4019060208501908083838e5b838110156123af578181015183820152602001612397565b50505050905090810190601f1680156123dc5780820380516001836020036101000a031916815260200191505b5095505050505050602060405180830381600087803b1580156123fe57600080fd5b505af1158015612412573d6000803e3d6000fd5b505050506040513d602081101561242857600080fd5b50516001600160e01b031916630a85bd0160e11b14915050949350505050565b5490565b6004546000906110ad90600163ffffffff612a0516565b61246d8282612a5f565b6124778282612995565b611b4581612b8b565b600480546001019055565b6060816124b057506040805180820190915260018152600360fc1b6020820152610d61565b8160005b81156124c857600101600a820491506124b4565b6060816040519080825280601f01601f1916602001820160405280156124f5576020820181803883390190505b50905060001982015b851561254357600a860660300160f81b8282806001900393508151811061252157fe5b60200101906001600160f81b031916908160001a905350600a860495506124fe565b50949350505050565b60606125888383604051806020016040528060008152506040518060200160405280600081525060405180602001604052806000815250612bcf565b9392505050565b6001600160a01b039182166000908152600a6020908152604080832093909416825291909152205460ff1690565b6001600160a01b038116612618576040805162461bcd60e51b815260206004820152601d60248201527f6e6577206f776e65722063616e6e6f7420626520616464726573732030000000604482015290519081900360640190fd5b600f546040516001600160a01b038084169216907f8be0079c531659141344cd1fd0a4f28419497f9722a3daafe3b4186f6b6457e090600090a3600f80546001600160a01b0319166001600160a01b0392909216919091179055565b61267e8383612de3565b600380546001600160a01b0319166001600160a01b03929092169190911790555050565b6001600160e01b031980821614156126f1576040805162461bcd60e51b815260206004820152600d60248201526c62616420696e7465726661636560981b604482015290519081900360640190fd5b6001600160e01b0319166000908152600660205260409020805460ff19166001179055565b826001600160a01b031661272982611852565b6001600160a01b031614612784576040805162461bcd60e51b815260206004820181905260248201527f73656e646572206973206e6f74206f776e6572206f662074686520746f6b656e604482015290519081900360640190fd5b6001600160a01b0382166127df576040805162461bcd60e51b815260206004820152601860248201527f63616e6e6f742073656e6420746f203020616464726573730000000000000000604482015290519081900360640190fd5b6127e881612e0a565b6001600160a01b038316600090815260096020526040902061280990612e45565b6001600160a01b038216600090815260096020526040902061282a90612e5c565b60008181526007602090815260409182902080546001600160a01b0319166001600160a01b03868116918217909255835185815293519093918716927fddf252ad1be2c89b69c2b068fc378daa952ba7f163c4a11628f55a4df523b3ef928290030190a3505050565b6001600160a01b0382166000908152600c60205260408120546128bd90600163ffffffff612e6516565b6000838152600d6020526040902054909150808214612958576001600160a01b0384166000908152600c602052604081208054849081106128fa57fe5b9060005260206000200154905080600c6000876001600160a01b03166001600160a01b03168152602001908152602001600020838154811061293857fe5b6000918252602080832090910192909255918252600d9052604090208190555b6001600160a01b0384166000908152600c6020526040902080548061297957fe5b6001900381819060005260206000200160009055905550505050565b6001600160a01b039091166000908152600c602081815260408084208054868652600d84529185208290559282526001810183559183529091200155565b6129dd8282612ec2565b6129e78282612893565b6000818152600d6020526040812055611b4581612fb7565b3b151590565b600082820183811015612588576040805162461bcd60e51b815260206004820181905260248201527f626f7468206e756d62657273206861766520746f20626520706f736974697665604482015290519081900360640190fd5b6001600160a01b038216612ab5576040805162461bcd60e51b8152602060048201526018602482015277063616e6e6f74206d696e7420746f206164647265737320360441b604482015290519081900360640190fd5b612abe81612169565b15612b07576040805162461bcd60e51b8152602060048201526014602482015273746f6b656e20616c72656164792065786973747360601b604482015290519081900360640190fd5b600081815260076020908152604080832080546001600160a01b0319166001600160a01b038716908117909155835260099091529020612b4690612e5c565b6040805182815290516001600160a01b038416916000917fddf252ad1be2c89b69c2b068fc378daa952ba7f163c4a11628f55a4df523b3ef9181900360200190a35050565b600580546000838152600e60205260408120829055600182018355919091527f036b6384b5eca791c62761152d0c79bb0604c104a5fb6f4eb0703f3154bb3db00155565b6060808690506060869050606086905060608690506060869050606081518351855187518951010101016040519080825280601f01601f191660200182016040528015612c23576020820181803883390190505b509050806000805b8851811015612c7c57888181518110612c4057fe5b602001015160f81c60f81b838380600101945081518110612c5d57fe5b60200101906001600160f81b031916908160001a905350600101612c2b565b5060005b8751811015612cd157878181518110612c9557fe5b602001015160f81c60f81b838380600101945081518110612cb257fe5b60200101906001600160f81b031916908160001a905350600101612c80565b5060005b8651811015612d2657868181518110612cea57fe5b602001015160f81c60f81b838380600101945081518110612d0757fe5b60200101906001600160f81b031916908160001a905350600101612cd5565b5060005b8551811015612d7b57858181518110612d3f57fe5b602001015160f81c60f81b838380600101945081518110612d5c57fe5b60200101906001600160f81b031916908160001a905350600101612d2a565b5060005b8451811015612dd057848181518110612d9457fe5b602001015160f81c60f81b838380600101945081518110612db157fe5b60200101906001600160f81b031916908160001a905350600101612d7f565b50909d9c50505050505050505050505050565b8151612df690600090602085019061306b565b50805161111890600190602084019061306b565b6000818152600860205260409020546001600160a01b0316156115b657600090815260086020526040902080546001600160a01b0319169055565b8054612e5890600163ffffffff612e6516565b9055565b80546001019055565b600082821115612ebc576040805162461bcd60e51b815260206004820152601d60248201527f726573756c742063616e6e6f74206265206c6f776572207468616e2030000000604482015290519081900360640190fd5b50900390565b816001600160a01b0316612ed582611852565b6001600160a01b031614612f30576040805162461bcd60e51b815260206004820152601f60248201527f61646472657373206973206e6f74206f776e6572206f6620746f6b656e494400604482015290519081900360640190fd5b612f3981612e0a565b6001600160a01b0382166000908152600960205260409020612f5a90612e45565b600081815260076020908152604080832080546001600160a01b0319169055805184815290516001600160a01b038616927fddf252ad1be2c89b69c2b068fc378daa952ba7f163c4a11628f55a4df523b3ef928290030190a35050565b600554600090612fce90600163ffffffff612e6516565b6000838152600e602052604081205460058054939450909284908110612ff057fe5b90600052602060002001549050806005838154811061300b57fe5b6000918252602080832090910192909255828152600e90915260409020829055600580548061303657fe5b600190038181906000526020600020016000905590556000600e60008681526020019081526020016000208190555050505050565b828054600181600116156101000203166002900490600052602060002090601f016020900481019282601f106130ac57805160ff19168380011785556130d9565b828001600101855582156130d9579182015b828111156130d95782518255916020019190600101906130be565b506130e59291506130e9565b5090565b610ee891905b808211156130e557600081556001016130ef56fea264697066735822122069e79d2b0e3dc2eb8e403b2ac25f84b62574968db953a719451ac4ebf32cc6e664736f6c63430006020033",
  "source": "// SPDX-License-Identifier: UNLICENSED\n/**\n * @author Mathieu Lecoq\n * september 3rd 2020 \n *\n * @dev Property\n * all rights are reserved to EtherLand ltd\n *\n * @dev deployed with compiler version 0.6.2\n */\npragma solidity 0.6.2;\n\nimport \"./TradeableERC721Token.sol\";\nimport \"./IpfsHashs.sol\";\nimport \"./ERC1822/Proxiable.sol\";\n\n/**\n* @title Etherland NFT Assets\n*/\ncontract Etherland is TradeableERC721Token, IpfsHashs, Proxiable {\n    /**\n    * @dev initialized state MUST remain set to false on Implementation Contract \n    */\n    bool public initialized = false;\n\n    /**\n    * @dev event emitting when the `_baseTokenUri` is updated by owner\n    */\n    event BaseTokenUriUpdated(string newUri);\n\n    /**\n    * @dev Logic code implementation contact constructor\n    * @dev MUST be called by deployer only if contract has not been initialized before\n    */\n    function init(\n        string memory _name,\n        string memory _symbol,\n        address _proxyRegistryAddress,\n        string memory baseURI,\n        address _owner\n    ) public {\n        if (initialized != true) {\n            initialized = true;\n\n            TradeableERC721Token.init(_name, _symbol, _proxyRegistryAddress);\n\n            _baseTokenURI = baseURI;\n\n            // register the supported interfaces to conform to ERC721 via ERC165\n            _registerInterface(_INTERFACE_ID_ERC165);\n            _registerInterface(_INTERFACE_ID_ERC721_METADATA);\n            _registerInterface(_INTERFACE_ID_ERC721_ENUMERABLE);\n            _registerInterface(_INTERFACE_ID_ERC721);\n\n            _transferOwnership(_owner);\n        }\n    }\n\n    /**\n    * @dev Retrieve all NFTs base token uri \n    */\n    function baseTokenURI() public view returns (string memory) {\n        return _baseTokenURI;\n    }\n\n    /**\n    * @dev Set the base token uri for all NFTs\n    */\n    function setBaseTokenURI(string memory uri) public onlyOwner {\n        _baseTokenURI = uri;\n        emit BaseTokenUriUpdated(uri);\n    }\n\n    /**\n    * @dev Retrieve the uri of a specific token \n    * @param _tokenId the id of the token to retrieve the uri of\n    * @return computed uri string pointing to a specific _tokenId\n    */\n    function tokenURI(uint256 _tokenId) external view returns (string memory) {\n        return Strings.strConcat(\n            baseTokenURI(),\n            Strings.uint2str(_tokenId)\n        );\n    }\n\n    /**\n    * @dev EIP-1822 feature\n    * @dev Realize an update of the Etherland logic code \n    * @dev calls the proxy contract to update stored logic code contract address at keccak256(\"PROXIABLE\")\n    */\n    function updateCode(address newCode) public onlyOwner {\n        updateCodeAddress(newCode);\n    }\n\n}\n",
  "sourcePath": "/Users/proapps/Desktop/Mat/Apps/Etherland/ERC721/contracts/Etherland.sol",
  "compiler": {
    "name": "solc",
    "version": "0.6.2+commit.bacdbe57.Emscripten.clang"
  },
  "schemaVersion": "3.3.2",
  "updatedAt": "2020-11-14T09:10:01.779Z",
  "networkType": "ethereum",
  "devdoc": {
    "methods": {
      "adminRightsOf(address)": {
        "details": "know if an address has admin rights and its type of rights",
        "params": {
          "_admin": "the address to find admin rights of"
        },
        "returns": {
          "_0": "int16 the admin right for _admin :      1 : address can only mint tokens       2 : address can mint AND burn tokens "
        }
      },
      "approve(address,uint256)": {
        "details": "Approves another address to transfer the given token ID The zero address indicates there is no approved address. There can only be one approved address per token at a given time. Can only be called by the token owner or an approved operator.",
        "params": {
          "to": "address to be approved for the given token ID",
          "tokenId": "uint256 ID of the token to be approved"
        }
      },
      "balanceOf(address)": {
        "details": "Gets the balance of the specified address",
        "params": {
          "owner": "address to query the balance of"
        },
        "returns": {
          "_0": "uint256 representing the amount owned by the passed address"
        }
      },
      "baseTokenURI()": {
        "details": "Retrieve all NFTs base token uri "
      },
      "batchMintTo(uint256,address)": {
        "details": "Mint several tokens to an address.",
        "params": {
          "_to": "default owner of the new created NFT (reverts if a zero address)",
          "_total": "total number of NFT to mint (reverts if <= 0)"
        }
      },
      "burn(uint256)": {
        "details": "External Burn NFT method"
      },
      "canMint()": {
        "details": "canMint external ",
        "returns": {
          "_0": "bool : truthy if msg.sender has admin rights to mint new tokens"
        }
      },
      "canMintBurn()": {
        "details": "canBurn external",
        "returns": {
          "_0": "bool : truthy if msg.sender has admin rights to mint new tokens and burn existing tokens"
        }
      },
      "getApproved(uint256)": {
        "details": "Gets the approved address for a token ID, or zero if no address set Reverts if the token ID does not exist.",
        "params": {
          "tokenId": "uint256 ID of the token to query the approval of"
        },
        "returns": {
          "_0": "address currently approved for the given token ID"
        }
      },
      "grantMinterBurnerRights(address)": {
        "details": "owner can grant admin access to allow any address to mint new tokens and to burn existing tokensRestricted to CONTRACT OWNER ONLY",
        "params": {
          "_admin": ": address to grant admin minter and burner rights to"
        }
      },
      "grantMinterRights(address)": {
        "details": "owner can grant admin access to allow any address to mint new tokensRestricted to CONTRACT OWNER ONLY",
        "params": {
          "_admin": ": address to grant admin minter rights to"
        }
      },
      "init(string,string,address,string,address)": {
        "details": "Logic code implementation contact constructorMUST be called by deployer only if contract has not been initialized before"
      },
      "isMinter(address)": {
        "details": "verifiy if an address can mint new tokens",
        "params": {
          "_admin": ": the address to verify minting rights of"
        },
        "returns": {
          "_0": "a boolean, truthy when _admin has rights to mint new tokens"
        }
      },
      "isMinterBurner(address)": {
        "details": "verifiy if an address has rights to mint and burn new tokens",
        "params": {
          "_admin": ": the address to verify minter-burner rights of"
        },
        "returns": {
          "_0": "a boolean, truthy when _admin has rights to mint and burn new tokens"
        }
      },
      "mintTo(address)": {
        "details": "Mints a token to an address.",
        "params": {
          "_to": "address of the future owner of the token"
        }
      },
      "name()": {
        "details": "Gets the token name",
        "returns": {
          "_0": "string representing the token name"
        }
      },
      "ownerOf(uint256)": {
        "details": "Gets the owner of the specified token ID",
        "params": {
          "tokenId": "uint256 ID of the token to query the owner of"
        },
        "returns": {
          "_0": "address currently marked as the owner of the given token ID"
        }
      },
      "renounceOwnership()": {
        "details": "Allows the current owner to relinquish control of the contract. It will not be possible to call the functions with the `onlyOwner` modifier anymore."
      },
      "revokeAdminRights(address)": {
        "details": "owner can revoke admin right of any admin addressRestricted to CONTRACT OWNER ONLY",
        "params": {
          "_admin": ": address to revoke admin access to"
        }
      },
      "safeTransferFrom(address,address,uint256)": {
        "details": "Safely transfers the ownership of a given token ID to another address If the target address is a contract, it must implement `onERC721Received`, which is called upon a safe transfer, and return the magic value `bytes4(keccak256(\"onERC721Received(address,address,uint256,bytes)\"))`; otherwise, the transfer is reverted. Requires the msg.sender to be the owner, approved, or operator",
        "params": {
          "from": "current owner of the token",
          "to": "address to receive the ownership of the given token ID",
          "tokenId": "uint256 ID of the token to be transferred"
        }
      },
      "safeTransferFromWithData(address,address,uint256,bytes)": {
        "details": "Safely transfers the ownership of a given token ID to another address If the target address is a contract, it must implement `onERC721Received`, which is called upon a safe transfer, and return the magic value `bytes4(keccak256(\"onERC721Received(address,address,uint256,bytes)\"))`; otherwise, the transfer is reverted. Requires the msg.sender to be the owner, approved, or operator",
        "params": {
          "_data": "bytes data to send along with a safe transfer check",
          "from": "current owner of the token",
          "to": "address to receive the ownership of the given token ID",
          "tokenId": "uint256 ID of the token to be transferred"
        }
      },
      "setApprovalForAll(address,bool)": {
        "details": "Sets or unsets the approval of a given operator An operator is allowed to transfer all tokens of the sender on their behalf",
        "params": {
          "approved": "representing the status of the approval to be set",
          "to": "operator address to set the approval"
        }
      },
      "setBaseTokenURI(string)": {
        "details": "Set the base token uri for all NFTs"
      },
      "supportsInterface(bytes4)": {
        "details": "implement supportsInterface(bytes4) using a lookup table"
      },
      "symbol()": {
        "details": "Gets the token symbol",
        "returns": {
          "_0": "string representing the token symbol"
        }
      },
      "tokenByIndex(uint256)": {
        "details": "Gets the token ID at a given index of all the tokens in this contract Reverts if the index is greater or equal to the total number of tokens",
        "params": {
          "index": "uint256 representing the index to be accessed of the tokens list"
        },
        "returns": {
          "_0": "uint256 token ID at the given index of the tokens list"
        }
      },
      "tokenOfOwnerByIndex(address,uint256)": {
        "details": "Gets the token ID at a given index of the tokens list of the requested owner",
        "params": {
          "index": "uint256 representing the index to be accessed of the requested tokens list",
          "owner": "address owning the tokens list to be accessed"
        },
        "returns": {
          "_0": "uint256 token ID at the given index of the tokens list owned by the requested address"
        }
      },
      "tokenURI(uint256)": {
        "details": "Retrieve the uri of a specific token ",
        "params": {
          "_tokenId": "the id of the token to retrieve the uri of"
        },
        "returns": {
          "_0": "computed uri string pointing to a specific _tokenId"
        }
      },
      "tokensOf(address)": {
        "details": "@notice Non-Standard method to retrieve all NFTs that specific owner owns",
        "returns": {
          "_0": "uint[] containing all NFTs that owner owns"
        }
      },
      "totalSupply()": {
        "details": "Gets the total amount of tokens stored by the contract",
        "returns": {
          "_0": "uint256 representing the total amount of tokens"
        }
      },
      "transferFrom(address,address,uint256)": {
        "details": "Transfers the ownership of a given token ID to another address Usage of this method is discouraged, use `safeTransferFrom` whenever possible Requires the msg.sender to be the owner, approved, or operator",
        "params": {
          "from": "current owner of the token",
          "to": "address to receive the ownership of the given token ID",
          "tokenId": "uint256 ID of the token to be transferred"
        }
      },
      "transferOwnership(address)": {
        "details": "Allows the current owner to transfer control of the contract to a newOwner.",
        "params": {
          "newOwner": "The address to transfer ownership to."
        }
      },
      "updateCode(address)": {
        "details": "EIP-1822 featureRealize an update of the Etherland logic code calls the proxy contract to update stored logic code contract address at keccak256(\"PROXIABLE\")"
      }
    },
    "title": "Etherland NFT Assets"
  },
  "userdoc": {
    "methods": {
      "isApprovedForAll(address,address)": {
        "notice": "Override isApprovedForAll to whitelist user's OpenSea proxy accounts to enable gas-less listings."
      },
      "renounceOwnership()": {
        "notice": "Renouncing ownership will leave the contract without an owner, thereby removing any functionality that is only available to the owner."
      }
    }
  }
}