{
  "contractName": "Etherland",
  "abi": [
    {
      "anonymous": false,
      "inputs": [
        {
          "indexed": true,
          "internalType": "address",
          "name": "newAdmin",
          "type": "address"
        },
        {
          "indexed": false,
          "internalType": "int16",
          "name": "adminRights",
          "type": "int16"
        }
      ],
      "name": "AdminRightsGranted",
      "type": "event"
    },
    {
      "anonymous": false,
      "inputs": [
        {
          "indexed": true,
          "internalType": "address",
          "name": "noAdmin",
          "type": "address"
        }
      ],
      "name": "AdminRightsRevoked",
      "type": "event"
    },
    {
      "anonymous": false,
      "inputs": [
        {
          "indexed": true,
          "internalType": "address",
          "name": "owner",
          "type": "address"
        },
        {
          "indexed": true,
          "internalType": "address",
          "name": "approved",
          "type": "address"
        },
        {
          "indexed": false,
          "internalType": "uint256",
          "name": "tokenId",
          "type": "uint256"
        }
      ],
      "name": "Approval",
      "type": "event"
    },
    {
      "anonymous": false,
      "inputs": [
        {
          "indexed": true,
          "internalType": "address",
          "name": "owner",
          "type": "address"
        },
        {
          "indexed": true,
          "internalType": "address",
          "name": "operator",
          "type": "address"
        },
        {
          "indexed": false,
          "internalType": "bool",
          "name": "approved",
          "type": "bool"
        }
      ],
      "name": "ApprovalForAll",
      "type": "event"
    },
    {
      "anonymous": false,
      "inputs": [
        {
          "indexed": false,
          "internalType": "string",
          "name": "newUri",
          "type": "string"
        }
      ],
      "name": "BaseTokenUriUpdated",
      "type": "event"
    },
    {
      "anonymous": false,
      "inputs": [
        {
          "indexed": true,
          "internalType": "address",
          "name": "previousOwner",
          "type": "address"
        },
        {
          "indexed": true,
          "internalType": "address",
          "name": "newOwner",
          "type": "address"
        }
      ],
      "name": "OwnershipTransferred",
      "type": "event"
    },
    {
      "anonymous": false,
      "inputs": [
        {
          "indexed": true,
          "internalType": "address",
          "name": "from",
          "type": "address"
        },
        {
          "indexed": true,
          "internalType": "address",
          "name": "to",
          "type": "address"
        },
        {
          "indexed": false,
          "internalType": "uint256",
          "name": "tokenId",
          "type": "uint256"
        }
      ],
      "name": "Transfer",
      "type": "event"
    },
    {
      "inputs": [
        {
          "internalType": "address",
          "name": "_admin",
          "type": "address"
        }
      ],
      "name": "adminRightsOf",
      "outputs": [
        {
          "internalType": "int16",
          "name": "",
          "type": "int16"
        }
      ],
      "stateMutability": "view",
      "type": "function",
      "constant": true
    },
    {
      "inputs": [
        {
          "internalType": "address",
          "name": "to",
          "type": "address"
        },
        {
          "internalType": "uint256",
          "name": "tokenId",
          "type": "uint256"
        }
      ],
      "name": "approve",
      "outputs": [],
      "stateMutability": "nonpayable",
      "type": "function"
    },
    {
      "inputs": [
        {
          "internalType": "address",
          "name": "owner",
          "type": "address"
        }
      ],
      "name": "balanceOf",
      "outputs": [
        {
          "internalType": "uint256",
          "name": "",
          "type": "uint256"
        }
      ],
      "stateMutability": "view",
      "type": "function",
      "constant": true
    },
    {
      "inputs": [
        {
          "internalType": "uint256",
          "name": "_total",
          "type": "uint256"
        },
        {
          "internalType": "address",
          "name": "_to",
          "type": "address"
        }
      ],
      "name": "batchMintTo",
      "outputs": [],
      "stateMutability": "nonpayable",
      "type": "function"
    },
    {
      "inputs": [
        {
          "internalType": "uint256",
          "name": "_tokenId",
          "type": "uint256"
        }
      ],
      "name": "burn",
      "outputs": [],
      "stateMutability": "nonpayable",
      "type": "function"
    },
    {
      "inputs": [],
      "name": "canMint",
      "outputs": [
        {
          "internalType": "bool",
          "name": "",
          "type": "bool"
        }
      ],
      "stateMutability": "view",
      "type": "function",
      "constant": true
    },
    {
      "inputs": [],
      "name": "canMintBurn",
      "outputs": [
        {
          "internalType": "bool",
          "name": "",
          "type": "bool"
        }
      ],
      "stateMutability": "view",
      "type": "function",
      "constant": true
    },
    {
      "inputs": [
        {
          "internalType": "uint256",
          "name": "tokenId",
          "type": "uint256"
        }
      ],
      "name": "getApproved",
      "outputs": [
        {
          "internalType": "address",
          "name": "",
          "type": "address"
        }
      ],
      "stateMutability": "view",
      "type": "function",
      "constant": true
    },
    {
      "inputs": [
        {
          "internalType": "uint256",
          "name": "_tokenId",
          "type": "uint256"
        }
      ],
      "name": "getMetadatas",
      "outputs": [
        {
          "internalType": "string",
          "name": "",
          "type": "string"
        }
      ],
      "stateMutability": "view",
      "type": "function",
      "constant": true
    },
    {
      "inputs": [
        {
          "internalType": "address",
          "name": "_admin",
          "type": "address"
        }
      ],
      "name": "grantMinterBurnerRights",
      "outputs": [],
      "stateMutability": "nonpayable",
      "type": "function"
    },
    {
      "inputs": [
        {
          "internalType": "address",
          "name": "_admin",
          "type": "address"
        }
      ],
      "name": "grantMinterRights",
      "outputs": [],
      "stateMutability": "nonpayable",
      "type": "function"
    },
    {
      "inputs": [],
      "name": "initialized",
      "outputs": [
        {
          "internalType": "bool",
          "name": "",
          "type": "bool"
        }
      ],
      "stateMutability": "view",
      "type": "function",
      "constant": true
    },
    {
      "inputs": [
        {
          "internalType": "address",
          "name": "owner",
          "type": "address"
        },
        {
          "internalType": "address",
          "name": "operator",
          "type": "address"
        }
      ],
      "name": "isApprovedForAll",
      "outputs": [
        {
          "internalType": "bool",
          "name": "",
          "type": "bool"
        }
      ],
      "stateMutability": "view",
      "type": "function",
      "constant": true
    },
    {
      "inputs": [
        {
          "internalType": "address",
          "name": "_admin",
          "type": "address"
        }
      ],
      "name": "isMinter",
      "outputs": [
        {
          "internalType": "bool",
          "name": "",
          "type": "bool"
        }
      ],
      "stateMutability": "view",
      "type": "function",
      "constant": true
    },
    {
      "inputs": [
        {
          "internalType": "address",
          "name": "_admin",
          "type": "address"
        }
      ],
      "name": "isMinterBurner",
      "outputs": [
        {
          "internalType": "bool",
          "name": "",
          "type": "bool"
        }
      ],
      "stateMutability": "view",
      "type": "function",
      "constant": true
    },
    {
      "inputs": [],
      "name": "isOwner",
      "outputs": [
        {
          "internalType": "bool",
          "name": "",
          "type": "bool"
        }
      ],
      "stateMutability": "view",
      "type": "function",
      "constant": true
    },
    {
      "inputs": [
        {
          "internalType": "address",
          "name": "_to",
          "type": "address"
        }
      ],
      "name": "mintTo",
      "outputs": [],
      "stateMutability": "nonpayable",
      "type": "function"
    },
    {
      "inputs": [],
      "name": "name",
      "outputs": [
        {
          "internalType": "string",
          "name": "",
          "type": "string"
        }
      ],
      "stateMutability": "view",
      "type": "function",
      "constant": true
    },
    {
      "inputs": [],
      "name": "owner",
      "outputs": [
        {
          "internalType": "address",
          "name": "",
          "type": "address"
        }
      ],
      "stateMutability": "view",
      "type": "function",
      "constant": true
    },
    {
      "inputs": [
        {
          "internalType": "uint256",
          "name": "tokenId",
          "type": "uint256"
        }
      ],
      "name": "ownerOf",
      "outputs": [
        {
          "internalType": "address",
          "name": "",
          "type": "address"
        }
      ],
      "stateMutability": "view",
      "type": "function",
      "constant": true
    },
    {
      "inputs": [],
      "name": "proxiableUUID",
      "outputs": [
        {
          "internalType": "bytes32",
          "name": "",
          "type": "bytes32"
        }
      ],
      "stateMutability": "pure",
      "type": "function",
      "constant": true
    },
    {
      "inputs": [],
      "name": "proxyRegistryAddress",
      "outputs": [
        {
          "internalType": "address",
          "name": "",
          "type": "address"
        }
      ],
      "stateMutability": "view",
      "type": "function",
      "constant": true
    },
    {
      "inputs": [
        {
          "internalType": "uint256",
          "name": "_tokenId",
          "type": "uint256"
        }
      ],
      "name": "removeMetadatas",
      "outputs": [],
      "stateMutability": "nonpayable",
      "type": "function"
    },
    {
      "inputs": [],
      "name": "renounceOwnership",
      "outputs": [],
      "stateMutability": "nonpayable",
      "type": "function"
    },
    {
      "inputs": [
        {
          "internalType": "address",
          "name": "_admin",
          "type": "address"
        }
      ],
      "name": "revokeAdminRights",
      "outputs": [],
      "stateMutability": "nonpayable",
      "type": "function"
    },
    {
      "inputs": [
        {
          "internalType": "address",
          "name": "from",
          "type": "address"
        },
        {
          "internalType": "address",
          "name": "to",
          "type": "address"
        },
        {
          "internalType": "uint256",
          "name": "tokenId",
          "type": "uint256"
        }
      ],
      "name": "safeTransferFrom",
      "outputs": [],
      "stateMutability": "nonpayable",
      "type": "function"
    },
    {
      "inputs": [
        {
          "internalType": "address",
          "name": "from",
          "type": "address"
        },
        {
          "internalType": "address",
          "name": "to",
          "type": "address"
        },
        {
          "internalType": "uint256",
          "name": "tokenId",
          "type": "uint256"
        },
        {
          "internalType": "bytes",
          "name": "_data",
          "type": "bytes"
        }
      ],
      "name": "safeTransferFromWithData",
      "outputs": [],
      "stateMutability": "nonpayable",
      "type": "function"
    },
    {
      "inputs": [
        {
          "internalType": "address",
          "name": "to",
          "type": "address"
        },
        {
          "internalType": "bool",
          "name": "approved",
          "type": "bool"
        }
      ],
      "name": "setApprovalForAll",
      "outputs": [],
      "stateMutability": "nonpayable",
      "type": "function"
    },
    {
      "inputs": [
        {
          "internalType": "uint256",
          "name": "_tokenId",
          "type": "uint256"
        },
        {
          "internalType": "string",
          "name": "_metadatas",
          "type": "string"
        }
      ],
      "name": "setMetadatas",
      "outputs": [],
      "stateMutability": "nonpayable",
      "type": "function"
    },
    {
      "inputs": [
        {
          "internalType": "bytes4",
          "name": "interfaceId",
          "type": "bytes4"
        }
      ],
      "name": "supportsInterface",
      "outputs": [
        {
          "internalType": "bool",
          "name": "",
          "type": "bool"
        }
      ],
      "stateMutability": "view",
      "type": "function",
      "constant": true
    },
    {
      "inputs": [],
      "name": "symbol",
      "outputs": [
        {
          "internalType": "string",
          "name": "",
          "type": "string"
        }
      ],
      "stateMutability": "view",
      "type": "function",
      "constant": true
    },
    {
      "inputs": [
        {
          "internalType": "uint256",
          "name": "index",
          "type": "uint256"
        }
      ],
      "name": "tokenByIndex",
      "outputs": [
        {
          "internalType": "uint256",
          "name": "",
          "type": "uint256"
        }
      ],
      "stateMutability": "view",
      "type": "function",
      "constant": true
    },
    {
      "inputs": [
        {
          "internalType": "address",
          "name": "owner",
          "type": "address"
        },
        {
          "internalType": "uint256",
          "name": "index",
          "type": "uint256"
        }
      ],
      "name": "tokenOfOwnerByIndex",
      "outputs": [
        {
          "internalType": "uint256",
          "name": "",
          "type": "uint256"
        }
      ],
      "stateMutability": "view",
      "type": "function",
      "constant": true
    },
    {
      "inputs": [
        {
          "internalType": "address",
          "name": "owner",
          "type": "address"
        }
      ],
      "name": "tokensOf",
      "outputs": [
        {
          "internalType": "uint256[]",
          "name": "",
          "type": "uint256[]"
        }
      ],
      "stateMutability": "view",
      "type": "function",
      "constant": true
    },
    {
      "inputs": [],
      "name": "totalSupply",
      "outputs": [
        {
          "internalType": "uint256",
          "name": "",
          "type": "uint256"
        }
      ],
      "stateMutability": "view",
      "type": "function",
      "constant": true
    },
    {
      "inputs": [
        {
          "internalType": "address",
          "name": "from",
          "type": "address"
        },
        {
          "internalType": "address",
          "name": "to",
          "type": "address"
        },
        {
          "internalType": "uint256",
          "name": "tokenId",
          "type": "uint256"
        }
      ],
      "name": "transferFrom",
      "outputs": [],
      "stateMutability": "nonpayable",
      "type": "function"
    },
    {
      "inputs": [
        {
          "internalType": "address",
          "name": "newOwner",
          "type": "address"
        }
      ],
      "name": "transferOwnership",
      "outputs": [],
      "stateMutability": "nonpayable",
      "type": "function"
    },
    {
      "inputs": [
        {
          "internalType": "string",
          "name": "_name",
          "type": "string"
        },
        {
          "internalType": "string",
          "name": "_symbol",
          "type": "string"
        },
        {
          "internalType": "address",
          "name": "_proxyRegistryAddress",
          "type": "address"
        },
        {
          "internalType": "string",
          "name": "baseURI",
          "type": "string"
        },
        {
          "internalType": "address",
          "name": "_owner",
          "type": "address"
        }
      ],
      "name": "init",
      "outputs": [],
      "stateMutability": "nonpayable",
      "type": "function"
    },
    {
      "inputs": [],
      "name": "baseTokenURI",
      "outputs": [
        {
          "internalType": "string",
          "name": "",
          "type": "string"
        }
      ],
      "stateMutability": "view",
      "type": "function",
      "constant": true
    },
    {
      "inputs": [
        {
          "internalType": "string",
          "name": "uri",
          "type": "string"
        }
      ],
      "name": "setBaseTokenURI",
      "outputs": [],
      "stateMutability": "nonpayable",
      "type": "function"
    },
    {
      "inputs": [
        {
          "internalType": "uint256",
          "name": "_tokenId",
          "type": "uint256"
        }
      ],
      "name": "tokenURI",
      "outputs": [
        {
          "internalType": "string",
          "name": "",
          "type": "string"
        }
      ],
      "stateMutability": "view",
      "type": "function",
      "constant": true
    },
    {
      "inputs": [
        {
          "internalType": "address",
          "name": "newCode",
          "type": "address"
        }
      ],
      "name": "updateCode",
      "outputs": [],
      "stateMutability": "nonpayable",
      "type": "function"
    }
  ],
  "bytecode": "0x608060405260006004556012805460ff191690556200002e6301ffc9a760e01b6001600160e01b036200004f16565b620000496380ac58cd60e01b6001600160e01b036200004f16565b620000c4565b6001600160e01b031980821614156200009f576040805162461bcd60e51b815260206004820152600d60248201526c62616420696e7465726661636560981b604482015290519081900360640190fd5b6001600160e01b0319166000908152600660205260409020805460ff19166001179055565b612da880620000d46000396000f3fe608060405234801561001057600080fd5b506004361061025e5760003560e01c80636a68119011610146578063a22cb465116100c3578063cd7c032611610087578063cd7c032614610957578063d547cfb71461095f578063e985e9c514610967578063f2fde38b14610995578063faa0650b146109bb578063fbd2d1ac14610b855761025e565b8063a22cb465146108b8578063a2e4d239146108e6578063aa271e1a1461090c578063beb9716d14610932578063c87b56dd1461093a5761025e565b80638da5cb5b1161010a5780638da5cb5b146108445780638f32d59b1461084c5780639216b3701461085457806395d89b41146108715780639adfecf9146108795761025e565b80636a6811901461079e57806370a08231146107c4578063715018a6146107ea578063755edd17146107f25780638d0f5b70146108185761025e565b806330176e13116101df57806346951954116101a357806346951954146105fc5780634f6ccce71461062257806352d1902d1461063f5780635a3f26721461064757806360a11672146106bd5780636352211e146107815761025e565b806330176e13146104345780633d9a1379146104d8578063426796831461058357806342842e0e146105a957806342966c68146105df5761025e565b8063158ef93e11610226578063158ef93e146103a857806318160ddd146103b05780631f6eeb68146103ca57806323b872dd146103d25780632f745c59146104085761025e565b806301ffc9a71461026357806305d52d091461029e57806306fdde03146102c6578063081812fc14610343578063095ea7b31461037c575b600080fd5b61028a6004803603602081101561027957600080fd5b50356001600160e01b031916610ba2565b604080519115158252519081900360200190f35b6102c4600480360360208110156102b457600080fd5b50356001600160a01b0316610bc5565b005b6102ce610cab565b6040805160208082528351818301528351919283929083019185019080838360005b838110156103085781810151838201526020016102f0565b50505050905090810190601f1680156103355780820380516001836020036101000a031916815260200191505b509250505060405180910390f35b6103606004803603602081101561035957600080fd5b5035610d42565b604080516001600160a01b039092168252519081900360200190f35b6102c46004803603604081101561039257600080fd5b506001600160a01b038135169060200135610db2565b61028a610eea565b6103b8610ef3565b60408051918252519081900360200190f35b61028a610ef9565b6102c4600480360360608110156103e857600080fd5b506001600160a01b03813581169160208101359091169060400135610f09565b6103b86004803603604081101561041e57600080fd5b506001600160a01b038135169060200135610f74565b6102c46004803603602081101561044a57600080fd5b810190602081018135600160201b81111561046457600080fd5b82018360208201111561047657600080fd5b803590602001918460018302840111600160201b8311171561049757600080fd5b91908080601f016020809104026020016040519081016040528093929190818152602001838380828437600092019190915250929550610ffe945050505050565b6102c4600480360360408110156104ee57600080fd5b81359190810190604081016020820135600160201b81111561050f57600080fd5b82018360208201111561052157600080fd5b803590602001918460018302840111600160201b8311171561054257600080fd5b91908080601f0160208091040260200160405190810160405280939291908181526020018383808284376000920191909152509295506110f5945050505050565b61028a6004803603602081101561059957600080fd5b50356001600160a01b031661115b565b6102c4600480360360608110156105bf57600080fd5b506001600160a01b038135811691602081013590911690604001356111af565b6102c4600480360360208110156105f557600080fd5b50356111ca565b6102c46004803603602081101561061257600080fd5b50356001600160a01b031661122f565b6103b86004803603602081101561063857600080fd5b503561127f565b6103b86112ef565b61066d6004803603602081101561065d57600080fd5b50356001600160a01b0316611313565b60408051602080825283518183015283519192839290830191858101910280838360005b838110156106a9578181015183820152602001610691565b505050509050019250505060405180910390f35b6102c4600480360360808110156106d357600080fd5b6001600160a01b03823581169260208101359091169160408201359190810190608081016060820135600160201b81111561070d57600080fd5b82018360208201111561071f57600080fd5b803590602001918460018302840111600160201b8311171561074057600080fd5b91908080601f016020809104026020016040519081016040528093929190818152602001838380828437600092019190915250929550611374945050505050565b6103606004803603602081101561079757600080fd5b50356113d9565b6102c4600480360360208110156107b457600080fd5b50356001600160a01b031661143f565b6103b8600480360360208110156107da57600080fd5b50356001600160a01b031661153a565b6102c46115b4565b6102c46004803603602081101561080857600080fd5b50356001600160a01b0316611645565b6102c46004803603604081101561082e57600080fd5b50803590602001356001600160a01b03166116c0565b6103606117d7565b61028a6117e6565b6102ce6004803603602081101561086a57600080fd5b50356117f7565b6102ce61188e565b61089f6004803603602081101561088f57600080fd5b50356001600160a01b03166118ee565b60408051600192830b90920b8252519081900360200190f35b6102c4600480360360408110156108ce57600080fd5b506001600160a01b038135169060200135151561193b565b6102c4600480360360208110156108fc57600080fd5b50356001600160a01b0316611a01565b61028a6004803603602081101561092257600080fd5b50356001600160a01b0316611afc565b61028a611b4e565b6102ce6004803603602081101561095057600080fd5b5035611b59565b610360611b74565b6102ce611b83565b61028a6004803603604081101561097d57600080fd5b506001600160a01b0381358116916020013516611be1565b6102c4600480360360208110156109ab57600080fd5b50356001600160a01b0316611c8c565b6102c4600480360360a08110156109d157600080fd5b810190602081018135600160201b8111156109eb57600080fd5b8201836020820111156109fd57600080fd5b803590602001918460018302840111600160201b83111715610a1e57600080fd5b91908080601f0160208091040260200160405190810160405280939291908181526020018383808284376000920191909152509295949360208101935035915050600160201b811115610a7057600080fd5b820183602082011115610a8257600080fd5b803590602001918460018302840111600160201b83111715610aa357600080fd5b91908080601f01602080910402602001604051908101604052809392919081815260200183838082843760009201919091525092956001600160a01b03853516959094909350604081019250602001359050600160201b811115610b0657600080fd5b820183602082011115610b1857600080fd5b803590602001918460018302840111600160201b83111715610b3957600080fd5b91908080601f016020809104026020016040519081016040528093929190818152602001838380828437600092019190915250929550505090356001600160a01b03169150611cdc9050565b6102c460048036036020811015610b9b57600080fd5b5035611d27565b6001600160e01b0319811660009081526006602052604090205460ff165b919050565b610bcd6117e6565b610c0c576040805162461bcd60e51b81526020600482015260136024820152600080516020612d53833981519152604482015290519081900360640190fd5b806001600160a01b038116610c60576040805162461bcd60e51b8152602060048201526015602482015274696e76616c69642061646d696e206164647265737360581b604482015290519081900360640190fd5b6001600160a01b038216600081815260106020526040808220805461ffff19169055517f75063598bb424244ef6461ff8e1e0a1836998c3c84ef9e591015fbe8d94fa71f9190a25050565b60008054604080516020601f6002600019610100600188161502019095169490940493840181900481028201810190925282815260609390929091830182828015610d375780601f10610d0c57610100808354040283529160200191610d37565b820191906000526020600020905b815481529060010190602001808311610d1a57829003601f168201915b505050505090505b90565b6000610d4d82611d97565b610d96576040805162461bcd60e51b81526020600482015260156024820152741d1bdad95b925108191bd95cdb89dd08195e1a5cdd605a1b604482015290519081900360640190fd5b506000908152600860205260409020546001600160a01b031690565b6000610dbd826113d9565b9050806001600160a01b0316836001600160a01b03161415610e20576040805162461bcd60e51b815260206004820152601760248201527631b0b73737ba1030b8383937bb32903cb7bab939b2b63360491b604482015290519081900360640190fd5b336001600160a01b0382161480610e3c5750610e3c8133611be1565b610e81576040805162461bcd60e51b81526020600482015260116024820152701c195c9b5a5cdcda5bdb8819195b9a5959607a1b604482015290519081900360640190fd5b60008281526008602090815260409182902080546001600160a01b0319166001600160a01b03878116918217909255835186815293519093918516927f8c5be1e5ebec7d5bd14f71427d1e84f3dd0314c0f7b2291e5b200ac8c7c3b925928290030190a3505050565b60125460ff1681565b60055490565b6000610f043361115b565b905090565b610f133382611db4565b610f64576040805162461bcd60e51b815260206004820152601760248201527f7370656e646572206973206e6f7420617070726f766564000000000000000000604482015290519081900360640190fd5b610f6f838383611e0b565b505050565b6000610f7f8361153a565b8210610fc6576040805162461bcd60e51b81526020600482015260116024820152700d2dcc8caf040d2e640e8dede40d0d2ced607b1b604482015290519081900360640190fd5b6001600160a01b0383166000908152600c60205260409020805483908110610fea57fe5b906000526020600020015490505b92915050565b6110066117e6565b611045576040805162461bcd60e51b81526020600482015260136024820152600080516020612d53833981519152604482015290519081900360640190fd5b8051611058906002906020840190612cba565b507fe0b4aa3a614e11365fec002edc82449b5849402d025b31c4770f0e270286e690816040518080602001828103825283818151815260200191508051906020019080838360005b838110156110b85781810151838201526020016110a0565b50505050905090810190601f1680156110e55780820380516001836020036101000a031916815260200191505b509250505060405180910390a150565b6110fd6117e6565b61113c576040805162461bcd60e51b81526020600482015260136024820152600080516020612d53833981519152604482015290519081900360640190fd5b60008281526011602090815260409091208251610f6f92840190612cba565b60006111656117d7565b6001600160a01b0316826001600160a01b0316141561118657506001610bc0565b506001600160a01b038116600090815260106020526040902054600190810b900b600214610bc0565b610f6f83838360405180602001604052806000815250611374565b6111d2610ef9565b611223576040805162461bcd60e51b815260206004820181905260248201527f64656e696564203a206e6f2061646d696e206275726e696e6720726967687473604482015290519081900360640190fd5b61122c81611e2a565b50565b6112376117e6565b611276576040805162461bcd60e51b81526020600482015260136024820152600080516020612d53833981519152604482015290519081900360640190fd5b61122c81611e3c565b6000611289610ef3565b82106112d0576040805162461bcd60e51b81526020600482015260116024820152700d2dcc8caf040d2e640e8dede40d0d2ced607b1b604482015290519081900360640190fd5b600582815481106112dd57fe5b90600052602060002001549050919050565b7fc5f16f0fcc639fa48a6947836d9850f504798523bf8c9a3a87d5876cf622bcf790565b606061131e82611f29565b80548060200260200160405190810160405280929190818152602001828054801561136857602002820191906000526020600020905b815481526020019060010190808311611354575b50505050509050919050565b61137f848484610f09565b61138b84848484611f43565b6113d3576040805162461bcd60e51b81526020600482015260146024820152736461746120636865636b206973206e6f74206f6b60601b604482015290519081900360640190fd5b50505050565b6000818152600760205260408120546001600160a01b031680610ff8576040805162461bcd60e51b815260206004820152601960248201527806f776e65722063616e6e6f742062652061646472657373203603c1b604482015290519081900360640190fd5b6114476117e6565b611486576040805162461bcd60e51b81526020600482015260136024820152600080516020612d53833981519152604482015290519081900360640190fd5b806001600160a01b0381166114da576040805162461bcd60e51b8152602060048201526015602482015274696e76616c69642061646d696e206164647265737360581b604482015290519081900360640190fd5b6001600160a01b038216600081815260106020908152604091829020805461ffff19166001908117909155825190815291517fc9650477e67b3b00a3cf84fb7f5e1c3c95d7271a855253a09dde0a403695a3679281900390910190a25050565b60006001600160a01b038216611593576040805162461bcd60e51b815260206004820152601960248201527806f776e65722063616e6e6f742062652061646472657373203603c1b604482015290519081900360640190fd5b6001600160a01b0382166000908152600960205260409020610ff890612076565b6115bc6117e6565b6115fb576040805162461bcd60e51b81526020600482015260136024820152600080516020612d53833981519152604482015290519081900360640190fd5b600f546040516000916001600160a01b0316907f8be0079c531659141344cd1fd0a4f28419497f9722a3daafe3b4186f6b6457e0908390a3600f80546001600160a01b0319169055565b61164d611b4e565b61169e576040805162461bcd60e51b815260206004820181905260248201527f64656e696564203a206e6f2061646d696e206d696e74696e6720726967687473604482015290519081900360640190fd5b60006116a861207a565b90506116b48282612091565b6116bc6120ae565b5050565b6116c8611b4e565b611719576040805162461bcd60e51b815260206004820181905260248201527f64656e696564203a206e6f2061646d696e206d696e74696e6720726967687473604482015290519081900360640190fd5b60008211611765576040805162461bcd60e51b815260206004820152601460248201527336b4b73a1036b4b734b6bab69018903a37b5b2b760611b604482015290519081900360640190fd5b6001600160a01b0381166117bb576040805162461bcd60e51b8152602060048201526018602482015277063616e6e6f74206d696e7420746f206164647265737320360441b604482015290519081900360640190fd5b60005b82811015610f6f576117cf82611645565b6001016117be565b600f546001600160a01b031690565b600f546001600160a01b0316331490565b60008181526011602090815260409182902080548351601f60026000196101006001861615020190931692909204918201849004840281018401909452808452606093928301828280156113685780601f1061186157610100808354040283529160200191611368565b820191906000526020600020905b81548152906001019060200180831161186f5750939695505050505050565b60018054604080516020601f60026000196101008789161502019095169490940493840181900481028201810190925282815260609390929091830182828015610d375780601f10610d0c57610100808354040283529160200191610d37565b60006118f86117d7565b6001600160a01b0316826001600160a01b0316141561191957506002610bc0565b506001600160a01b03811660009081526010602052604090205460010b610bc0565b6001600160a01b038216331415611993576040805162461bcd60e51b815260206004820152601760248201527631b0b73737ba1030b8383937bb32903cb7bab939b2b63360491b604482015290519081900360640190fd5b336000818152600a602090815260408083206001600160a01b03871680855290835292819020805460ff1916861515908117909155815190815290519293927f17307eab39ab6107e8899845ad3d59bd9653f200f220920489ca2b5937696c31929181900390910190a35050565b611a096117e6565b611a48576040805162461bcd60e51b81526020600482015260136024820152600080516020612d53833981519152604482015290519081900360640190fd5b806001600160a01b038116611a9c576040805162461bcd60e51b8152602060048201526015602482015274696e76616c69642061646d696e206164647265737360581b604482015290519081900360640190fd5b6001600160a01b038216600081815260106020908152604091829020805461ffff19166002908117909155825190815291517fc9650477e67b3b00a3cf84fb7f5e1c3c95d7271a855253a09dde0a403695a3679281900390910190a25050565b6000611b066117d7565b6001600160a01b0316826001600160a01b03161415611b2757506001610bc0565b506001600160a01b038116600090815260106020526040812054600190810b900b13610bc0565b6000610f0433611afc565b6060610ff8611b66611b83565b611b6f846120b9565b61217a565b6003546001600160a01b031681565b60028054604080516020601f6000196101006001871615020190941685900493840181900481028201810190925282815260609390929091830182828015610d375780601f10610d0c57610100808354040283529160200191610d37565b6003546040805163c455279160e01b81526001600160a01b0385811660048301529151600093831692851691839163c455279191602480820192602092909190829003018186803b158015611c3557600080fd5b505afa158015611c49573d6000803e3d6000fd5b505050506040513d6020811015611c5f57600080fd5b50516001600160a01b03161415611c7a576001915050610ff8565b611c8484846121bd565b949350505050565b611c946117e6565b611cd3576040805162461bcd60e51b81526020600482015260136024820152600080516020612d53833981519152604482015290519081900360640190fd5b61122c816121eb565b60125460ff161515600114611d20576012805460ff19166001179055611d038585856122a2565b8151611d16906002906020850190612cba565b50611d20816121eb565b5050505050565b611d2f6117e6565b611d6e576040805162461bcd60e51b81526020600482015260136024820152600080516020612d53833981519152604482015290519081900360640190fd5b6040805160208082018084526000808452858152601190925292902081519192610f6f92612cba565b6000908152600760205260409020546001600160a01b0316151590565b600080611dc0836113d9565b9050806001600160a01b0316846001600160a01b03161480611dfb5750836001600160a01b0316611df084610d42565b6001600160a01b0316145b80611c845750611c848185611be1565b611e168383836122d0565b611e20838261244d565b610f6f828261254f565b61122c611e36826113d9565b8261258d565b806001600160a01b03166352d1902d6040518163ffffffff1660e01b815260040160206040518083038186803b158015611e7557600080fd5b505afa158015611e89573d6000803e3d6000fd5b505050506040513d6020811015611e9f57600080fd5b50517fc5f16f0fcc639fa48a6947836d9850f504798523bf8c9a3a87d5876cf622bcf714611f05576040805162461bcd60e51b815260206004820152600e60248201526d4e6f7420636f6d70617469626c6560901b604482015290519081900360640190fd5b7fc5f16f0fcc639fa48a6947836d9850f504798523bf8c9a3a87d5876cf622bcf755565b6001600160a01b03166000908152600c6020526040902090565b6000611f57846001600160a01b03166125b9565b611f6357506001611c84565b604051630a85bd0160e11b815233600482018181526001600160a01b03888116602485015260448401879052608060648501908152865160848601528651600095928a169463150b7a029490938c938b938b939260a4019060208501908083838e5b83811015611fdd578181015183820152602001611fc5565b50505050905090810190601f16801561200a5780820380516001836020036101000a031916815260200191505b5095505050505050602060405180830381600087803b15801561202c57600080fd5b505af1158015612040573d6000803e3d6000fd5b505050506040513d602081101561205657600080fd5b50516001600160e01b031916630a85bd0160e11b14915050949350505050565b5490565b600454600090610f0490600163ffffffff6125bf16565b61209b8282612619565b6120a5828261254f565b6116bc81612745565b600480546001019055565b6060816120de57506040805180820190915260018152600360fc1b6020820152610bc0565b8160005b81156120f657600101600a820491506120e2565b6060816040519080825280601f01601f191660200182016040528015612123576020820181803883390190505b50905060001982015b851561217157600a860660300160f81b8282806001900393508151811061214f57fe5b60200101906001600160f81b031916908160001a905350600a8604955061212c565b50949350505050565b60606121b68383604051806020016040528060008152506040518060200160405280600081525060405180602001604052806000815250612789565b9392505050565b6001600160a01b039182166000908152600a6020908152604080832093909416825291909152205460ff1690565b6001600160a01b038116612246576040805162461bcd60e51b815260206004820152601d60248201527f6e6577206f776e65722063616e6e6f7420626520616464726573732030000000604482015290519081900360640190fd5b600f546040516001600160a01b038084169216907f8be0079c531659141344cd1fd0a4f28419497f9722a3daafe3b4186f6b6457e090600090a3600f80546001600160a01b0319166001600160a01b0392909216919091179055565b6122ac838361299d565b600380546001600160a01b0319166001600160a01b03929092169190911790555050565b826001600160a01b03166122e3826113d9565b6001600160a01b03161461233e576040805162461bcd60e51b815260206004820181905260248201527f73656e646572206973206e6f74206f776e6572206f662074686520746f6b656e604482015290519081900360640190fd5b6001600160a01b038216612399576040805162461bcd60e51b815260206004820152601860248201527f63616e6e6f742073656e6420746f203020616464726573730000000000000000604482015290519081900360640190fd5b6123a2816129e5565b6001600160a01b03831660009081526009602052604090206123c390612a20565b6001600160a01b03821660009081526009602052604090206123e490612a37565b60008181526007602090815260409182902080546001600160a01b0319166001600160a01b03868116918217909255835185815293519093918716927fddf252ad1be2c89b69c2b068fc378daa952ba7f163c4a11628f55a4df523b3ef928290030190a3505050565b6001600160a01b0382166000908152600c602052604081205461247790600163ffffffff612a4016565b6000838152600d6020526040902054909150808214612512576001600160a01b0384166000908152600c602052604081208054849081106124b457fe5b9060005260206000200154905080600c6000876001600160a01b03166001600160a01b0316815260200190815260200160002083815481106124f257fe5b6000918252602080832090910192909255918252600d9052604090208190555b6001600160a01b0384166000908152600c6020526040902080548061253357fe5b6001900381819060005260206000200160009055905550505050565b6001600160a01b039091166000908152600c602081815260408084208054868652600d84529185208290559282526001810183559183529091200155565b6125978282612a9d565b6125a1828261244d565b6000818152600d60205260408120556116bc81612b92565b3b151590565b6000828201838110156121b6576040805162461bcd60e51b815260206004820181905260248201527f626f7468206e756d62657273206861766520746f20626520706f736974697665604482015290519081900360640190fd5b6001600160a01b03821661266f576040805162461bcd60e51b8152602060048201526018602482015277063616e6e6f74206d696e7420746f206164647265737320360441b604482015290519081900360640190fd5b61267881611d97565b156126c1576040805162461bcd60e51b8152602060048201526014602482015273746f6b656e20616c72656164792065786973747360601b604482015290519081900360640190fd5b600081815260076020908152604080832080546001600160a01b0319166001600160a01b03871690811790915583526009909152902061270090612a37565b6040805182815290516001600160a01b038416916000917fddf252ad1be2c89b69c2b068fc378daa952ba7f163c4a11628f55a4df523b3ef9181900360200190a35050565b600580546000838152600e60205260408120829055600182018355919091527f036b6384b5eca791c62761152d0c79bb0604c104a5fb6f4eb0703f3154bb3db00155565b6060808690506060869050606086905060608690506060869050606081518351855187518951010101016040519080825280601f01601f1916602001820160405280156127dd576020820181803883390190505b509050806000805b8851811015612836578881815181106127fa57fe5b602001015160f81c60f81b83838060010194508151811061281757fe5b60200101906001600160f81b031916908160001a9053506001016127e5565b5060005b875181101561288b5787818151811061284f57fe5b602001015160f81c60f81b83838060010194508151811061286c57fe5b60200101906001600160f81b031916908160001a90535060010161283a565b5060005b86518110156128e0578681815181106128a457fe5b602001015160f81c60f81b8383806001019450815181106128c157fe5b60200101906001600160f81b031916908160001a90535060010161288f565b5060005b8551811015612935578581815181106128f957fe5b602001015160f81c60f81b83838060010194508151811061291657fe5b60200101906001600160f81b031916908160001a9053506001016128e4565b5060005b845181101561298a5784818151811061294e57fe5b602001015160f81c60f81b83838060010194508151811061296b57fe5b60200101906001600160f81b031916908160001a905350600101612939565b50909d9c50505050505050505050505050565b81516129b0906000906020850190612cba565b5080516129c4906001906020840190612cba565b506129d5635b5e139f60e01b612c46565b6116bc63780e9d6360e01b612c46565b6000818152600860205260409020546001600160a01b03161561122c57600090815260086020526040902080546001600160a01b0319169055565b8054612a3390600163ffffffff612a4016565b9055565b80546001019055565b600082821115612a97576040805162461bcd60e51b815260206004820152601d60248201527f726573756c742063616e6e6f74206265206c6f776572207468616e2030000000604482015290519081900360640190fd5b50900390565b816001600160a01b0316612ab0826113d9565b6001600160a01b031614612b0b576040805162461bcd60e51b815260206004820152601f60248201527f61646472657373206973206e6f74206f776e6572206f6620746f6b656e494400604482015290519081900360640190fd5b612b14816129e5565b6001600160a01b0382166000908152600960205260409020612b3590612a20565b600081815260076020908152604080832080546001600160a01b0319169055805184815290516001600160a01b038616927fddf252ad1be2c89b69c2b068fc378daa952ba7f163c4a11628f55a4df523b3ef928290030190a35050565b600554600090612ba990600163ffffffff612a4016565b6000838152600e602052604081205460058054939450909284908110612bcb57fe5b906000526020600020015490508060058381548110612be657fe5b6000918252602080832090910192909255828152600e909152604090208290556005805480612c1157fe5b600190038181906000526020600020016000905590556000600e60008681526020019081526020016000208190555050505050565b6001600160e01b03198082161415612c95576040805162461bcd60e51b815260206004820152600d60248201526c62616420696e7465726661636560981b604482015290519081900360640190fd5b6001600160e01b0319166000908152600660205260409020805460ff19166001179055565b828054600181600116156101000203166002900490600052602060002090601f016020900481019282601f10612cfb57805160ff1916838001178555612d28565b82800160010185558215612d28579182015b82811115612d28578251825591602001919060010190612d0d565b50612d34929150612d38565b5090565b610d3f91905b80821115612d345760008155600101612d3e56fe73656e646572206973206e6f74206f776e657200000000000000000000000000a26469706673582212203336d7d1a421823bca1e47402b39b98689895b005963e9af7a25833e54521c7164736f6c63430006020033",
  "source": "// SPDX-License-Identifier: UNLICENSED\n/**\n * @author Mathieu Lecoq\n * september 3rd 2020 \n *\n * @dev Property\n * all rights are reserved to EtherLand ltd\n *\n * @dev deployed with compiler version 0.6.2\n */\npragma solidity 0.6.2;\n\nimport \"./TradeableERC721Token.sol\";\nimport \"./TokensMetadatas.sol\";\nimport \"./ERC1822/Proxiable.sol\";\n\n/**\n* @title Etherland NFT Assets\n*/\ncontract Etherland is TradeableERC721Token, TokensMetadatas, Proxiable {\n    // string private _baseTokenURI;\n    /**\n    * @dev initialized state MUST remain set to false on Implementation Contract \n    */\n    bool public initialized = false;\n\n    /**\n    * @dev event emitting when the `_baseTokenUri` is updated by owner\n    */\n    event BaseTokenUriUpdated(string newUri);\n\n    /**\n    * @dev Logic code implementation contact constructor\n    * @dev MUST be called by deployer only if contract has not been initialized before\n    */\n    function init(\n        string memory _name,\n        string memory _symbol,\n        address _proxyRegistryAddress,\n        string memory baseURI,\n        address _owner\n    ) public {\n        // logic code contract can be initialized only once\n        if (initialized != true) {\n            // MUST set Proxy contract state\n            initialized = true;\n\n            TradeableERC721Token.init(_name, _symbol, _proxyRegistryAddress);\n\n            _baseTokenURI = baseURI;\n            _transferOwnership(_owner);\n        }\n    }\n\n    /**\n    * @dev Retrieve all NFTs base token uri \n    */\n    function baseTokenURI() public view returns (string memory) {\n        return _baseTokenURI;\n    }\n\n    /**\n    * @dev Set the base token uri for all NFTs\n    */\n    function setBaseTokenURI(string memory uri) public onlyOwner {\n        _baseTokenURI = uri;\n        emit BaseTokenUriUpdated(uri);\n    }\n\n    /**\n    * @dev Retrieve the uri of a specific token \n    * @param _tokenId the id of the token to retrieve the uri of\n    * @return computed uri string pointing to a specific _tokenId\n    */\n    function tokenURI(uint256 _tokenId) external view returns (string memory) {\n        return Strings.strConcat(\n            baseTokenURI(),\n            Strings.uint2str(_tokenId)\n        );\n    }\n\n    /**\n    * @dev EIP-1822 feature\n    * @dev Realize an update of the Etherland logic code \n    * @dev calls the proxy contract to update stored logic code contract address at keccak256(\"PROXIABLE\")\n    */\n    function updateCode(address newCode) public onlyOwner {\n        updateCodeAddress(newCode);\n    }\n\n}\n",
  "sourcePath": "/Users/macos/Desktop/Mat/Apps/ETHERLAND/Etherland_ERC721/ERC721/contracts/Etherland.sol",
  "compiler": {
    "name": "solc",
    "version": "0.6.2+commit.bacdbe57.Emscripten.clang"
  },
  "schemaVersion": "3.2.0",
  "updatedAt": "2020-11-05T22:02:42.127Z",
  "networkType": "ethereum",
  "devdoc": {
    "methods": {
      "adminRightsOf(address)": {
        "details": "know if an address has admin rights and its type of rights",
        "params": {
          "_admin": "the address to find admin rights of"
        },
        "returns": {
          "_0": "int16 the admin right for _admin :      1 : address can only mint tokens       2 : address can mint AND burn tokens "
        }
      },
      "approve(address,uint256)": {
        "details": "Approves another address to transfer the given token ID The zero address indicates there is no approved address. There can only be one approved address per token at a given time. Can only be called by the token owner or an approved operator.",
        "params": {
          "to": "address to be approved for the given token ID",
          "tokenId": "uint256 ID of the token to be approved"
        }
      },
      "balanceOf(address)": {
        "details": "Gets the balance of the specified address",
        "params": {
          "owner": "address to query the balance of"
        },
        "returns": {
          "_0": "uint256 representing the amount owned by the passed address"
        }
      },
      "baseTokenURI()": {
        "details": "Retrieve all NFTs base token uri "
      },
      "batchMintTo(uint256,address)": {
        "details": "Mint several tokens to an address.",
        "params": {
          "_to": "default owner of the new created NFT (reverts if a zero address)",
          "_total": "total number of NFT to mint (reverts if <= 0)"
        }
      },
      "burn(uint256)": {
        "details": "External Burn NFT method"
      },
      "canMint()": {
        "details": "canMint external ",
        "returns": {
          "_0": "bool : truthy if msg.sender has admin rights to mint new tokens"
        }
      },
      "canMintBurn()": {
        "details": "canBurn external",
        "returns": {
          "_0": "bool : truthy if msg.sender has admin rights to mint new tokens and burn existing tokens"
        }
      },
      "getApproved(uint256)": {
        "details": "Gets the approved address for a token ID, or zero if no address set Reverts if the token ID does not exist.",
        "params": {
          "tokenId": "uint256 ID of the token to query the approval of"
        },
        "returns": {
          "_0": "address currently approved for the given token ID"
        }
      },
      "grantMinterBurnerRights(address)": {
        "details": "owner can grant admin access to allow any address to mint new tokens and to burn existing tokensRestricted to CONTRACT OWNER ONLY",
        "params": {
          "_admin": ": address to grant admin minter and burner rights to"
        }
      },
      "grantMinterRights(address)": {
        "details": "owner can grant admin access to allow any address to mint new tokensRestricted to CONTRACT OWNER ONLY",
        "params": {
          "_admin": ": address to grant admin minter rights to"
        }
      },
      "init(string,string,address,string,address)": {
        "details": "Logic code implementation contact constructorMUST be called by deployer only if contract has not been initialized before"
      },
      "isMinter(address)": {
        "details": "verifiy if an address can mint new tokens",
        "params": {
          "_admin": ": the address to verify minting rights of"
        },
        "returns": {
          "_0": "a boolean, truthy when _admin has rights to mint new tokens"
        }
      },
      "isMinterBurner(address)": {
        "details": "verifiy if an address has rights to mint and burn new tokens",
        "params": {
          "_admin": ": the address to verify minter-burner rights of"
        },
        "returns": {
          "_0": "a boolean, truthy when _admin has rights to mint and burn new tokens"
        }
      },
      "mintTo(address)": {
        "details": "Mints a token to an address.",
        "params": {
          "_to": "address of the future owner of the token"
        }
      },
      "name()": {
        "details": "Gets the token name",
        "returns": {
          "_0": "string representing the token name"
        }
      },
      "ownerOf(uint256)": {
        "details": "Gets the owner of the specified token ID",
        "params": {
          "tokenId": "uint256 ID of the token to query the owner of"
        },
        "returns": {
          "_0": "address currently marked as the owner of the given token ID"
        }
      },
      "renounceOwnership()": {
        "details": "Allows the current owner to relinquish control of the contract. It will not be possible to call the functions with the `onlyOwner` modifier anymore."
      },
      "revokeAdminRights(address)": {
        "details": "owner can revoke admin right of any admin addressRestricted to CONTRACT OWNER ONLY",
        "params": {
          "_admin": ": address to revoke admin access to"
        }
      },
      "safeTransferFrom(address,address,uint256)": {
        "details": "Safely transfers the ownership of a given token ID to another address If the target address is a contract, it must implement `onERC721Received`, which is called upon a safe transfer, and return the magic value `bytes4(keccak256(\"onERC721Received(address,address,uint256,bytes)\"))`; otherwise, the transfer is reverted. Requires the msg.sender to be the owner, approved, or operator",
        "params": {
          "from": "current owner of the token",
          "to": "address to receive the ownership of the given token ID",
          "tokenId": "uint256 ID of the token to be transferred"
        }
      },
      "safeTransferFromWithData(address,address,uint256,bytes)": {
        "details": "Safely transfers the ownership of a given token ID to another address If the target address is a contract, it must implement `onERC721Received`, which is called upon a safe transfer, and return the magic value `bytes4(keccak256(\"onERC721Received(address,address,uint256,bytes)\"))`; otherwise, the transfer is reverted. Requires the msg.sender to be the owner, approved, or operator",
        "params": {
          "_data": "bytes data to send along with a safe transfer check",
          "from": "current owner of the token",
          "to": "address to receive the ownership of the given token ID",
          "tokenId": "uint256 ID of the token to be transferred"
        }
      },
      "setApprovalForAll(address,bool)": {
        "details": "Sets or unsets the approval of a given operator An operator is allowed to transfer all tokens of the sender on their behalf",
        "params": {
          "approved": "representing the status of the approval to be set",
          "to": "operator address to set the approval"
        }
      },
      "setBaseTokenURI(string)": {
        "details": "Set the base token uri for all NFTs"
      },
      "supportsInterface(bytes4)": {
        "details": "implement supportsInterface(bytes4) using a lookup table"
      },
      "symbol()": {
        "details": "Gets the token symbol",
        "returns": {
          "_0": "string representing the token symbol"
        }
      },
      "tokenByIndex(uint256)": {
        "details": "Gets the token ID at a given index of all the tokens in this contract Reverts if the index is greater or equal to the total number of tokens",
        "params": {
          "index": "uint256 representing the index to be accessed of the tokens list"
        },
        "returns": {
          "_0": "uint256 token ID at the given index of the tokens list"
        }
      },
      "tokenOfOwnerByIndex(address,uint256)": {
        "details": "Gets the token ID at a given index of the tokens list of the requested owner",
        "params": {
          "index": "uint256 representing the index to be accessed of the requested tokens list",
          "owner": "address owning the tokens list to be accessed"
        },
        "returns": {
          "_0": "uint256 token ID at the given index of the tokens list owned by the requested address"
        }
      },
      "tokenURI(uint256)": {
        "details": "Retrieve the uri of a specific token ",
        "params": {
          "_tokenId": "the id of the token to retrieve the uri of"
        },
        "returns": {
          "_0": "computed uri string pointing to a specific _tokenId"
        }
      },
      "tokensOf(address)": {
        "details": "@notice Non-Standard method to retrieve all NFTs that specific owner owns",
        "returns": {
          "_0": "uint[] containing all NFTs that owner owns"
        }
      },
      "totalSupply()": {
        "details": "Gets the total amount of tokens stored by the contract",
        "returns": {
          "_0": "uint256 representing the total amount of tokens"
        }
      },
      "transferFrom(address,address,uint256)": {
        "details": "Transfers the ownership of a given token ID to another address Usage of this method is discouraged, use `safeTransferFrom` whenever possible Requires the msg.sender to be the owner, approved, or operator",
        "params": {
          "from": "current owner of the token",
          "to": "address to receive the ownership of the given token ID",
          "tokenId": "uint256 ID of the token to be transferred"
        }
      },
      "transferOwnership(address)": {
        "details": "Allows the current owner to transfer control of the contract to a newOwner.",
        "params": {
          "newOwner": "The address to transfer ownership to."
        }
      },
      "updateCode(address)": {
        "details": "EIP-1822 featureRealize an update of the Etherland logic code calls the proxy contract to update stored logic code contract address at keccak256(\"PROXIABLE\")"
      }
    },
    "title": "Etherland NFT Assets"
  },
  "userdoc": {
    "methods": {
      "isApprovedForAll(address,address)": {
        "notice": "Override isApprovedForAll to whitelist user's OpenSea proxy accounts to enable gas-less listings."
      },
      "renounceOwnership()": {
        "notice": "Renouncing ownership will leave the contract without an owner, thereby removing any functionality that is only available to the owner."
      }
    }
  }
}