{
  "contractName": "Etherland",
  "abi": [
    {
      "anonymous": false,
      "inputs": [
        {
          "indexed": true,
          "internalType": "address",
          "name": "newAdmin",
          "type": "address"
        },
        {
          "indexed": false,
          "internalType": "int16",
          "name": "adminRights",
          "type": "int16"
        }
      ],
      "name": "AdminRightsGranted",
      "type": "event"
    },
    {
      "anonymous": false,
      "inputs": [
        {
          "indexed": true,
          "internalType": "address",
          "name": "noAdmin",
          "type": "address"
        }
      ],
      "name": "AdminRightsRevoked",
      "type": "event"
    },
    {
      "anonymous": false,
      "inputs": [
        {
          "indexed": true,
          "internalType": "address",
          "name": "owner",
          "type": "address"
        },
        {
          "indexed": true,
          "internalType": "address",
          "name": "approved",
          "type": "address"
        },
        {
          "indexed": false,
          "internalType": "uint256",
          "name": "tokenId",
          "type": "uint256"
        }
      ],
      "name": "Approval",
      "type": "event"
    },
    {
      "anonymous": false,
      "inputs": [
        {
          "indexed": true,
          "internalType": "address",
          "name": "owner",
          "type": "address"
        },
        {
          "indexed": true,
          "internalType": "address",
          "name": "operator",
          "type": "address"
        },
        {
          "indexed": false,
          "internalType": "bool",
          "name": "approved",
          "type": "bool"
        }
      ],
      "name": "ApprovalForAll",
      "type": "event"
    },
    {
      "anonymous": false,
      "inputs": [
        {
          "indexed": false,
          "internalType": "string",
          "name": "newUri",
          "type": "string"
        }
      ],
      "name": "BaseTokenUriUpdated",
      "type": "event"
    },
    {
      "anonymous": false,
      "inputs": [
        {
          "indexed": true,
          "internalType": "address",
          "name": "previousOwner",
          "type": "address"
        },
        {
          "indexed": true,
          "internalType": "address",
          "name": "newOwner",
          "type": "address"
        }
      ],
      "name": "OwnershipTransferred",
      "type": "event"
    },
    {
      "anonymous": false,
      "inputs": [
        {
          "indexed": true,
          "internalType": "address",
          "name": "from",
          "type": "address"
        },
        {
          "indexed": true,
          "internalType": "address",
          "name": "to",
          "type": "address"
        },
        {
          "indexed": false,
          "internalType": "uint256",
          "name": "tokenId",
          "type": "uint256"
        }
      ],
      "name": "Transfer",
      "type": "event"
    },
    {
      "inputs": [
        {
          "internalType": "address",
          "name": "_admin",
          "type": "address"
        }
      ],
      "name": "adminRightsOf",
      "outputs": [
        {
          "internalType": "int16",
          "name": "",
          "type": "int16"
        }
      ],
      "stateMutability": "view",
      "type": "function"
    },
    {
      "inputs": [
        {
          "internalType": "address",
          "name": "to",
          "type": "address"
        },
        {
          "internalType": "uint256",
          "name": "tokenId",
          "type": "uint256"
        }
      ],
      "name": "approve",
      "outputs": [],
      "stateMutability": "nonpayable",
      "type": "function"
    },
    {
      "inputs": [
        {
          "internalType": "address",
          "name": "owner",
          "type": "address"
        }
      ],
      "name": "balanceOf",
      "outputs": [
        {
          "internalType": "uint256",
          "name": "",
          "type": "uint256"
        }
      ],
      "stateMutability": "view",
      "type": "function"
    },
    {
      "inputs": [
        {
          "internalType": "uint256",
          "name": "_total",
          "type": "uint256"
        },
        {
          "internalType": "address",
          "name": "_to",
          "type": "address"
        }
      ],
      "name": "batchMintTo",
      "outputs": [],
      "stateMutability": "nonpayable",
      "type": "function"
    },
    {
      "inputs": [
        {
          "internalType": "uint256",
          "name": "_tokenId",
          "type": "uint256"
        }
      ],
      "name": "burn",
      "outputs": [],
      "stateMutability": "nonpayable",
      "type": "function"
    },
    {
      "inputs": [],
      "name": "canMint",
      "outputs": [
        {
          "internalType": "bool",
          "name": "",
          "type": "bool"
        }
      ],
      "stateMutability": "view",
      "type": "function"
    },
    {
      "inputs": [],
      "name": "canMintBurn",
      "outputs": [
        {
          "internalType": "bool",
          "name": "",
          "type": "bool"
        }
      ],
      "stateMutability": "view",
      "type": "function"
    },
    {
      "inputs": [
        {
          "internalType": "uint256",
          "name": "tokenId",
          "type": "uint256"
        }
      ],
      "name": "getApproved",
      "outputs": [
        {
          "internalType": "address",
          "name": "",
          "type": "address"
        }
      ],
      "stateMutability": "view",
      "type": "function"
    },
    {
      "inputs": [
        {
          "internalType": "uint256",
          "name": "tokenId",
          "type": "uint256"
        },
        {
          "internalType": "string",
          "name": "docType",
          "type": "string"
        }
      ],
      "name": "getIpfsHash",
      "outputs": [
        {
          "internalType": "string",
          "name": "",
          "type": "string"
        }
      ],
      "stateMutability": "view",
      "type": "function"
    },
    {
      "inputs": [
        {
          "internalType": "address",
          "name": "_admin",
          "type": "address"
        }
      ],
      "name": "grantMinterBurnerRights",
      "outputs": [],
      "stateMutability": "nonpayable",
      "type": "function"
    },
    {
      "inputs": [
        {
          "internalType": "address",
          "name": "_admin",
          "type": "address"
        }
      ],
      "name": "grantMinterRights",
      "outputs": [],
      "stateMutability": "nonpayable",
      "type": "function"
    },
    {
      "inputs": [],
      "name": "initialized",
      "outputs": [
        {
          "internalType": "bool",
          "name": "",
          "type": "bool"
        }
      ],
      "stateMutability": "view",
      "type": "function"
    },
    {
      "inputs": [
        {
          "internalType": "address",
          "name": "owner",
          "type": "address"
        },
        {
          "internalType": "address",
          "name": "operator",
          "type": "address"
        }
      ],
      "name": "isApprovedForAll",
      "outputs": [
        {
          "internalType": "bool",
          "name": "",
          "type": "bool"
        }
      ],
      "stateMutability": "view",
      "type": "function"
    },
    {
      "inputs": [
        {
          "internalType": "address",
          "name": "_admin",
          "type": "address"
        }
      ],
      "name": "isMinter",
      "outputs": [
        {
          "internalType": "bool",
          "name": "",
          "type": "bool"
        }
      ],
      "stateMutability": "view",
      "type": "function"
    },
    {
      "inputs": [
        {
          "internalType": "address",
          "name": "_admin",
          "type": "address"
        }
      ],
      "name": "isMinterBurner",
      "outputs": [
        {
          "internalType": "bool",
          "name": "",
          "type": "bool"
        }
      ],
      "stateMutability": "view",
      "type": "function"
    },
    {
      "inputs": [],
      "name": "isOwner",
      "outputs": [
        {
          "internalType": "bool",
          "name": "",
          "type": "bool"
        }
      ],
      "stateMutability": "view",
      "type": "function"
    },
    {
      "inputs": [
        {
          "internalType": "address",
          "name": "_to",
          "type": "address"
        }
      ],
      "name": "mintTo",
      "outputs": [],
      "stateMutability": "nonpayable",
      "type": "function"
    },
    {
      "inputs": [],
      "name": "name",
      "outputs": [
        {
          "internalType": "string",
          "name": "",
          "type": "string"
        }
      ],
      "stateMutability": "view",
      "type": "function"
    },
    {
      "inputs": [],
      "name": "owner",
      "outputs": [
        {
          "internalType": "address",
          "name": "",
          "type": "address"
        }
      ],
      "stateMutability": "view",
      "type": "function"
    },
    {
      "inputs": [
        {
          "internalType": "uint256",
          "name": "tokenId",
          "type": "uint256"
        }
      ],
      "name": "ownerOf",
      "outputs": [
        {
          "internalType": "address",
          "name": "",
          "type": "address"
        }
      ],
      "stateMutability": "view",
      "type": "function"
    },
    {
      "inputs": [],
      "name": "proxiableUUID",
      "outputs": [
        {
          "internalType": "bytes32",
          "name": "",
          "type": "bytes32"
        }
      ],
      "stateMutability": "pure",
      "type": "function"
    },
    {
      "inputs": [],
      "name": "proxyRegistryAddress",
      "outputs": [
        {
          "internalType": "address",
          "name": "",
          "type": "address"
        }
      ],
      "stateMutability": "view",
      "type": "function"
    },
    {
      "inputs": [
        {
          "internalType": "uint256",
          "name": "tokenId",
          "type": "uint256"
        },
        {
          "internalType": "string",
          "name": "docType",
          "type": "string"
        }
      ],
      "name": "removeIpfsHash",
      "outputs": [],
      "stateMutability": "nonpayable",
      "type": "function"
    },
    {
      "inputs": [],
      "name": "renounceOwnership",
      "outputs": [],
      "stateMutability": "nonpayable",
      "type": "function"
    },
    {
      "inputs": [
        {
          "internalType": "address",
          "name": "_admin",
          "type": "address"
        }
      ],
      "name": "revokeAdminRights",
      "outputs": [],
      "stateMutability": "nonpayable",
      "type": "function"
    },
    {
      "inputs": [
        {
          "internalType": "address",
          "name": "from",
          "type": "address"
        },
        {
          "internalType": "address",
          "name": "to",
          "type": "address"
        },
        {
          "internalType": "uint256",
          "name": "tokenId",
          "type": "uint256"
        }
      ],
      "name": "safeTransferFrom",
      "outputs": [],
      "stateMutability": "nonpayable",
      "type": "function"
    },
    {
      "inputs": [
        {
          "internalType": "address",
          "name": "from",
          "type": "address"
        },
        {
          "internalType": "address",
          "name": "to",
          "type": "address"
        },
        {
          "internalType": "uint256",
          "name": "tokenId",
          "type": "uint256"
        },
        {
          "internalType": "bytes",
          "name": "_data",
          "type": "bytes"
        }
      ],
      "name": "safeTransferFromWithData",
      "outputs": [],
      "stateMutability": "nonpayable",
      "type": "function"
    },
    {
      "inputs": [
        {
          "internalType": "address",
          "name": "to",
          "type": "address"
        },
        {
          "internalType": "bool",
          "name": "approved",
          "type": "bool"
        }
      ],
      "name": "setApprovalForAll",
      "outputs": [],
      "stateMutability": "nonpayable",
      "type": "function"
    },
    {
      "inputs": [
        {
          "internalType": "uint256",
          "name": "tokenId",
          "type": "uint256"
        },
        {
          "internalType": "string",
          "name": "docType",
          "type": "string"
        },
        {
          "internalType": "string",
          "name": "_hash",
          "type": "string"
        }
      ],
      "name": "setIpfsHash",
      "outputs": [],
      "stateMutability": "nonpayable",
      "type": "function"
    },
    {
      "inputs": [
        {
          "internalType": "bytes4",
          "name": "interfaceId",
          "type": "bytes4"
        }
      ],
      "name": "supportsInterface",
      "outputs": [
        {
          "internalType": "bool",
          "name": "",
          "type": "bool"
        }
      ],
      "stateMutability": "view",
      "type": "function"
    },
    {
      "inputs": [],
      "name": "symbol",
      "outputs": [
        {
          "internalType": "string",
          "name": "",
          "type": "string"
        }
      ],
      "stateMutability": "view",
      "type": "function"
    },
    {
      "inputs": [
        {
          "internalType": "uint256",
          "name": "index",
          "type": "uint256"
        }
      ],
      "name": "tokenByIndex",
      "outputs": [
        {
          "internalType": "uint256",
          "name": "",
          "type": "uint256"
        }
      ],
      "stateMutability": "view",
      "type": "function"
    },
    {
      "inputs": [
        {
          "internalType": "address",
          "name": "owner",
          "type": "address"
        },
        {
          "internalType": "uint256",
          "name": "index",
          "type": "uint256"
        }
      ],
      "name": "tokenOfOwnerByIndex",
      "outputs": [
        {
          "internalType": "uint256",
          "name": "",
          "type": "uint256"
        }
      ],
      "stateMutability": "view",
      "type": "function"
    },
    {
      "inputs": [
        {
          "internalType": "address",
          "name": "owner",
          "type": "address"
        }
      ],
      "name": "tokensOf",
      "outputs": [
        {
          "internalType": "uint256[]",
          "name": "",
          "type": "uint256[]"
        }
      ],
      "stateMutability": "view",
      "type": "function"
    },
    {
      "inputs": [],
      "name": "totalSupply",
      "outputs": [
        {
          "internalType": "uint256",
          "name": "",
          "type": "uint256"
        }
      ],
      "stateMutability": "view",
      "type": "function"
    },
    {
      "inputs": [
        {
          "internalType": "address",
          "name": "from",
          "type": "address"
        },
        {
          "internalType": "address",
          "name": "to",
          "type": "address"
        },
        {
          "internalType": "uint256",
          "name": "tokenId",
          "type": "uint256"
        }
      ],
      "name": "transferFrom",
      "outputs": [],
      "stateMutability": "nonpayable",
      "type": "function"
    },
    {
      "inputs": [
        {
          "internalType": "address",
          "name": "newOwner",
          "type": "address"
        }
      ],
      "name": "transferOwnership",
      "outputs": [],
      "stateMutability": "nonpayable",
      "type": "function"
    },
    {
      "inputs": [
        {
          "internalType": "string",
          "name": "_name",
          "type": "string"
        },
        {
          "internalType": "string",
          "name": "_symbol",
          "type": "string"
        },
        {
          "internalType": "address",
          "name": "_proxyRegistryAddress",
          "type": "address"
        },
        {
          "internalType": "string",
          "name": "baseURI",
          "type": "string"
        },
        {
          "internalType": "address",
          "name": "_owner",
          "type": "address"
        }
      ],
      "name": "init",
      "outputs": [],
      "stateMutability": "nonpayable",
      "type": "function"
    },
    {
      "inputs": [],
      "name": "baseTokenURI",
      "outputs": [
        {
          "internalType": "string",
          "name": "",
          "type": "string"
        }
      ],
      "stateMutability": "view",
      "type": "function"
    },
    {
      "inputs": [
        {
          "internalType": "string",
          "name": "uri",
          "type": "string"
        }
      ],
      "name": "setBaseTokenURI",
      "outputs": [],
      "stateMutability": "nonpayable",
      "type": "function"
    },
    {
      "inputs": [
        {
          "internalType": "uint256",
          "name": "_tokenId",
          "type": "uint256"
        }
      ],
      "name": "tokenURI",
      "outputs": [
        {
          "internalType": "string",
          "name": "",
          "type": "string"
        }
      ],
      "stateMutability": "view",
      "type": "function"
    },
    {
      "inputs": [
        {
          "internalType": "address",
          "name": "newCode",
          "type": "address"
        }
      ],
      "name": "updateCode",
      "outputs": [],
      "stateMutability": "nonpayable",
      "type": "function"
    },
    {
      "inputs": [
        {
          "internalType": "address",
          "name": "_to",
          "type": "address"
        },
        {
          "internalType": "string",
          "name": "docType",
          "type": "string"
        },
        {
          "internalType": "string",
          "name": "_hash",
          "type": "string"
        }
      ],
      "name": "mintWithIpfsHash",
      "outputs": [],
      "stateMutability": "nonpayable",
      "type": "function"
    }
  ],
  "bytecode": "0x608060405260006004556012805460ff1916905534801561001f57600080fd5b506132c48061002f6000396000f3fe608060405234801561001057600080fd5b50600436106102695760003560e01c806360a11672116101515780639adfecf9116100c3578063c87b56dd11610087578063c87b56dd14610c3c578063cd7c032614610c59578063d547cfb714610c61578063e985e9c514610c69578063f2fde38b14610c97578063faa0650b14610cbd57610269565b80639adfecf914610b7b578063a22cb46514610bba578063a2e4d23914610be8578063aa271e1a14610c0e578063beb9716d14610c3457610269565b8063715018a611610115578063715018a614610b09578063755edd1714610b115780638d0f5b7014610b375780638da5cb5b14610b635780638f32d59b14610b6b57806395d89b4114610b7357610269565b806360a11672146108a35780636352211e1461096757806368afee9b146109845780636a68119014610abd57806370a0823114610ae357610269565b80632f745c59116101ea57806342966c68116101ae57806342966c681461071a57806346951954146107375780634f6ccce71461075d57806352d1902d1461077a578063598b34aa146107825780635a3f26721461082d57610269565b80632f745c591461054357806330176e131461056f5780633b25f6a01461061357806342679683146106be57806342842e0e146106e457610269565b8063158ef93e11610231578063158ef93e146103b357806318160ddd146103bb5780631f6eeb68146103d557806323b872dd146103dd5780632a4b48ed1461041357610269565b806301ffc9a71461026e57806305d52d09146102a957806306fdde03146102d1578063081812fc1461034e578063095ea7b314610387575b600080fd5b6102956004803603602081101561028457600080fd5b50356001600160e01b031916610e87565b604080519115158252519081900360200190f35b6102cf600480360360208110156102bf57600080fd5b50356001600160a01b0316610eaa565b005b6102d9610f98565b6040805160208082528351818301528351919283929083019185019080838360005b838110156103135781810151838201526020016102fb565b50505050905090810190601f1680156103405780820380516001836020036101000a031916815260200191505b509250505060405180910390f35b61036b6004803603602081101561036457600080fd5b503561102f565b604080516001600160a01b039092168252519081900360200190f35b6102cf6004803603604081101561039d57600080fd5b506001600160a01b03813516906020013561109f565b6102956111d7565b6103c36111e0565b60408051918252519081900360200190f35b6102956111e6565b6102cf600480360360608110156103f357600080fd5b506001600160a01b038135811691602081013590911690604001356111f6565b6102cf6004803603606081101561042957600080fd5b81359190810190604081016020820135600160201b81111561044a57600080fd5b82018360208201111561045c57600080fd5b803590602001918460018302840111600160201b8311171561047d57600080fd5b91908080601f0160208091040260200160405190810160405280939291908181526020018383808284376000920191909152509295949360208101935035915050600160201b8111156104cf57600080fd5b8201836020820111156104e157600080fd5b803590602001918460018302840111600160201b8311171561050257600080fd5b91908080601f016020809104026020016040519081016040528093929190818152602001838380828437600092019190915250929550611261945050505050565b6103c36004803603604081101561055957600080fd5b506001600160a01b038135169060200135611388565b6102cf6004803603602081101561058557600080fd5b810190602081018135600160201b81111561059f57600080fd5b8201836020820111156105b157600080fd5b803590602001918460018302840111600160201b831117156105d257600080fd5b91908080601f016020809104026020016040519081016040528093929190818152602001838380828437600092019190915250929550611412945050505050565b6102d96004803603604081101561062957600080fd5b81359190810190604081016020820135600160201b81111561064a57600080fd5b82018360208201111561065c57600080fd5b803590602001918460018302840111600160201b8311171561067d57600080fd5b91908080601f016020809104026020016040519081016040528093929190818152602001838380828437600092019190915250929550611511945050505050565b610295600480360360208110156106d457600080fd5b50356001600160a01b0316611617565b6102cf600480360360608110156106fa57600080fd5b506001600160a01b0381358116916020810135909116906040013561166b565b6102cf6004803603602081101561073057600080fd5b5035611686565b6102cf6004803603602081101561074d57600080fd5b50356001600160a01b03166116eb565b6103c36004803603602081101561077357600080fd5b5035611743565b6103c36117b3565b6102cf6004803603604081101561079857600080fd5b81359190810190604081016020820135600160201b8111156107b957600080fd5b8201836020820111156107cb57600080fd5b803590602001918460018302840111600160201b831117156107ec57600080fd5b91908080601f0160208091040260200160405190810160405280939291908181526020018383808284376000920191909152509295506117d7945050505050565b6108536004803603602081101561084357600080fd5b50356001600160a01b03166118c4565b60408051602080825283518183015283519192839290830191858101910280838360005b8381101561088f578181015183820152602001610877565b505050509050019250505060405180910390f35b6102cf600480360360808110156108b957600080fd5b6001600160a01b03823581169260208101359091169160408201359190810190608081016060820135600160201b8111156108f357600080fd5b82018360208201111561090557600080fd5b803590602001918460018302840111600160201b8311171561092657600080fd5b91908080601f016020809104026020016040519081016040528093929190818152602001838380828437600092019190915250929550611925945050505050565b61036b6004803603602081101561097d57600080fd5b5035611984565b6102cf6004803603606081101561099a57600080fd5b6001600160a01b038235169190810190604081016020820135600160201b8111156109c457600080fd5b8201836020820111156109d657600080fd5b803590602001918460018302840111600160201b831117156109f757600080fd5b91908080601f0160208091040260200160405190810160405280939291908181526020018383808284376000920191909152509295949360208101935035915050600160201b811115610a4957600080fd5b820183602082011115610a5b57600080fd5b803590602001918460018302840111600160201b83111715610a7c57600080fd5b91908080601f0160208091040260200160405190810160405280939291908181526020018383808284376000920191909152509295506119ea945050505050565b6102cf60048036036020811015610ad357600080fd5b50356001600160a01b0316611a47565b6103c360048036036020811015610af957600080fd5b50356001600160a01b0316611b4a565b6102cf611bc4565b6102cf60048036036020811015610b2757600080fd5b50356001600160a01b0316611c5d565b6102cf60048036036040811015610b4d57600080fd5b50803590602001356001600160a01b0316611d1c565b61036b611dcb565b610295611dda565b6102d9611deb565b610ba160048036036020811015610b9157600080fd5b50356001600160a01b0316611e4b565b60408051600192830b90920b8252519081900360200190f35b6102cf60048036036040811015610bd057600080fd5b506001600160a01b0381351690602001351515611e98565b6102cf60048036036020811015610bfe57600080fd5b50356001600160a01b0316611f5e565b61029560048036036020811015610c2457600080fd5b50356001600160a01b0316612061565b6102956120b3565b6102d960048036036020811015610c5257600080fd5b50356120be565b61036b6120d9565b6102d96120e8565b61029560048036036040811015610c7f57600080fd5b506001600160a01b0381358116916020013516612146565b6102cf60048036036020811015610cad57600080fd5b50356001600160a01b03166121f1565b6102cf600480360360a0811015610cd357600080fd5b810190602081018135600160201b811115610ced57600080fd5b820183602082011115610cff57600080fd5b803590602001918460018302840111600160201b83111715610d2057600080fd5b91908080601f0160208091040260200160405190810160405280939291908181526020018383808284376000920191909152509295949360208101935035915050600160201b811115610d7257600080fd5b820183602082011115610d8457600080fd5b803590602001918460018302840111600160201b83111715610da557600080fd5b91908080601f01602080910402602001604051908101604052809392919081815260200183838082843760009201919091525092956001600160a01b03853516959094909350604081019250602001359050600160201b811115610e0857600080fd5b820183602082011115610e1a57600080fd5b803590602001918460018302840111600160201b83111715610e3b57600080fd5b91908080601f016020809104026020016040519081016040528093929190818152602001838380828437600092019190915250929550505090356001600160a01b031691506122499050565b6001600160e01b0319811660009081526006602052604090205460ff165b919050565b610eb2611dda565b610ef9576040805162461bcd60e51b815260206004820152601360248201527239b2b73232b91034b9903737ba1037bbb732b960691b604482015290519081900360640190fd5b806001600160a01b038116610f4d576040805162461bcd60e51b8152602060048201526015602482015274696e76616c69642061646d696e206164647265737360581b604482015290519081900360640190fd5b6001600160a01b038216600081815260106020526040808220805461ffff19169055517f75063598bb424244ef6461ff8e1e0a1836998c3c84ef9e591015fbe8d94fa71f9190a25050565b60008054604080516020601f60026000196101006001881615020190951694909404938401819004810282018101909252828152606093909290918301828280156110245780601f10610ff957610100808354040283529160200191611024565b820191906000526020600020905b81548152906001019060200180831161100757829003601f168201915b505050505090505b90565b600061103a826122d4565b611083576040805162461bcd60e51b81526020600482015260156024820152741d1bdad95b925108191bd95cdb89dd08195e1a5cdd605a1b604482015290519081900360640190fd5b506000908152600860205260409020546001600160a01b031690565b60006110aa82611984565b9050806001600160a01b0316836001600160a01b0316141561110d576040805162461bcd60e51b815260206004820152601760248201527631b0b73737ba1030b8383937bb32903cb7bab939b2b63360491b604482015290519081900360640190fd5b336001600160a01b038216148061112957506111298133612146565b61116e576040805162461bcd60e51b81526020600482015260116024820152701c195c9b5a5cdcda5bdb8819195b9a5959607a1b604482015290519081900360640190fd5b60008281526008602090815260409182902080546001600160a01b0319166001600160a01b03878116918217909255835186815293519093918516927f8c5be1e5ebec7d5bd14f71427d1e84f3dd0314c0f7b2291e5b200ac8c7c3b925928290030190a3505050565b60125460ff1681565b60055490565b60006111f133611617565b905090565b61120033826122f1565b611251576040805162461bcd60e51b815260206004820152601760248201527f7370656e646572206973206e6f7420617070726f766564000000000000000000604482015290519081900360640190fd5b61125c838383612348565b505050565b6112696120b3565b6112a8576040805162461bcd60e51b8152602060048201819052602482015260008051602061326f833981519152604482015290519081900360640190fd5b600083116112fd576040805162461bcd60e51b815260206004820181905260248201527f64656e696564203a20746f6b656e207a65726f2063616e742062652075736564604482015290519081900360640190fd5b8060116000858152602001908152602001600020836040518082805190602001908083835b602083106113415780518252601f199092019160209182019101611322565b51815160209384036101000a6000190180199092169116179052920194855250604051938490038101909320845161138295919491909101925090506131d6565b50505050565b600061139383611b4a565b82106113da576040805162461bcd60e51b81526020600482015260116024820152700d2dcc8caf040d2e640e8dede40d0d2ced607b1b604482015290519081900360640190fd5b6001600160a01b0383166000908152600c602052604090208054839081106113fe57fe5b906000526020600020015490505b92915050565b61141a611dda565b611461576040805162461bcd60e51b815260206004820152601360248201527239b2b73232b91034b9903737ba1037bbb732b960691b604482015290519081900360640190fd5b80516114749060029060208401906131d6565b507fe0b4aa3a614e11365fec002edc82449b5849402d025b31c4770f0e270286e690816040518080602001828103825283818151815260200191508051906020019080838360005b838110156114d45781810151838201526020016114bc565b50505050905090810190601f1680156115015780820380516001836020036101000a031916815260200191505b509250505060405180910390a150565b606060116000848152602001908152602001600020826040518082805190602001908083835b602083106115565780518252601f199092019160209182019101611537565b518151600019602094850361010090810a820192831692199390931691909117909252949092019687526040805197889003820188208054601f600260018316159098029095011695909504928301829004820288018201905281875292945092505083018282801561160a5780601f106115df5761010080835404028352916020019161160a565b820191906000526020600020905b8154815290600101906020018083116115ed57829003601f168201915b5050505050905092915050565b6000611621611dcb565b6001600160a01b0316826001600160a01b0316141561164257506001610ea5565b506001600160a01b038116600090815260106020526040902054600190810b900b600214610ea5565b61125c83838360405180602001604052806000815250611925565b61168e6111e6565b6116df576040805162461bcd60e51b815260206004820181905260248201527f64656e696564203a206e6f2061646d696e206275726e696e6720726967687473604482015290519081900360640190fd5b6116e881612367565b50565b6116f3611dda565b61173a576040805162461bcd60e51b815260206004820152601360248201527239b2b73232b91034b9903737ba1037bbb732b960691b604482015290519081900360640190fd5b6116e881612379565b600061174d6111e0565b8210611794576040805162461bcd60e51b81526020600482015260116024820152700d2dcc8caf040d2e640e8dede40d0d2ced607b1b604482015290519081900360640190fd5b600582815481106117a157fe5b90600052602060002001549050919050565b7fc5f16f0fcc639fa48a6947836d9850f504798523bf8c9a3a87d5876cf622bcf790565b6117df6111e6565b611830576040805162461bcd60e51b815260206004820181905260248201527f64656e696564203a206e6f2061646d696e206275726e696e6720726967687473604482015290519081900360640190fd5b6040518060200160405280600081525060116000848152602001908152602001600020826040518082805190602001908083835b602083106118835780518252601f199092019160209182019101611864565b51815160209384036101000a6000190180199092169116179052920194855250604051938490038101909320845161125c95919491909101925090506131d6565b60606118cf82612466565b80548060200260200160405190810160405280929190818152602001828054801561191957602002820191906000526020600020905b815481526020019060010190808311611905575b50505050509050919050565b6119308484846111f6565b61193c84848484612480565b611382576040805162461bcd60e51b81526020600482015260146024820152736461746120636865636b206973206e6f74206f6b60601b604482015290519081900360640190fd5b6000818152600760205260408120546001600160a01b03168061140c576040805162461bcd60e51b815260206004820152601960248201527806f776e65722063616e6e6f742062652061646472657373203603c1b604482015290519081900360640190fd5b6119f26120b3565b611a31576040805162461bcd60e51b8152602060048201819052602482015260008051602061326f833981519152604482015290519081900360640190fd5b611a3a83611c5d565b61125c6004548383611261565b611a4f611dda565b611a96576040805162461bcd60e51b815260206004820152601360248201527239b2b73232b91034b9903737ba1037bbb732b960691b604482015290519081900360640190fd5b806001600160a01b038116611aea576040805162461bcd60e51b8152602060048201526015602482015274696e76616c69642061646d696e206164647265737360581b604482015290519081900360640190fd5b6001600160a01b038216600081815260106020908152604091829020805461ffff19166001908117909155825190815291517fc9650477e67b3b00a3cf84fb7f5e1c3c95d7271a855253a09dde0a403695a3679281900390910190a25050565b60006001600160a01b038216611ba3576040805162461bcd60e51b815260206004820152601960248201527806f776e65722063616e6e6f742062652061646472657373203603c1b604482015290519081900360640190fd5b6001600160a01b038216600090815260096020526040902061140c906125b3565b611bcc611dda565b611c13576040805162461bcd60e51b815260206004820152601360248201527239b2b73232b91034b9903737ba1037bbb732b960691b604482015290519081900360640190fd5b600f546040516000916001600160a01b0316907f8be0079c531659141344cd1fd0a4f28419497f9722a3daafe3b4186f6b6457e0908390a3600f80546001600160a01b0319169055565b611c656120b3565b611ca4576040805162461bcd60e51b8152602060048201819052602482015260008051602061326f833981519152604482015290519081900360640190fd5b6001600160a01b038116611cfa576040805162461bcd60e51b8152602060048201526018602482015277063616e6e6f74206d696e7420746f206164647265737320360441b604482015290519081900360640190fd5b6000611d046125b7565b9050611d1082826125ce565b611d186125eb565b5050565b611d246120b3565b611d63576040805162461bcd60e51b8152602060048201819052602482015260008051602061326f833981519152604482015290519081900360640190fd5b60008211611daf576040805162461bcd60e51b815260206004820152601460248201527336b4b73a1036b4b734b6bab69018903a37b5b2b760611b604482015290519081900360640190fd5b60005b8281101561125c57611dc382611c5d565b600101611db2565b600f546001600160a01b031690565b600f546001600160a01b0316331490565b60018054604080516020601f600260001961010087891615020190951694909404938401819004810282018101909252828152606093909290918301828280156110245780601f10610ff957610100808354040283529160200191611024565b6000611e55611dcb565b6001600160a01b0316826001600160a01b03161415611e7657506002610ea5565b506001600160a01b03811660009081526010602052604090205460010b610ea5565b6001600160a01b038216331415611ef0576040805162461bcd60e51b815260206004820152601760248201527631b0b73737ba1030b8383937bb32903cb7bab939b2b63360491b604482015290519081900360640190fd5b336000818152600a602090815260408083206001600160a01b03871680855290835292819020805460ff1916861515908117909155815190815290519293927f17307eab39ab6107e8899845ad3d59bd9653f200f220920489ca2b5937696c31929181900390910190a35050565b611f66611dda565b611fad576040805162461bcd60e51b815260206004820152601360248201527239b2b73232b91034b9903737ba1037bbb732b960691b604482015290519081900360640190fd5b806001600160a01b038116612001576040805162461bcd60e51b8152602060048201526015602482015274696e76616c69642061646d696e206164647265737360581b604482015290519081900360640190fd5b6001600160a01b038216600081815260106020908152604091829020805461ffff19166002908117909155825190815291517fc9650477e67b3b00a3cf84fb7f5e1c3c95d7271a855253a09dde0a403695a3679281900390910190a25050565b600061206b611dcb565b6001600160a01b0316826001600160a01b0316141561208c57506001610ea5565b506001600160a01b038116600090815260106020526040812054600190810b900b13610ea5565b60006111f133612061565b606061140c6120cb6120e8565b6120d4846125f6565b6126b7565b6003546001600160a01b031681565b60028054604080516020601f60001961010060018716150201909416859004938401819004810282018101909252828152606093909290918301828280156110245780601f10610ff957610100808354040283529160200191611024565b6003546040805163c455279160e01b81526001600160a01b0385811660048301529151600093831692851691839163c455279191602480820192602092909190829003018186803b15801561219a57600080fd5b505afa1580156121ae573d6000803e3d6000fd5b505050506040513d60208110156121c457600080fd5b50516001600160a01b031614156121df57600191505061140c565b6121e984846126fa565b949350505050565b6121f9611dda565b612240576040805162461bcd60e51b815260206004820152601360248201527239b2b73232b91034b9903737ba1037bbb732b960691b604482015290519081900360640190fd5b6116e881612728565b60125460ff1615156001146122cd576012805460ff191660011790556122708585856127df565b81516122839060029060208501906131d6565b506122946301ffc9a760e01b61280d565b6122a4635b5e139f60e01b61280d565b6122b463780e9d6360e01b61280d565b6122c46380ac58cd60e01b61280d565b6122cd81612728565b5050505050565b6000908152600760205260409020546001600160a01b0316151590565b6000806122fd83611984565b9050806001600160a01b0316846001600160a01b031614806123385750836001600160a01b031661232d8461102f565b6001600160a01b0316145b806121e957506121e98185612146565b612353838383612881565b61235d83826129fe565b61125c8282612b00565b6116e861237382611984565b82612b3e565b806001600160a01b03166352d1902d6040518163ffffffff1660e01b815260040160206040518083038186803b1580156123b257600080fd5b505afa1580156123c6573d6000803e3d6000fd5b505050506040513d60208110156123dc57600080fd5b50517fc5f16f0fcc639fa48a6947836d9850f504798523bf8c9a3a87d5876cf622bcf714612442576040805162461bcd60e51b815260206004820152600e60248201526d4e6f7420636f6d70617469626c6560901b604482015290519081900360640190fd5b7fc5f16f0fcc639fa48a6947836d9850f504798523bf8c9a3a87d5876cf622bcf755565b6001600160a01b03166000908152600c6020526040902090565b6000612494846001600160a01b0316612b6a565b6124a0575060016121e9565b604051630a85bd0160e11b815233600482018181526001600160a01b03888116602485015260448401879052608060648501908152865160848601528651600095928a169463150b7a029490938c938b938b939260a4019060208501908083838e5b8381101561251a578181015183820152602001612502565b50505050905090810190601f1680156125475780820380516001836020036101000a031916815260200191505b5095505050505050602060405180830381600087803b15801561256957600080fd5b505af115801561257d573d6000803e3d6000fd5b505050506040513d602081101561259357600080fd5b50516001600160e01b031916630a85bd0160e11b14915050949350505050565b5490565b6004546000906111f190600163ffffffff612b7016565b6125d88282612bca565b6125e28282612b00565b611d1881612cf6565b600480546001019055565b60608161261b57506040805180820190915260018152600360fc1b6020820152610ea5565b8160005b811561263357600101600a8204915061261f565b6060816040519080825280601f01601f191660200182016040528015612660576020820181803883390190505b50905060001982015b85156126ae57600a860660300160f81b8282806001900393508151811061268c57fe5b60200101906001600160f81b031916908160001a905350600a86049550612669565b50949350505050565b60606126f38383604051806020016040528060008152506040518060200160405280600081525060405180602001604052806000815250612d3a565b9392505050565b6001600160a01b039182166000908152600a6020908152604080832093909416825291909152205460ff1690565b6001600160a01b038116612783576040805162461bcd60e51b815260206004820152601d60248201527f6e6577206f776e65722063616e6e6f7420626520616464726573732030000000604482015290519081900360640190fd5b600f546040516001600160a01b038084169216907f8be0079c531659141344cd1fd0a4f28419497f9722a3daafe3b4186f6b6457e090600090a3600f80546001600160a01b0319166001600160a01b0392909216919091179055565b6127e98383612f4e565b600380546001600160a01b0319166001600160a01b03929092169190911790555050565b6001600160e01b0319808216141561285c576040805162461bcd60e51b815260206004820152600d60248201526c62616420696e7465726661636560981b604482015290519081900360640190fd5b6001600160e01b0319166000908152600660205260409020805460ff19166001179055565b826001600160a01b031661289482611984565b6001600160a01b0316146128ef576040805162461bcd60e51b815260206004820181905260248201527f73656e646572206973206e6f74206f776e6572206f662074686520746f6b656e604482015290519081900360640190fd5b6001600160a01b03821661294a576040805162461bcd60e51b815260206004820152601860248201527f63616e6e6f742073656e6420746f203020616464726573730000000000000000604482015290519081900360640190fd5b61295381612f75565b6001600160a01b038316600090815260096020526040902061297490612fb0565b6001600160a01b038216600090815260096020526040902061299590612fc7565b60008181526007602090815260409182902080546001600160a01b0319166001600160a01b03868116918217909255835185815293519093918716927fddf252ad1be2c89b69c2b068fc378daa952ba7f163c4a11628f55a4df523b3ef928290030190a3505050565b6001600160a01b0382166000908152600c6020526040812054612a2890600163ffffffff612fd016565b6000838152600d6020526040902054909150808214612ac3576001600160a01b0384166000908152600c60205260408120805484908110612a6557fe5b9060005260206000200154905080600c6000876001600160a01b03166001600160a01b031681526020019081526020016000208381548110612aa357fe5b6000918252602080832090910192909255918252600d9052604090208190555b6001600160a01b0384166000908152600c60205260409020805480612ae457fe5b6001900381819060005260206000200160009055905550505050565b6001600160a01b039091166000908152600c602081815260408084208054868652600d84529185208290559282526001810183559183529091200155565b612b48828261302d565b612b5282826129fe565b6000818152600d6020526040812055611d1881613122565b3b151590565b6000828201838110156126f3576040805162461bcd60e51b815260206004820181905260248201527f626f7468206e756d62657273206861766520746f20626520706f736974697665604482015290519081900360640190fd5b6001600160a01b038216612c20576040805162461bcd60e51b8152602060048201526018602482015277063616e6e6f74206d696e7420746f206164647265737320360441b604482015290519081900360640190fd5b612c29816122d4565b15612c72576040805162461bcd60e51b8152602060048201526014602482015273746f6b656e20616c72656164792065786973747360601b604482015290519081900360640190fd5b600081815260076020908152604080832080546001600160a01b0319166001600160a01b038716908117909155835260099091529020612cb190612fc7565b6040805182815290516001600160a01b038416916000917fddf252ad1be2c89b69c2b068fc378daa952ba7f163c4a11628f55a4df523b3ef9181900360200190a35050565b600580546000838152600e60205260408120829055600182018355919091527f036b6384b5eca791c62761152d0c79bb0604c104a5fb6f4eb0703f3154bb3db00155565b6060808690506060869050606086905060608690506060869050606081518351855187518951010101016040519080825280601f01601f191660200182016040528015612d8e576020820181803883390190505b509050806000805b8851811015612de757888181518110612dab57fe5b602001015160f81c60f81b838380600101945081518110612dc857fe5b60200101906001600160f81b031916908160001a905350600101612d96565b5060005b8751811015612e3c57878181518110612e0057fe5b602001015160f81c60f81b838380600101945081518110612e1d57fe5b60200101906001600160f81b031916908160001a905350600101612deb565b5060005b8651811015612e9157868181518110612e5557fe5b602001015160f81c60f81b838380600101945081518110612e7257fe5b60200101906001600160f81b031916908160001a905350600101612e40565b5060005b8551811015612ee657858181518110612eaa57fe5b602001015160f81c60f81b838380600101945081518110612ec757fe5b60200101906001600160f81b031916908160001a905350600101612e95565b5060005b8451811015612f3b57848181518110612eff57fe5b602001015160f81c60f81b838380600101945081518110612f1c57fe5b60200101906001600160f81b031916908160001a905350600101612eea565b50909d9c50505050505050505050505050565b8151612f619060009060208501906131d6565b50805161125c9060019060208401906131d6565b6000818152600860205260409020546001600160a01b0316156116e857600090815260086020526040902080546001600160a01b0319169055565b8054612fc390600163ffffffff612fd016565b9055565b80546001019055565b600082821115613027576040805162461bcd60e51b815260206004820152601d60248201527f726573756c742063616e6e6f74206265206c6f776572207468616e2030000000604482015290519081900360640190fd5b50900390565b816001600160a01b031661304082611984565b6001600160a01b03161461309b576040805162461bcd60e51b815260206004820152601f60248201527f61646472657373206973206e6f74206f776e6572206f6620746f6b656e494400604482015290519081900360640190fd5b6130a481612f75565b6001600160a01b03821660009081526009602052604090206130c590612fb0565b600081815260076020908152604080832080546001600160a01b0319169055805184815290516001600160a01b038616927fddf252ad1be2c89b69c2b068fc378daa952ba7f163c4a11628f55a4df523b3ef928290030190a35050565b60055460009061313990600163ffffffff612fd016565b6000838152600e60205260408120546005805493945090928490811061315b57fe5b90600052602060002001549050806005838154811061317657fe5b6000918252602080832090910192909255828152600e9091526040902082905560058054806131a157fe5b600190038181906000526020600020016000905590556000600e60008681526020019081526020016000208190555050505050565b828054600181600116156101000203166002900490600052602060002090601f016020900481019282601f1061321757805160ff1916838001178555613244565b82800160010185558215613244579182015b82811115613244578251825591602001919060010190613229565b50613250929150613254565b5090565b61102c91905b80821115613250576000815560010161325a56fe64656e696564203a206e6f2061646d696e206d696e74696e6720726967687473a26469706673582212206704363571e345380667e8d1842009e3e9ac55dcdeb93ffb507cd3ae79c4503464736f6c63430006020033",
  "source": "// SPDX-License-Identifier: UNLICENSED\n/**\n * @author Mathieu Lecoq\n * september 3rd 2020 \n *\n * @dev Property\n * all rights are reserved to EtherLand ltd\n *\n * @dev deployed with compiler version 0.6.2\n */\npragma solidity 0.6.2;\n\nimport \"./TradeableERC721Token.sol\";\nimport \"./IpfsHashs.sol\";\nimport \"./ERC1822/Proxiable.sol\";\n\n/**\n* @title Etherland NFT Assets\n*/\ncontract Etherland is TradeableERC721Token, IpfsHashs, Proxiable {\n    /**\n    * @dev initialized state MUST remain set to false on Implementation Contract \n    */\n    bool public initialized = false;\n\n    /**\n    * @dev event emitting when the `_baseTokenUri` is updated by owner\n    */\n    event BaseTokenUriUpdated(string newUri);\n\n    /**\n    * @dev Logic code implementation contact constructor\n    * @dev MUST be called by deployer only if contract has not been initialized before\n    */\n    function init(\n        string memory _name,\n        string memory _symbol,\n        address _proxyRegistryAddress,\n        string memory baseURI,\n        address _owner\n    ) public {\n        if (initialized != true) {\n            initialized = true;\n\n            TradeableERC721Token.init(_name, _symbol, _proxyRegistryAddress);\n\n            _baseTokenURI = baseURI;\n\n            // register the supported interfaces to conform to ERC721 via ERC165\n            _registerInterface(_INTERFACE_ID_ERC165);\n            _registerInterface(_INTERFACE_ID_ERC721_METADATA);\n            _registerInterface(_INTERFACE_ID_ERC721_ENUMERABLE);\n            _registerInterface(_INTERFACE_ID_ERC721);\n\n            _transferOwnership(_owner);\n        }\n    }\n\n    /**\n    * @dev Retrieve all NFTs base token uri \n    */\n    function baseTokenURI() public view returns (string memory) {\n        return _baseTokenURI;\n    }\n\n    /**\n    * @dev Set the base token uri for all NFTs\n    */\n    function setBaseTokenURI(string memory uri) public onlyOwner {\n        _baseTokenURI = uri;\n        emit BaseTokenUriUpdated(uri);\n    }\n\n    /**\n    * @dev Retrieve the uri of a specific token \n    * @param _tokenId the id of the token to retrieve the uri of\n    * @return computed uri string pointing to a specific _tokenId\n    */\n    function tokenURI(uint256 _tokenId) external view returns (string memory) {\n        return Strings.strConcat(\n            baseTokenURI(),\n            Strings.uint2str(_tokenId)\n        );\n    }\n\n    /**\n    * @dev EIP-1822 feature\n    * @dev Realize an update of the Etherland logic code \n    * @dev calls the proxy contract to update stored logic code contract address at keccak256(\"PROXIABLE\")\n    */\n    function updateCode(address newCode) public onlyOwner {\n        updateCodeAddress(newCode);\n    }\n\n    /**\n    * @dev Mint a new token with document hash corresponding to an IPFS CID\n    * @param _to address of the future owner of the token\n    * @param docType string representing the type of document that is stored to IPFS (can be \"pdf\" or any other token related document)\n    * @param _hash string representing the hash of a document with type equals to `docType`\n    */\n    function mintWithIpfsHash(address _to, string memory docType, string memory _hash) public onlyMinter {\n        mintTo(_to);\n        setIpfsHash(_currentTokenId, docType, _hash);\n    }\n\n}\n",
  "sourcePath": "/Users/proapps/Documents/Mat/Apps/Etherland/ERC721/contracts/Etherland.sol",
  "compiler": {
    "name": "solc",
    "version": "0.6.2+commit.bacdbe57.Emscripten.clang"
  },
  "schemaVersion": "3.3.2",
  "updatedAt": "2020-12-02T19:50:26.230Z",
  "networkType": "ethereum",
  "devdoc": {
    "methods": {
      "adminRightsOf(address)": {
        "details": "know if an address has admin rights and its type of rights",
        "params": {
          "_admin": "the address to find admin rights of"
        },
        "returns": {
          "_0": "int16 the admin right for _admin :      1 : address can only mint tokens       2 : address can mint AND burn tokens "
        }
      },
      "approve(address,uint256)": {
        "details": "Approves another address to transfer the given token ID The zero address indicates there is no approved address. There can only be one approved address per token at a given time. Can only be called by the token owner or an approved operator.",
        "params": {
          "to": "address to be approved for the given token ID",
          "tokenId": "uint256 ID of the token to be approved"
        }
      },
      "balanceOf(address)": {
        "details": "Gets the balance of the specified address",
        "params": {
          "owner": "address to query the balance of"
        },
        "returns": {
          "_0": "uint256 representing the amount owned by the passed address"
        }
      },
      "baseTokenURI()": {
        "details": "Retrieve all NFTs base token uri "
      },
      "batchMintTo(uint256,address)": {
        "details": "Mint several tokens to an address.",
        "params": {
          "_to": "default owner of the new created NFT (reverts if a zero address)",
          "_total": "total number of NFT to mint (reverts if <= 0)"
        }
      },
      "burn(uint256)": {
        "details": "External Burn NFT method"
      },
      "canMint()": {
        "details": "canMint external ",
        "returns": {
          "_0": "bool : truthy if msg.sender has admin rights to mint new tokens"
        }
      },
      "canMintBurn()": {
        "details": "canBurn external",
        "returns": {
          "_0": "bool : truthy if msg.sender has admin rights to mint new tokens and burn existing tokens"
        }
      },
      "getApproved(uint256)": {
        "details": "Gets the approved address for a token ID, or zero if no address set Reverts if the token ID does not exist.",
        "params": {
          "tokenId": "uint256 ID of the token to query the approval of"
        },
        "returns": {
          "_0": "address currently approved for the given token ID"
        }
      },
      "grantMinterBurnerRights(address)": {
        "details": "owner can grant admin access to allow any address to mint new tokens and to burn existing tokensRestricted to CONTRACT OWNER ONLY",
        "params": {
          "_admin": ": address to grant admin minter and burner rights to"
        }
      },
      "grantMinterRights(address)": {
        "details": "owner can grant admin access to allow any address to mint new tokensRestricted to CONTRACT OWNER ONLY",
        "params": {
          "_admin": ": address to grant admin minter rights to"
        }
      },
      "init(string,string,address,string,address)": {
        "details": "Logic code implementation contact constructorMUST be called by deployer only if contract has not been initialized before"
      },
      "isMinter(address)": {
        "details": "verifiy if an address can mint new tokens",
        "params": {
          "_admin": ": the address to verify minting rights of"
        },
        "returns": {
          "_0": "a boolean, truthy when _admin has rights to mint new tokens"
        }
      },
      "isMinterBurner(address)": {
        "details": "verifiy if an address has rights to mint and burn new tokens",
        "params": {
          "_admin": ": the address to verify minter-burner rights of"
        },
        "returns": {
          "_0": "a boolean, truthy when _admin has rights to mint and burn new tokens"
        }
      },
      "mintTo(address)": {
        "details": "Mints a token to an address.",
        "params": {
          "_to": "address of the future owner of the token"
        }
      },
      "mintWithIpfsHash(address,string,string)": {
        "details": "Mint a new token with document hash corresponding to an IPFS CID",
        "params": {
          "_hash": "string representing the hash of a document with type equals to `docType`",
          "_to": "address of the future owner of the token",
          "docType": "string representing the type of document that is stored to IPFS (can be \"pdf\" or any other token related document)"
        }
      },
      "name()": {
        "details": "Gets the token name",
        "returns": {
          "_0": "string representing the token name"
        }
      },
      "ownerOf(uint256)": {
        "details": "Gets the owner of the specified token ID",
        "params": {
          "tokenId": "uint256 ID of the token to query the owner of"
        },
        "returns": {
          "_0": "address currently marked as the owner of the given token ID"
        }
      },
      "renounceOwnership()": {
        "details": "Allows the current owner to relinquish control of the contract. It will not be possible to call the functions with the `onlyOwner` modifier anymore."
      },
      "revokeAdminRights(address)": {
        "details": "owner can revoke admin right of any admin addressRestricted to CONTRACT OWNER ONLY",
        "params": {
          "_admin": ": address to revoke admin access to"
        }
      },
      "safeTransferFrom(address,address,uint256)": {
        "details": "Safely transfers the ownership of a given token ID to another address If the target address is a contract, it must implement `onERC721Received`, which is called upon a safe transfer, and return the magic value `bytes4(keccak256(\"onERC721Received(address,address,uint256,bytes)\"))`; otherwise, the transfer is reverted. Requires the msg.sender to be the owner, approved, or operator",
        "params": {
          "from": "current owner of the token",
          "to": "address to receive the ownership of the given token ID",
          "tokenId": "uint256 ID of the token to be transferred"
        }
      },
      "safeTransferFromWithData(address,address,uint256,bytes)": {
        "details": "Safely transfers the ownership of a given token ID to another address If the target address is a contract, it must implement `onERC721Received`, which is called upon a safe transfer, and return the magic value `bytes4(keccak256(\"onERC721Received(address,address,uint256,bytes)\"))`; otherwise, the transfer is reverted. Requires the msg.sender to be the owner, approved, or operator",
        "params": {
          "_data": "bytes data to send along with a safe transfer check",
          "from": "current owner of the token",
          "to": "address to receive the ownership of the given token ID",
          "tokenId": "uint256 ID of the token to be transferred"
        }
      },
      "setApprovalForAll(address,bool)": {
        "details": "Sets or unsets the approval of a given operator An operator is allowed to transfer all tokens of the sender on their behalf",
        "params": {
          "approved": "representing the status of the approval to be set",
          "to": "operator address to set the approval"
        }
      },
      "setBaseTokenURI(string)": {
        "details": "Set the base token uri for all NFTs"
      },
      "supportsInterface(bytes4)": {
        "details": "implement supportsInterface(bytes4) using a lookup table"
      },
      "symbol()": {
        "details": "Gets the token symbol",
        "returns": {
          "_0": "string representing the token symbol"
        }
      },
      "tokenByIndex(uint256)": {
        "details": "Gets the token ID at a given index of all the tokens in this contract Reverts if the index is greater or equal to the total number of tokens",
        "params": {
          "index": "uint256 representing the index to be accessed of the tokens list"
        },
        "returns": {
          "_0": "uint256 token ID at the given index of the tokens list"
        }
      },
      "tokenOfOwnerByIndex(address,uint256)": {
        "details": "Gets the token ID at a given index of the tokens list of the requested owner",
        "params": {
          "index": "uint256 representing the index to be accessed of the requested tokens list",
          "owner": "address owning the tokens list to be accessed"
        },
        "returns": {
          "_0": "uint256 token ID at the given index of the tokens list owned by the requested address"
        }
      },
      "tokenURI(uint256)": {
        "details": "Retrieve the uri of a specific token ",
        "params": {
          "_tokenId": "the id of the token to retrieve the uri of"
        },
        "returns": {
          "_0": "computed uri string pointing to a specific _tokenId"
        }
      },
      "tokensOf(address)": {
        "details": "@notice Non-Standard method to retrieve all NFTs that specific owner owns",
        "returns": {
          "_0": "uint[] containing all NFTs that owner owns"
        }
      },
      "totalSupply()": {
        "details": "Gets the total amount of tokens stored by the contract",
        "returns": {
          "_0": "uint256 representing the total amount of tokens"
        }
      },
      "transferFrom(address,address,uint256)": {
        "details": "Transfers the ownership of a given token ID to another address Usage of this method is discouraged, use `safeTransferFrom` whenever possible Requires the msg.sender to be the owner, approved, or operator",
        "params": {
          "from": "current owner of the token",
          "to": "address to receive the ownership of the given token ID",
          "tokenId": "uint256 ID of the token to be transferred"
        }
      },
      "transferOwnership(address)": {
        "details": "Allows the current owner to transfer control of the contract to a newOwner.",
        "params": {
          "newOwner": "The address to transfer ownership to."
        }
      },
      "updateCode(address)": {
        "details": "EIP-1822 featureRealize an update of the Etherland logic code calls the proxy contract to update stored logic code contract address at keccak256(\"PROXIABLE\")"
      }
    },
    "title": "Etherland NFT Assets"
  },
  "userdoc": {
    "methods": {
      "isApprovedForAll(address,address)": {
        "notice": "Override isApprovedForAll to whitelist user's OpenSea proxy accounts to enable gas-less listings."
      },
      "renounceOwnership()": {
        "notice": "Renouncing ownership will leave the contract without an owner, thereby removing any functionality that is only available to the owner."
      }
    }
  }
}