{
  "contractName": "IpfsHashs",
  "abi": [
    {
      "anonymous": false,
      "inputs": [
        {
          "indexed": true,
          "internalType": "address",
          "name": "newAdmin",
          "type": "address"
        },
        {
          "indexed": false,
          "internalType": "int16",
          "name": "adminRights",
          "type": "int16"
        }
      ],
      "name": "AdminRightsGranted",
      "type": "event"
    },
    {
      "anonymous": false,
      "inputs": [
        {
          "indexed": true,
          "internalType": "address",
          "name": "noAdmin",
          "type": "address"
        }
      ],
      "name": "AdminRightsRevoked",
      "type": "event"
    },
    {
      "anonymous": false,
      "inputs": [
        {
          "indexed": true,
          "internalType": "address",
          "name": "previousOwner",
          "type": "address"
        },
        {
          "indexed": true,
          "internalType": "address",
          "name": "newOwner",
          "type": "address"
        }
      ],
      "name": "OwnershipTransferred",
      "type": "event"
    },
    {
      "inputs": [
        {
          "internalType": "address",
          "name": "_admin",
          "type": "address"
        }
      ],
      "name": "adminRightsOf",
      "outputs": [
        {
          "internalType": "int16",
          "name": "",
          "type": "int16"
        }
      ],
      "stateMutability": "view",
      "type": "function"
    },
    {
      "inputs": [],
      "name": "canMint",
      "outputs": [
        {
          "internalType": "bool",
          "name": "",
          "type": "bool"
        }
      ],
      "stateMutability": "view",
      "type": "function"
    },
    {
      "inputs": [],
      "name": "canMintBurn",
      "outputs": [
        {
          "internalType": "bool",
          "name": "",
          "type": "bool"
        }
      ],
      "stateMutability": "view",
      "type": "function"
    },
    {
      "inputs": [
        {
          "internalType": "address",
          "name": "_admin",
          "type": "address"
        }
      ],
      "name": "grantMinterBurnerRights",
      "outputs": [],
      "stateMutability": "nonpayable",
      "type": "function"
    },
    {
      "inputs": [
        {
          "internalType": "address",
          "name": "_admin",
          "type": "address"
        }
      ],
      "name": "grantMinterRights",
      "outputs": [],
      "stateMutability": "nonpayable",
      "type": "function"
    },
    {
      "inputs": [
        {
          "internalType": "address",
          "name": "_admin",
          "type": "address"
        }
      ],
      "name": "isMinter",
      "outputs": [
        {
          "internalType": "bool",
          "name": "",
          "type": "bool"
        }
      ],
      "stateMutability": "view",
      "type": "function"
    },
    {
      "inputs": [
        {
          "internalType": "address",
          "name": "_admin",
          "type": "address"
        }
      ],
      "name": "isMinterBurner",
      "outputs": [
        {
          "internalType": "bool",
          "name": "",
          "type": "bool"
        }
      ],
      "stateMutability": "view",
      "type": "function"
    },
    {
      "inputs": [],
      "name": "isOwner",
      "outputs": [
        {
          "internalType": "bool",
          "name": "",
          "type": "bool"
        }
      ],
      "stateMutability": "view",
      "type": "function"
    },
    {
      "inputs": [],
      "name": "owner",
      "outputs": [
        {
          "internalType": "address",
          "name": "",
          "type": "address"
        }
      ],
      "stateMutability": "view",
      "type": "function"
    },
    {
      "inputs": [],
      "name": "renounceOwnership",
      "outputs": [],
      "stateMutability": "nonpayable",
      "type": "function"
    },
    {
      "inputs": [
        {
          "internalType": "address",
          "name": "_admin",
          "type": "address"
        }
      ],
      "name": "revokeAdminRights",
      "outputs": [],
      "stateMutability": "nonpayable",
      "type": "function"
    },
    {
      "inputs": [
        {
          "internalType": "address",
          "name": "newOwner",
          "type": "address"
        }
      ],
      "name": "transferOwnership",
      "outputs": [],
      "stateMutability": "nonpayable",
      "type": "function"
    },
    {
      "inputs": [
        {
          "internalType": "uint256",
          "name": "tokenId",
          "type": "uint256"
        },
        {
          "internalType": "string",
          "name": "docType",
          "type": "string"
        },
        {
          "internalType": "string",
          "name": "_hash",
          "type": "string"
        }
      ],
      "name": "setIpfsHash",
      "outputs": [],
      "stateMutability": "nonpayable",
      "type": "function"
    },
    {
      "inputs": [
        {
          "internalType": "uint256",
          "name": "tokenId",
          "type": "uint256"
        },
        {
          "internalType": "string",
          "name": "docType",
          "type": "string"
        }
      ],
      "name": "removeIpfsHash",
      "outputs": [],
      "stateMutability": "nonpayable",
      "type": "function"
    },
    {
      "inputs": [
        {
          "internalType": "uint256",
          "name": "tokenId",
          "type": "uint256"
        },
        {
          "internalType": "string",
          "name": "docType",
          "type": "string"
        }
      ],
      "name": "getIpfsHash",
      "outputs": [
        {
          "internalType": "string",
          "name": "",
          "type": "string"
        }
      ],
      "stateMutability": "view",
      "type": "function"
    }
  ],
  "bytecode": "0x608060405234801561001057600080fd5b50610f3d806100206000396000f3fe608060405234801561001057600080fd5b50600436106100f55760003560e01c8063715018a611610097578063a2e4d23911610066578063a2e4d239146104f8578063aa271e1a1461051e578063beb9716d14610544578063f2fde38b1461054c576100f5565b8063715018a6146104855780638da5cb5b1461048d5780638f32d59b146104b15780639adfecf9146104b9576100f5565b80633b25f6a0116100d35780633b25f6a01461026e578063426796831461038e578063598b34aa146103b45780636a6811901461045f576100f5565b806305d52d09146100fa5780631f6eeb68146101225780632a4b48ed1461013e575b600080fd5b6101206004803603602081101561011057600080fd5b50356001600160a01b0316610572565b005b61012a610660565b604080519115158252519081900360200190f35b6101206004803603606081101561015457600080fd5b81359190810190604081016020820135600160201b81111561017557600080fd5b82018360208201111561018757600080fd5b803590602001918460018302840111600160201b831117156101a857600080fd5b91908080601f0160208091040260200160405190810160405280939291908181526020018383808284376000920191909152509295949360208101935035915050600160201b8111156101fa57600080fd5b82018360208201111561020c57600080fd5b803590602001918460018302840111600160201b8311171561022d57600080fd5b91908080601f016020809104026020016040519081016040528093929190818152602001838380828437600092019190915250929550610671945050505050565b6103196004803603604081101561028457600080fd5b81359190810190604081016020820135600160201b8111156102a557600080fd5b8201836020820111156102b757600080fd5b803590602001918460018302840111600160201b831117156102d857600080fd5b91908080601f0160208091040260200160405190810160405280939291908181526020018383808284376000920191909152509295506107aa945050505050565b6040805160208082528351818301528351919283929083019185019080838360005b8381101561035357818101518382015260200161033b565b50505050905090810190601f1680156103805780820380516001836020036101000a031916815260200191505b509250505060405180910390f35b61012a600480360360208110156103a457600080fd5b50356001600160a01b03166108b0565b610120600480360360408110156103ca57600080fd5b81359190810190604081016020820135600160201b8111156103eb57600080fd5b8201836020820111156103fd57600080fd5b803590602001918460018302840111600160201b8311171561041e57600080fd5b91908080601f016020809104026020016040519081016040528093929190818152602001838380828437600092019190915250929550610905945050505050565b6101206004803603602081101561047557600080fd5b50356001600160a01b03166109f7565b610120610af7565b610495610b90565b604080516001600160a01b039092168252519081900360200190f35b61012a610b9f565b6104df600480360360208110156104cf57600080fd5b50356001600160a01b0316610bb0565b60408051600192830b90920b8252519081900360200190f35b6101206004803603602081101561050e57600080fd5b50356001600160a01b0316610bff565b61012a6004803603602081101561053457600080fd5b50356001600160a01b0316610d02565b61012a610d53565b6101206004803603602081101561056257600080fd5b50356001600160a01b0316610d5e565b61057a610b9f565b6105c1576040805162461bcd60e51b815260206004820152601360248201527239b2b73232b91034b9903737ba1037bbb732b960691b604482015290519081900360640190fd5b806001600160a01b038116610615576040805162461bcd60e51b8152602060048201526015602482015274696e76616c69642061646d696e206164647265737360581b604482015290519081900360640190fd5b6001600160a01b038216600081815260016020526040808220805461ffff19169055517f75063598bb424244ef6461ff8e1e0a1836998c3c84ef9e591015fbe8d94fa71f9190a25050565b600061066b336108b0565b90505b90565b610679610d53565b6106ca576040805162461bcd60e51b815260206004820181905260248201527f64656e696564203a206e6f2061646d696e206d696e74696e6720726967687473604482015290519081900360640190fd5b6000831161071f576040805162461bcd60e51b815260206004820181905260248201527f64656e696564203a20746f6b656e207a65726f2063616e742062652075736564604482015290519081900360640190fd5b8060026000858152602001908152602001600020836040518082805190602001908083835b602083106107635780518252601f199092019160209182019101610744565b51815160209384036101000a600019018019909216911617905292019485525060405193849003810190932084516107a49591949190910192509050610e6f565b50505050565b606060026000848152602001908152602001600020826040518082805190602001908083835b602083106107ef5780518252601f1990920191602091820191016107d0565b518151600019602094850361010090810a820192831692199390931691909117909252949092019687526040805197889003820188208054601f60026001831615909802909501169590950492830182900482028801820190528187529294509250508301828280156108a35780601f10610878576101008083540402835291602001916108a3565b820191906000526020600020905b81548152906001019060200180831161088657829003601f168201915b5050505050905092915050565b60006108ba610b90565b6001600160a01b0316826001600160a01b031614156108db57506001610900565b506001600160a01b038116600090815260016020819052604090912054810b900b6002145b919050565b61090d610660565b61095e576040805162461bcd60e51b815260206004820181905260248201527f64656e696564203a206e6f2061646d696e206275726e696e6720726967687473604482015290519081900360640190fd5b6040518060200160405280600081525060026000848152602001908152602001600020826040518082805190602001908083835b602083106109b15780518252601f199092019160209182019101610992565b51815160209384036101000a600019018019909216911617905292019485525060405193849003810190932084516109f29591949190910192509050610e6f565b505050565b6109ff610b9f565b610a46576040805162461bcd60e51b815260206004820152601360248201527239b2b73232b91034b9903737ba1037bbb732b960691b604482015290519081900360640190fd5b806001600160a01b038116610a9a576040805162461bcd60e51b8152602060048201526015602482015274696e76616c69642061646d696e206164647265737360581b604482015290519081900360640190fd5b6001600160a01b038216600081815260016020818152604092839020805461ffff191683179055825191825291517fc9650477e67b3b00a3cf84fb7f5e1c3c95d7271a855253a09dde0a403695a367929181900390910190a25050565b610aff610b9f565b610b46576040805162461bcd60e51b815260206004820152601360248201527239b2b73232b91034b9903737ba1037bbb732b960691b604482015290519081900360640190fd5b600080546040516001600160a01b03909116907f8be0079c531659141344cd1fd0a4f28419497f9722a3daafe3b4186f6b6457e0908390a3600080546001600160a01b0319169055565b6000546001600160a01b031690565b6000546001600160a01b0316331490565b6000610bba610b90565b6001600160a01b0316826001600160a01b03161415610bdb57506002610900565b506001600160a01b038116600090815260016020819052604090912054900b610900565b610c07610b9f565b610c4e576040805162461bcd60e51b815260206004820152601360248201527239b2b73232b91034b9903737ba1037bbb732b960691b604482015290519081900360640190fd5b806001600160a01b038116610ca2576040805162461bcd60e51b8152602060048201526015602482015274696e76616c69642061646d696e206164647265737360581b604482015290519081900360640190fd5b6001600160a01b038216600081815260016020908152604091829020805461ffff19166002908117909155825190815291517fc9650477e67b3b00a3cf84fb7f5e1c3c95d7271a855253a09dde0a403695a3679281900390910190a25050565b6000610d0c610b90565b6001600160a01b0316826001600160a01b03161415610d2d57506001610900565b506001600160a01b0381166000908152600160208190526040822054810b900b13610900565b600061066b33610d02565b610d66610b9f565b610dad576040805162461bcd60e51b815260206004820152601360248201527239b2b73232b91034b9903737ba1037bbb732b960691b604482015290519081900360640190fd5b610db681610db9565b50565b6001600160a01b038116610e14576040805162461bcd60e51b815260206004820152601d60248201527f6e6577206f776e65722063616e6e6f7420626520616464726573732030000000604482015290519081900360640190fd5b600080546040516001600160a01b03808516939216917f8be0079c531659141344cd1fd0a4f28419497f9722a3daafe3b4186f6b6457e091a3600080546001600160a01b0319166001600160a01b0392909216919091179055565b828054600181600116156101000203166002900490600052602060002090601f016020900481019282601f10610eb057805160ff1916838001178555610edd565b82800160010185558215610edd579182015b82811115610edd578251825591602001919060010190610ec2565b50610ee9929150610eed565b5090565b61066e91905b80821115610ee95760008155600101610ef356fea2646970667358221220620b25f888cac96ac4585165d43729fc2e682d8fb7f3b5d65cb052ae1f3fc07b64736f6c63430006020033",
  "source": "pragma solidity 0.6.2;\n\nimport './Administrable.sol';\n\n/**\n* @title IpfsHashs\n* @dev Provide methods to store and retrieve tokens IPFS CIDs\n*/\ncontract IpfsHashs is Administrable {\n\n    mapping (uint => mapping(string => string)) internal ipfsHashs;\n\n    function setIpfsHash(uint tokenId, string memory docType, string memory _hash) public onlyMinter {\n        require(tokenId > 0, \"denied : token zero cant be used\");\n        ipfsHashs[tokenId][docType] = _hash;\n    }\n\n    function removeIpfsHash(uint tokenId, string memory docType) public onlyMinterBurner {\n        ipfsHashs[tokenId][docType] = \"\";\n    }\n\n    function getIpfsHash(uint tokenId, string memory docType) public view returns (string memory) {\n        return ipfsHashs[tokenId][docType];\n    }\n\n}",
  "sourcePath": "/Users/proapps/Desktop/Mat/Apps/Etherland/ERC721/contracts/IpfsHashs.sol",
  "compiler": {
    "name": "solc",
    "version": "0.6.2+commit.bacdbe57.Emscripten.clang"
  },
  "schemaVersion": "3.3.2",
  "updatedAt": "2020-11-14T08:55:01.290Z",
  "devdoc": {
    "details": "Provide methods to store and retrieve tokens IPFS CIDs",
    "methods": {
      "adminRightsOf(address)": {
        "details": "know if an address has admin rights and its type of rights",
        "params": {
          "_admin": "the address to find admin rights of"
        },
        "returns": {
          "_0": "int16 the admin right for _admin :      1 : address can only mint tokens       2 : address can mint AND burn tokens "
        }
      },
      "canMint()": {
        "details": "canMint external ",
        "returns": {
          "_0": "bool : truthy if msg.sender has admin rights to mint new tokens"
        }
      },
      "canMintBurn()": {
        "details": "canBurn external",
        "returns": {
          "_0": "bool : truthy if msg.sender has admin rights to mint new tokens and burn existing tokens"
        }
      },
      "grantMinterBurnerRights(address)": {
        "details": "owner can grant admin access to allow any address to mint new tokens and to burn existing tokensRestricted to CONTRACT OWNER ONLY",
        "params": {
          "_admin": ": address to grant admin minter and burner rights to"
        }
      },
      "grantMinterRights(address)": {
        "details": "owner can grant admin access to allow any address to mint new tokensRestricted to CONTRACT OWNER ONLY",
        "params": {
          "_admin": ": address to grant admin minter rights to"
        }
      },
      "isMinter(address)": {
        "details": "verifiy if an address can mint new tokens",
        "params": {
          "_admin": ": the address to verify minting rights of"
        },
        "returns": {
          "_0": "a boolean, truthy when _admin has rights to mint new tokens"
        }
      },
      "isMinterBurner(address)": {
        "details": "verifiy if an address has rights to mint and burn new tokens",
        "params": {
          "_admin": ": the address to verify minter-burner rights of"
        },
        "returns": {
          "_0": "a boolean, truthy when _admin has rights to mint and burn new tokens"
        }
      },
      "renounceOwnership()": {
        "details": "Allows the current owner to relinquish control of the contract. It will not be possible to call the functions with the `onlyOwner` modifier anymore."
      },
      "revokeAdminRights(address)": {
        "details": "owner can revoke admin right of any admin addressRestricted to CONTRACT OWNER ONLY",
        "params": {
          "_admin": ": address to revoke admin access to"
        }
      },
      "transferOwnership(address)": {
        "details": "Allows the current owner to transfer control of the contract to a newOwner.",
        "params": {
          "newOwner": "The address to transfer ownership to."
        }
      }
    },
    "title": "IpfsHashs"
  },
  "userdoc": {
    "methods": {
      "renounceOwnership()": {
        "notice": "Renouncing ownership will leave the contract without an owner, thereby removing any functionality that is only available to the owner."
      }
    }
  }
}