{
  "contractName": "Proxiable",
  "abi": [
    {
      "inputs": [],
      "name": "proxiableUUID",
      "outputs": [
        {
          "internalType": "bytes32",
          "name": "",
          "type": "bytes32"
        }
      ],
      "stateMutability": "pure",
      "type": "function"
    }
  ],
  "bytecode": "0x6080604052348015600f57600080fd5b50609f8061001e6000396000f3fe6080604052348015600f57600080fd5b506004361060285760003560e01c806352d1902d14602d575b600080fd5b60336045565b60408051918252519081900360200190f35b7fc5f16f0fcc639fa48a6947836d9850f504798523bf8c9a3a87d5876cf622bcf79056fea264697066735822122076cc7f87a2b6656c5a0fe72d0629b9fe02b4e785bb075c685036ed8807af1ef764736f6c63430006020033",
  "source": "pragma solidity 0.6.2;\n\n/**\n* @title Proxiable\n* @dev Etherland - EIP-1822 Proxiable contract implementation\n* @dev https://github.com/ethereum/EIPs/blob/master/EIPS/eip-1822.md\n*/\ncontract Proxiable {\n    // Code position in storage is keccak256(\"PROXIABLE\") = \"0xc5f16f0fcc639fa48a6947836d9850f504798523bf8c9a3a87d5876cf622bcf7\"\n\n    function updateCodeAddress(address newAddress) internal {\n        require(\n            bytes32(0xc5f16f0fcc639fa48a6947836d9850f504798523bf8c9a3a87d5876cf622bcf7) == Proxiable(newAddress).proxiableUUID(),\n            \"Not compatible\"\n        );\n        assembly { // solium-disable-line\n            sstore(0xc5f16f0fcc639fa48a6947836d9850f504798523bf8c9a3a87d5876cf622bcf7, newAddress)\n        }\n    }\n    function proxiableUUID() public pure returns (bytes32) {\n        return 0xc5f16f0fcc639fa48a6947836d9850f504798523bf8c9a3a87d5876cf622bcf7;\n    }\n}\n",
  "sourcePath": "/Users/proapps/Desktop/Mat/Apps/Etherland/ERC721/contracts/ERC1822/Proxiable.sol",
  "compiler": {
    "name": "solc",
    "version": "0.6.2+commit.bacdbe57.Emscripten.clang"
  },
  "schemaVersion": "3.3.2",
  "updatedAt": "2020-11-13T22:10:05.495Z",
  "devdoc": {
    "details": "Etherland - EIP-1822 Proxiable contract implementationhttps://github.com/ethereum/EIPs/blob/master/EIPS/eip-1822.md",
    "methods": {},
    "title": "Proxiable"
  },
  "userdoc": {
    "methods": {}
  }
}