{
  "contractName": "ProxyRegistry",
  "abi": [
    {
      "inputs": [
        {
          "internalType": "address",
          "name": "",
          "type": "address"
        }
      ],
      "name": "proxies",
      "outputs": [
        {
          "internalType": "contract OwnableDelegateProxy",
          "name": "",
          "type": "address"
        }
      ],
      "stateMutability": "view",
      "type": "function"
    }
  ],
  "bytecode": "0x6080604052348015600f57600080fd5b5060bd8061001e6000396000f3fe6080604052348015600f57600080fd5b506004361060285760003560e01c8063c455279114602d575b600080fd5b605060048036036020811015604157600080fd5b50356001600160a01b0316606c565b604080516001600160a01b039092168252519081900360200190f35b6000602081905290815260409020546001600160a01b03168156fea26469706673582212209f6a9aafedf188771f5b6ed8157c4e7c30744f141cc826a3354571029954b25f64736f6c63430006020033",
  "source": "pragma solidity 0.6.2;\n\nimport \"./OwnableDelegateProxy.sol\";\n\n/**\n* @title ProxyRegistry\n* @dev OpenSea compliant feature\n*/\ncontract ProxyRegistry {\n    mapping(address => OwnableDelegateProxy) public proxies;\n}\n",
  "sourcePath": "/Users/joachimlebrun/IdeaProjects/ERC721/contracts/ProxyRegistry.sol",
  "compiler": {
    "name": "solc",
    "version": "0.6.2+commit.bacdbe57.Emscripten.clang"
  },
  "schemaVersion": "3.3.0",
  "updatedAt": "2020-10-15T20:40:47.730Z",
  "devdoc": {
    "details": "OpenSea compliant feature",
    "methods": {},
    "title": "ProxyRegistry"
  },
  "userdoc": {
    "methods": {}
  }
}