{
  "contractName": "Storage",
  "abi": [
    {
      "inputs": [],
      "name": "proxyRegistryAddress",
      "outputs": [
        {
          "internalType": "address",
          "name": "",
          "type": "address"
        }
      ],
      "stateMutability": "view",
      "type": "function"
    }
  ],
  "bytecode": "0x60806040526000600455348015601457600080fd5b506094806100236000396000f3fe6080604052348015600f57600080fd5b506004361060285760003560e01c8063cd7c032614602d575b600080fd5b6033604f565b604080516001600160a01b039092168252519081900360200190f35b6003546001600160a01b03168156fea2646970667358221220098be19de8cfa1e71889b1055e85f479486f9c5ff59c71b389644c0804b69dcd64736f6c63430006020033",
  "source": "pragma solidity 0.6.2;\n\nimport \"./Libraries/Counters.sol\";\n    \ncontract Storage {\n    using Counters for Counters.Counter;\n\n    // Token name\n    string internal _name;\n    // Token symbol\n    string internal _symbol;\n    // Token base uri\n    string internal _baseTokenURI;\n\n    bytes4 internal constant _INTERFACE_ID_ERC165 = 0x01ffc9a7;\n    // Equals to `bytes4(keccak256(\"onERC721Received(address,address,uint256,bytes)\"))`\n    // which can be also obtained as `IERC721Receiver(0).onERC721Received.selector`\n    bytes4 internal constant _ERC721_RECEIVED = 0x150b7a02;\n    bytes4 internal constant _INTERFACE_ID_ERC721 = 0x80ac58cd;\n    /*\n    * 0x780e9d63 ===\n    *     bytes4(keccak256('totalSupply()')) ^\n    *     bytes4(keccak256('tokenOfOwnerByIndex(address,uint256)')) ^\n    *     bytes4(keccak256('tokenByIndex(uint256)'))\n    */\n    bytes4 internal constant _INTERFACE_ID_ERC721_ENUMERABLE = 0x780e9d63;\n    /*\n    * 0x5b5e139f ===\n    *     bytes4(keccak256('name()')) ^\n    *     bytes4(keccak256('symbol()')) ^\n    *     bytes4(keccak256('tokenURI(uint256)'))\n    */\n    bytes4 internal constant _INTERFACE_ID_ERC721_METADATA = 0x5b5e139f;\n    \n    // OpenSea proxy registry\n    address public proxyRegistryAddress;\n\n    // token id tracker\n    uint256 internal _currentTokenId = 0;\n    \n    // Array with all token ids, used for enumeration\n    uint256[] internal _allTokens;\n\n    // mapping of interface id to whether or not it's supported    \n    mapping(bytes4 => bool) internal _supportedInterfaces;\n\n    // Mapping from token ID to owner\n    mapping (uint256 => address) internal _tokenOwner;\n\n    // Mapping from token ID to approved address\n    mapping (uint256 => address) internal _tokenApprovals;\n\n    // Mapping from owner to number of owned token\n    mapping (address => Counters.Counter) internal _ownedTokensCount;\n\n    // Mapping from owner to operator approvals\n    mapping (address => mapping (address => bool)) internal _operatorApprovals;\n\n    // Optional mapping for token URIs\n    mapping(uint256 => string) internal _tokenURIs;\n\n    // Mapping from owner to list of owned token IDs\n    mapping(address => uint256[]) internal _ownedTokens;\n\n    // Mapping from token ID to index of the owner tokens list\n    mapping(uint256 => uint256) internal _ownedTokensIndex;\n\n    // Mapping from token id to position in the allTokens array\n    mapping(uint256 => uint256) internal _allTokensIndex;\n\n    \n    /**\n    * @dev STORAGES STILL LOCATED IN RESPECTIVE FILES\n    */\n    /* Ownable.sol\n        address internal _owner;\n    */\n    /* Administrable.sol \n        mapping(address => int16) internal admins;    \n    */\n    /* TokenMetadatas.sol \n        mapping(uint256 => string) internal _tokensMetadatas;    \n    */\n    \n}",
  "sourcePath": "/Users/macos/Desktop/Mat/Apps/ETHERLAND/Etherland_ERC721/ERC721/contracts/Storage.sol",
  "compiler": {
    "name": "solc",
    "version": "0.6.2+commit.bacdbe57.Emscripten.clang"
  },
  "schemaVersion": "3.3.0",
  "updatedAt": "2020-11-05T20:59:24.553Z",
  "devdoc": {
    "methods": {}
  },
  "userdoc": {
    "methods": {}
  }
}