{
  "contractName": "TokensMetadatas",
  "abi": [
    {
      "anonymous": false,
      "inputs": [
        {
          "indexed": true,
          "internalType": "address",
          "name": "previousOwner",
          "type": "address"
        },
        {
          "indexed": true,
          "internalType": "address",
          "name": "newOwner",
          "type": "address"
        }
      ],
      "name": "OwnershipTransferred",
      "type": "event"
    },
    {
      "inputs": [
        {
          "internalType": "address",
          "name": "_admin",
          "type": "address"
        }
      ],
      "name": "adminRightsOf",
      "outputs": [
        {
          "internalType": "int16",
          "name": "",
          "type": "int16"
        }
      ],
      "stateMutability": "view",
      "type": "function"
    },
    {
      "inputs": [],
      "name": "canMint",
      "outputs": [
        {
          "internalType": "bool",
          "name": "",
          "type": "bool"
        }
      ],
      "stateMutability": "view",
      "type": "function"
    },
    {
      "inputs": [],
      "name": "canMintBurn",
      "outputs": [
        {
          "internalType": "bool",
          "name": "",
          "type": "bool"
        }
      ],
      "stateMutability": "view",
      "type": "function"
    },
    {
      "inputs": [
        {
          "internalType": "address",
          "name": "_admin",
          "type": "address"
        }
      ],
      "name": "grantMinterBurnerRights",
      "outputs": [],
      "stateMutability": "nonpayable",
      "type": "function"
    },
    {
      "inputs": [
        {
          "internalType": "address",
          "name": "_admin",
          "type": "address"
        }
      ],
      "name": "grantMinterRights",
      "outputs": [],
      "stateMutability": "nonpayable",
      "type": "function"
    },
    {
      "inputs": [
        {
          "internalType": "address",
          "name": "_admin",
          "type": "address"
        }
      ],
      "name": "isMinter",
      "outputs": [
        {
          "internalType": "bool",
          "name": "",
          "type": "bool"
        }
      ],
      "stateMutability": "view",
      "type": "function"
    },
    {
      "inputs": [
        {
          "internalType": "address",
          "name": "_admin",
          "type": "address"
        }
      ],
      "name": "isMinterBurner",
      "outputs": [
        {
          "internalType": "bool",
          "name": "",
          "type": "bool"
        }
      ],
      "stateMutability": "view",
      "type": "function"
    },
    {
      "inputs": [],
      "name": "isOwner",
      "outputs": [
        {
          "internalType": "bool",
          "name": "",
          "type": "bool"
        }
      ],
      "stateMutability": "view",
      "type": "function"
    },
    {
      "inputs": [],
      "name": "owner",
      "outputs": [
        {
          "internalType": "address",
          "name": "",
          "type": "address"
        }
      ],
      "stateMutability": "view",
      "type": "function"
    },
    {
      "inputs": [],
      "name": "renounceOwnership",
      "outputs": [],
      "stateMutability": "nonpayable",
      "type": "function"
    },
    {
      "inputs": [
        {
          "internalType": "address",
          "name": "_admin",
          "type": "address"
        }
      ],
      "name": "revokeAdminRights",
      "outputs": [],
      "stateMutability": "nonpayable",
      "type": "function"
    },
    {
      "inputs": [
        {
          "internalType": "address",
          "name": "newOwner",
          "type": "address"
        }
      ],
      "name": "transferOwnership",
      "outputs": [],
      "stateMutability": "nonpayable",
      "type": "function"
    },
    {
      "inputs": [
        {
          "internalType": "uint256",
          "name": "_tokenId",
          "type": "uint256"
        },
        {
          "internalType": "string",
          "name": "_metadatas",
          "type": "string"
        }
      ],
      "name": "setMetadatas",
      "outputs": [],
      "stateMutability": "nonpayable",
      "type": "function"
    },
    {
      "inputs": [
        {
          "internalType": "uint256",
          "name": "_tokenId",
          "type": "uint256"
        }
      ],
      "name": "removeMetadatas",
      "outputs": [],
      "stateMutability": "nonpayable",
      "type": "function"
    },
    {
      "inputs": [
        {
          "internalType": "uint256",
          "name": "_tokenId",
          "type": "uint256"
        }
      ],
      "name": "getMetadatas",
      "outputs": [
        {
          "internalType": "string",
          "name": "",
          "type": "string"
        }
      ],
      "stateMutability": "view",
      "type": "function"
    }
  ],
  "bytecode": "0x60806040819052600080546001600160a01b031916737640abeb029a856d3104df93f13536e20cb00d7c178082556001600160a01b0316917f8be0079c531659141344cd1fd0a4f28419497f9722a3daafe3b4186f6b6457e0908290a3610b618061006b6000396000f3fe608060405234801561001057600080fd5b50600436106100f55760003560e01c80638f32d59b11610097578063aa271e1a11610066578063aa271e1a14610362578063beb9716d14610388578063f2fde38b14610390578063fbd2d1ac146103b6576100f5565b80638f32d59b146102635780639216b3701461026b5780639adfecf9146102fd578063a2e4d2391461033c576100f5565b806342679683116100d357806342679683146101eb5780636a68119014610211578063715018a6146102375780638da5cb5b1461023f576100f5565b806305d52d09146100fa5780631f6eeb68146101225780633d9a13791461013e575b600080fd5b6101206004803603602081101561011057600080fd5b50356001600160a01b03166103d3565b005b61012a610499565b604080519115158252519081900360200190f35b6101206004803603604081101561015457600080fd5b8135919081019060408101602082013564010000000081111561017657600080fd5b82018360208201111561018857600080fd5b803590602001918460018302840111640100000000831117156101aa57600080fd5b91908080601f0160208091040260200160405190810160405280939291908181526020018383808284376000920191909152509295506104aa945050505050565b61012a6004803603602081101561020157600080fd5b50356001600160a01b031661051d565b6101206004803603602081101561022757600080fd5b50356001600160a01b0316610572565b61012061063e565b6102476106d7565b604080516001600160a01b039092168252519081900360200190f35b61012a6106e6565b6102886004803603602081101561028157600080fd5b50356106f7565b6040805160208082528351818301528351919283929083019185019080838360005b838110156102c25781810151838201526020016102aa565b50505050905090810190601f1680156102ef5780820380516001836020036101000a031916815260200191505b509250505060405180910390f35b6103236004803603602081101561031357600080fd5b50356001600160a01b0316610796565b60408051600192830b90920b8252519081900360200190f35b6101206004803603602081101561035257600080fd5b50356001600160a01b03166107e5565b61012a6004803603602081101561037857600080fd5b50356001600160a01b03166108ae565b61012a6108ff565b610120600480360360208110156103a657600080fd5b50356001600160a01b031661090a565b610120600480360360208110156103cc57600080fd5b5035610965565b6103db6106e6565b610422576040805162461bcd60e51b815260206004820152601360248201527239b2b73232b91034b9903737ba1037bbb732b960691b604482015290519081900360640190fd5b806001600160a01b038116610476576040805162461bcd60e51b8152602060048201526015602482015274696e76616c69642061646d696e206164647265737360581b604482015290519081900360640190fd5b506001600160a01b03166000908152600160205260409020805461ffff19169055565b60006104a43361051d565b90505b90565b6104b26106e6565b6104f9576040805162461bcd60e51b815260206004820152601360248201527239b2b73232b91034b9903737ba1037bbb732b960691b604482015290519081900360640190fd5b6000828152600260209081526040909120825161051892840190610a93565b505050565b60006105276106d7565b6001600160a01b0316826001600160a01b031614156105485750600161056d565b506001600160a01b038116600090815260016020819052604090912054810b900b6002145b919050565b61057a6106e6565b6105c1576040805162461bcd60e51b815260206004820152601360248201527239b2b73232b91034b9903737ba1037bbb732b960691b604482015290519081900360640190fd5b806001600160a01b038116610615576040805162461bcd60e51b8152602060048201526015602482015274696e76616c69642061646d696e206164647265737360581b604482015290519081900360640190fd5b506001600160a01b03166000908152600160208190526040909120805461ffff19169091179055565b6106466106e6565b61068d576040805162461bcd60e51b815260206004820152601360248201527239b2b73232b91034b9903737ba1037bbb732b960691b604482015290519081900360640190fd5b600080546040516001600160a01b03909116907f8be0079c531659141344cd1fd0a4f28419497f9722a3daafe3b4186f6b6457e0908390a3600080546001600160a01b0319169055565b6000546001600160a01b031690565b6000546001600160a01b0316331490565b600081815260026020818152604092839020805484516001821615610100026000190190911693909304601f8101839004830284018301909452838352606093909183018282801561078a5780601f1061075f5761010080835404028352916020019161078a565b820191906000526020600020905b81548152906001019060200180831161076d57829003601f168201915b50505050509050919050565b60006107a06106d7565b6001600160a01b0316826001600160a01b031614156107c15750600261056d565b506001600160a01b038116600090815260016020819052604090912054900b61056d565b6107ed6106e6565b610834576040805162461bcd60e51b815260206004820152601360248201527239b2b73232b91034b9903737ba1037bbb732b960691b604482015290519081900360640190fd5b806001600160a01b038116610888576040805162461bcd60e51b8152602060048201526015602482015274696e76616c69642061646d696e206164647265737360581b604482015290519081900360640190fd5b506001600160a01b03166000908152600160205260409020805461ffff19166002179055565b60006108b86106d7565b6001600160a01b0316826001600160a01b031614156108d95750600161056d565b506001600160a01b0381166000908152600160208190526040822054810b900b1361056d565b60006104a4336108ae565b6109126106e6565b610959576040805162461bcd60e51b815260206004820152601360248201527239b2b73232b91034b9903737ba1037bbb732b960691b604482015290519081900360640190fd5b610962816109dd565b50565b61096d6106e6565b6109b4576040805162461bcd60e51b815260206004820152601360248201527239b2b73232b91034b9903737ba1037bbb732b960691b604482015290519081900360640190fd5b604080516020808201808452600080845285815260029092529290208151919261051892610a93565b6001600160a01b038116610a38576040805162461bcd60e51b815260206004820152601d60248201527f6e6577206f776e65722063616e6e6f7420626520616464726573732030000000604482015290519081900360640190fd5b600080546040516001600160a01b03808516939216917f8be0079c531659141344cd1fd0a4f28419497f9722a3daafe3b4186f6b6457e091a3600080546001600160a01b0319166001600160a01b0392909216919091179055565b828054600181600116156101000203166002900490600052602060002090601f016020900481019282601f10610ad457805160ff1916838001178555610b01565b82800160010185558215610b01579182015b82811115610b01578251825591602001919060010190610ae6565b50610b0d929150610b11565b5090565b6104a791905b80821115610b0d5760008155600101610b1756fea2646970667358221220078f1e25e6af7113228ef76f7b3835d2d6e60a304a397fd47b41d096874a24b764736f6c63430006020033",
  "source": "pragma solidity 0.6.2;\n\nimport \"./Administrable.sol\";\n/**\n * @title TokensMetadatas\n * @dev setMetadatas\n * @dev getMetadatas\n * @dev removeMetadatas\n */\ncontract TokensMetadatas is Administrable {\n    // Mapping from token ID to token metadatas\n    mapping(uint256 => string) private _tokensMetadatas;\n\n    function setMetadatas(uint256 _tokenId, string memory _metadatas) public onlyOwner {\n        _tokensMetadatas[_tokenId] = _metadatas;\n    }\n\n    function removeMetadatas(uint256 _tokenId) public onlyOwner {\n        string memory emptyMetadatas = \"\";\n        _tokensMetadatas[_tokenId] = emptyMetadatas;\n    }\n\n    function getMetadatas(uint256 _tokenId) public view returns (string memory) {\n        return _tokensMetadatas[_tokenId];\n    }\n}",
  "sourcePath": "/Users/macos/Desktop/Mat/Apps/ETHERLAND/Etherland_ERC721/ERC721/contracts/TokensMetadatas.sol",
  "compiler": {
    "name": "solc",
    "version": "0.6.2+commit.bacdbe57.Emscripten.clang"
  },
  "schemaVersion": "3.3.0",
  "updatedAt": "2020-10-14T22:13:44.118Z",
  "devdoc": {
    "details": "setMetadatasgetMetadatasremoveMetadatas",
    "methods": {
      "adminRightsOf(address)": {
        "details": "know if an address has admin rights and what type of right it has",
        "params": {
          "_admin": "the address to find admin rights of"
        },
        "returns": {
          "_0": "int16 the admin right for _admin :      1 : address can only mint tokens       2 : address can mint AND burn tokens "
        }
      },
      "canMint()": {
        "details": "canMint external ",
        "returns": {
          "_0": "bool : truthy if msg.sender has admin rights to mint new tokens"
        }
      },
      "canMintBurn()": {
        "details": "canBurn external",
        "returns": {
          "_0": "bool : truthy if msg.sender has admin rights to mint new tokens and burn existing tokens"
        }
      },
      "grantMinterBurnerRights(address)": {
        "details": "owner can grant admin access to allow any address to mint new tokens and to burn existing tokensRestricted to CONTRACT OWNER ONLY",
        "params": {
          "_admin": ": address to grant admin minter and burner rights to"
        }
      },
      "grantMinterRights(address)": {
        "details": "owner can grant admin access to allow any address to mint new tokensRestricted to CONTRACT OWNER ONLY",
        "params": {
          "_admin": ": address to grant admin minter rights to"
        }
      },
      "isMinter(address)": {
        "details": "verifiy if an address can mint new tokens",
        "params": {
          "_admin": ": the address to verify minting rights of"
        },
        "returns": {
          "_0": "a boolean, truthy when _admin has rights to mint new tokens"
        }
      },
      "isMinterBurner(address)": {
        "details": "verifiy if an address has rights to mint and burn new tokens",
        "params": {
          "_admin": ": the address to verify minter-burner rights of"
        },
        "returns": {
          "_0": "a boolean, truthy when _admin has rights to mint and burn new tokens"
        }
      },
      "renounceOwnership()": {
        "details": "Allows the current owner to relinquish control of the contract. It will not be possible to call the functions with the `onlyOwner` modifier anymore."
      },
      "revokeAdminRights(address)": {
        "details": "owner can revoke admin right of any admin addressRestricted to CONTRACT OWNER ONLY",
        "params": {
          "_admin": ": address to revoke admin access to"
        }
      },
      "transferOwnership(address)": {
        "details": "Allows the current owner to transfer control of the contract to a newOwner.",
        "params": {
          "newOwner": "The address to transfer ownership to."
        }
      }
    },
    "title": "TokensMetadatas"
  },
  "userdoc": {
    "methods": {
      "renounceOwnership()": {
        "notice": "Renouncing ownership will leave the contract without an owner, thereby removing any functionality that is only available to the owner."
      }
    }
  }
}