{
  "contractName": "TradeableERC721Token",
  "abi": [
    {
      "anonymous": false,
      "inputs": [
        {
          "indexed": true,
          "internalType": "address",
          "name": "newAdmin",
          "type": "address"
        },
        {
          "indexed": false,
          "internalType": "int16",
          "name": "adminRights",
          "type": "int16"
        }
      ],
      "name": "AdminRightsGranted",
      "type": "event"
    },
    {
      "anonymous": false,
      "inputs": [
        {
          "indexed": true,
          "internalType": "address",
          "name": "noAdmin",
          "type": "address"
        }
      ],
      "name": "AdminRightsRevoked",
      "type": "event"
    },
    {
      "anonymous": false,
      "inputs": [
        {
          "indexed": true,
          "internalType": "address",
          "name": "owner",
          "type": "address"
        },
        {
          "indexed": true,
          "internalType": "address",
          "name": "approved",
          "type": "address"
        },
        {
          "indexed": false,
          "internalType": "uint256",
          "name": "tokenId",
          "type": "uint256"
        }
      ],
      "name": "Approval",
      "type": "event"
    },
    {
      "anonymous": false,
      "inputs": [
        {
          "indexed": true,
          "internalType": "address",
          "name": "owner",
          "type": "address"
        },
        {
          "indexed": true,
          "internalType": "address",
          "name": "operator",
          "type": "address"
        },
        {
          "indexed": false,
          "internalType": "bool",
          "name": "approved",
          "type": "bool"
        }
      ],
      "name": "ApprovalForAll",
      "type": "event"
    },
    {
      "anonymous": false,
      "inputs": [
        {
          "indexed": true,
          "internalType": "address",
          "name": "previousOwner",
          "type": "address"
        },
        {
          "indexed": true,
          "internalType": "address",
          "name": "newOwner",
          "type": "address"
        }
      ],
      "name": "OwnershipTransferred",
      "type": "event"
    },
    {
      "anonymous": false,
      "inputs": [
        {
          "indexed": true,
          "internalType": "address",
          "name": "from",
          "type": "address"
        },
        {
          "indexed": true,
          "internalType": "address",
          "name": "to",
          "type": "address"
        },
        {
          "indexed": false,
          "internalType": "uint256",
          "name": "tokenId",
          "type": "uint256"
        }
      ],
      "name": "Transfer",
      "type": "event"
    },
    {
      "inputs": [
        {
          "internalType": "address",
          "name": "_admin",
          "type": "address"
        }
      ],
      "name": "adminRightsOf",
      "outputs": [
        {
          "internalType": "int16",
          "name": "",
          "type": "int16"
        }
      ],
      "stateMutability": "view",
      "type": "function"
    },
    {
      "inputs": [
        {
          "internalType": "address",
          "name": "to",
          "type": "address"
        },
        {
          "internalType": "uint256",
          "name": "tokenId",
          "type": "uint256"
        }
      ],
      "name": "approve",
      "outputs": [],
      "stateMutability": "nonpayable",
      "type": "function"
    },
    {
      "inputs": [
        {
          "internalType": "address",
          "name": "owner",
          "type": "address"
        }
      ],
      "name": "balanceOf",
      "outputs": [
        {
          "internalType": "uint256",
          "name": "",
          "type": "uint256"
        }
      ],
      "stateMutability": "view",
      "type": "function"
    },
    {
      "inputs": [],
      "name": "canMint",
      "outputs": [
        {
          "internalType": "bool",
          "name": "",
          "type": "bool"
        }
      ],
      "stateMutability": "view",
      "type": "function"
    },
    {
      "inputs": [],
      "name": "canMintBurn",
      "outputs": [
        {
          "internalType": "bool",
          "name": "",
          "type": "bool"
        }
      ],
      "stateMutability": "view",
      "type": "function"
    },
    {
      "inputs": [
        {
          "internalType": "uint256",
          "name": "tokenId",
          "type": "uint256"
        }
      ],
      "name": "getApproved",
      "outputs": [
        {
          "internalType": "address",
          "name": "",
          "type": "address"
        }
      ],
      "stateMutability": "view",
      "type": "function"
    },
    {
      "inputs": [
        {
          "internalType": "address",
          "name": "_admin",
          "type": "address"
        }
      ],
      "name": "grantMinterBurnerRights",
      "outputs": [],
      "stateMutability": "nonpayable",
      "type": "function"
    },
    {
      "inputs": [
        {
          "internalType": "address",
          "name": "_admin",
          "type": "address"
        }
      ],
      "name": "grantMinterRights",
      "outputs": [],
      "stateMutability": "nonpayable",
      "type": "function"
    },
    {
      "inputs": [
        {
          "internalType": "address",
          "name": "_admin",
          "type": "address"
        }
      ],
      "name": "isMinter",
      "outputs": [
        {
          "internalType": "bool",
          "name": "",
          "type": "bool"
        }
      ],
      "stateMutability": "view",
      "type": "function"
    },
    {
      "inputs": [
        {
          "internalType": "address",
          "name": "_admin",
          "type": "address"
        }
      ],
      "name": "isMinterBurner",
      "outputs": [
        {
          "internalType": "bool",
          "name": "",
          "type": "bool"
        }
      ],
      "stateMutability": "view",
      "type": "function"
    },
    {
      "inputs": [],
      "name": "isOwner",
      "outputs": [
        {
          "internalType": "bool",
          "name": "",
          "type": "bool"
        }
      ],
      "stateMutability": "view",
      "type": "function"
    },
    {
      "inputs": [],
      "name": "name",
      "outputs": [
        {
          "internalType": "string",
          "name": "",
          "type": "string"
        }
      ],
      "stateMutability": "view",
      "type": "function"
    },
    {
      "inputs": [],
      "name": "owner",
      "outputs": [
        {
          "internalType": "address",
          "name": "",
          "type": "address"
        }
      ],
      "stateMutability": "view",
      "type": "function"
    },
    {
      "inputs": [
        {
          "internalType": "uint256",
          "name": "tokenId",
          "type": "uint256"
        }
      ],
      "name": "ownerOf",
      "outputs": [
        {
          "internalType": "address",
          "name": "",
          "type": "address"
        }
      ],
      "stateMutability": "view",
      "type": "function"
    },
    {
      "inputs": [],
      "name": "proxyRegistryAddress",
      "outputs": [
        {
          "internalType": "address",
          "name": "",
          "type": "address"
        }
      ],
      "stateMutability": "view",
      "type": "function"
    },
    {
      "inputs": [],
      "name": "renounceOwnership",
      "outputs": [],
      "stateMutability": "nonpayable",
      "type": "function"
    },
    {
      "inputs": [
        {
          "internalType": "address",
          "name": "_admin",
          "type": "address"
        }
      ],
      "name": "revokeAdminRights",
      "outputs": [],
      "stateMutability": "nonpayable",
      "type": "function"
    },
    {
      "inputs": [
        {
          "internalType": "address",
          "name": "from",
          "type": "address"
        },
        {
          "internalType": "address",
          "name": "to",
          "type": "address"
        },
        {
          "internalType": "uint256",
          "name": "tokenId",
          "type": "uint256"
        }
      ],
      "name": "safeTransferFrom",
      "outputs": [],
      "stateMutability": "nonpayable",
      "type": "function"
    },
    {
      "inputs": [
        {
          "internalType": "address",
          "name": "from",
          "type": "address"
        },
        {
          "internalType": "address",
          "name": "to",
          "type": "address"
        },
        {
          "internalType": "uint256",
          "name": "tokenId",
          "type": "uint256"
        },
        {
          "internalType": "bytes",
          "name": "_data",
          "type": "bytes"
        }
      ],
      "name": "safeTransferFromWithData",
      "outputs": [],
      "stateMutability": "nonpayable",
      "type": "function"
    },
    {
      "inputs": [
        {
          "internalType": "address",
          "name": "to",
          "type": "address"
        },
        {
          "internalType": "bool",
          "name": "approved",
          "type": "bool"
        }
      ],
      "name": "setApprovalForAll",
      "outputs": [],
      "stateMutability": "nonpayable",
      "type": "function"
    },
    {
      "inputs": [
        {
          "internalType": "bytes4",
          "name": "interfaceId",
          "type": "bytes4"
        }
      ],
      "name": "supportsInterface",
      "outputs": [
        {
          "internalType": "bool",
          "name": "",
          "type": "bool"
        }
      ],
      "stateMutability": "view",
      "type": "function"
    },
    {
      "inputs": [],
      "name": "symbol",
      "outputs": [
        {
          "internalType": "string",
          "name": "",
          "type": "string"
        }
      ],
      "stateMutability": "view",
      "type": "function"
    },
    {
      "inputs": [
        {
          "internalType": "uint256",
          "name": "index",
          "type": "uint256"
        }
      ],
      "name": "tokenByIndex",
      "outputs": [
        {
          "internalType": "uint256",
          "name": "",
          "type": "uint256"
        }
      ],
      "stateMutability": "view",
      "type": "function"
    },
    {
      "inputs": [
        {
          "internalType": "address",
          "name": "owner",
          "type": "address"
        },
        {
          "internalType": "uint256",
          "name": "index",
          "type": "uint256"
        }
      ],
      "name": "tokenOfOwnerByIndex",
      "outputs": [
        {
          "internalType": "uint256",
          "name": "",
          "type": "uint256"
        }
      ],
      "stateMutability": "view",
      "type": "function"
    },
    {
      "inputs": [
        {
          "internalType": "address",
          "name": "owner",
          "type": "address"
        }
      ],
      "name": "tokensOf",
      "outputs": [
        {
          "internalType": "uint256[]",
          "name": "",
          "type": "uint256[]"
        }
      ],
      "stateMutability": "view",
      "type": "function"
    },
    {
      "inputs": [],
      "name": "totalSupply",
      "outputs": [
        {
          "internalType": "uint256",
          "name": "",
          "type": "uint256"
        }
      ],
      "stateMutability": "view",
      "type": "function"
    },
    {
      "inputs": [
        {
          "internalType": "address",
          "name": "from",
          "type": "address"
        },
        {
          "internalType": "address",
          "name": "to",
          "type": "address"
        },
        {
          "internalType": "uint256",
          "name": "tokenId",
          "type": "uint256"
        }
      ],
      "name": "transferFrom",
      "outputs": [],
      "stateMutability": "nonpayable",
      "type": "function"
    },
    {
      "inputs": [
        {
          "internalType": "address",
          "name": "newOwner",
          "type": "address"
        }
      ],
      "name": "transferOwnership",
      "outputs": [],
      "stateMutability": "nonpayable",
      "type": "function"
    },
    {
      "inputs": [
        {
          "internalType": "address",
          "name": "_to",
          "type": "address"
        }
      ],
      "name": "mintTo",
      "outputs": [],
      "stateMutability": "nonpayable",
      "type": "function"
    },
    {
      "inputs": [
        {
          "internalType": "uint256",
          "name": "_total",
          "type": "uint256"
        },
        {
          "internalType": "address",
          "name": "_to",
          "type": "address"
        }
      ],
      "name": "batchMintTo",
      "outputs": [],
      "stateMutability": "nonpayable",
      "type": "function"
    },
    {
      "inputs": [
        {
          "internalType": "uint256",
          "name": "_tokenId",
          "type": "uint256"
        }
      ],
      "name": "burn",
      "outputs": [],
      "stateMutability": "nonpayable",
      "type": "function"
    },
    {
      "inputs": [
        {
          "internalType": "address",
          "name": "owner",
          "type": "address"
        },
        {
          "internalType": "address",
          "name": "operator",
          "type": "address"
        }
      ],
      "name": "isApprovedForAll",
      "outputs": [
        {
          "internalType": "bool",
          "name": "",
          "type": "bool"
        }
      ],
      "stateMutability": "view",
      "type": "function"
    }
  ],
  "bytecode": "0x608060405260006004556100226301ffc9a760e01b6001600160e01b0361004016565b61003b6380ac58cd60e01b6001600160e01b0361004016565b6100b4565b6001600160e01b0319808216141561008f576040805162461bcd60e51b815260206004820152600d60248201526c62616420696e7465726661636560981b604482015290519081900360640190fd5b6001600160e01b0319166000908152600660205260409020805460ff19166001179055565b61207080620000c46000396000f3fe608060405234801561001057600080fd5b50600436106101f05760003560e01c80636a6811901161010f5780639adfecf9116100a2578063beb9716d11610071578063beb9716d14610724578063cd7c03261461072c578063e985e9c514610734578063f2fde38b14610762576101f0565b80639adfecf91461066b578063a22cb465146106aa578063a2e4d239146106d8578063aa271e1a146106fe576101f0565b80638d0f5b70116100de5780638d0f5b70146106275780638da5cb5b146106535780638f32d59b1461065b57806395d89b4114610663576101f0565b80636a681190146105ad57806370a08231146105d3578063715018a6146105f9578063755edd1714610601576101f0565b80632f745c59116101875780634f6ccce7116101565780634f6ccce7146104375780635a3f26721461045457806360a11672146104ca5780636352211e14610590576101f0565b80632f745c591461039257806342679683146103be57806342842e0e146103e457806342966c681461041a576101f0565b8063095ea7b3116101c3578063095ea7b31461030e57806318160ddd1461033a5780631f6eeb681461035457806323b872dd1461035c576101f0565b806301ffc9a7146101f557806305d52d091461023057806306fdde0314610258578063081812fc146102d5575b600080fd5b61021c6004803603602081101561020b57600080fd5b50356001600160e01b031916610788565b604080519115158252519081900360200190f35b6102566004803603602081101561024657600080fd5b50356001600160a01b03166107ab565b005b610260610899565b6040805160208082528351818301528351919283929083019185019080838360005b8381101561029a578181015183820152602001610282565b50505050905090810190601f1680156102c75780820380516001836020036101000a031916815260200191505b509250505060405180910390f35b6102f2600480360360208110156102eb57600080fd5b503561092f565b604080516001600160a01b039092168252519081900360200190f35b6102566004803603604081101561032457600080fd5b506001600160a01b03813516906020013561099f565b610342610ad7565b60408051918252519081900360200190f35b61021c610add565b6102566004803603606081101561037257600080fd5b506001600160a01b03813581169160208101359091169060400135610aed565b610342600480360360408110156103a857600080fd5b506001600160a01b038135169060200135610b58565b61021c600480360360208110156103d457600080fd5b50356001600160a01b0316610be2565b610256600480360360608110156103fa57600080fd5b506001600160a01b03813581169160208101359091169060400135610c36565b6102566004803603602081101561043057600080fd5b5035610c51565b6103426004803603602081101561044d57600080fd5b5035610cb6565b61047a6004803603602081101561046a57600080fd5b50356001600160a01b0316610d26565b60408051602080825283518183015283519192839290830191858101910280838360005b838110156104b657818101518382015260200161049e565b505050509050019250505060405180910390f35b610256600480360360808110156104e057600080fd5b6001600160a01b0382358116926020810135909116916040820135919081019060808101606082013564010000000081111561051b57600080fd5b82018360208201111561052d57600080fd5b8035906020019184600183028401116401000000008311171561054f57600080fd5b91908080601f016020809104026020016040519081016040528093929190818152602001838380828437600092019190915250929550610d87945050505050565b6102f2600480360360208110156105a657600080fd5b5035610dec565b610256600480360360208110156105c357600080fd5b50356001600160a01b0316610e52565b610342600480360360208110156105e957600080fd5b50356001600160a01b0316610f55565b610256610fcf565b6102566004803603602081101561061757600080fd5b50356001600160a01b0316611068565b6102566004803603604081101561063d57600080fd5b50803590602001356001600160a01b03166110e3565b6102f26111fa565b61021c611209565b61026061121a565b6106916004803603602081101561068157600080fd5b50356001600160a01b031661127a565b60408051600192830b90920b8252519081900360200190f35b610256600480360360408110156106c057600080fd5b506001600160a01b03813516906020013515156112c7565b610256600480360360208110156106ee57600080fd5b50356001600160a01b031661138d565b61021c6004803603602081101561071457600080fd5b50356001600160a01b0316611490565b61021c6114e2565b6102f26114ed565b61021c6004803603604081101561074a57600080fd5b506001600160a01b03813581169160200135166114fc565b6102566004803603602081101561077857600080fd5b50356001600160a01b03166115a7565b6001600160e01b0319811660009081526006602052604090205460ff165b919050565b6107b3611209565b6107fa576040805162461bcd60e51b815260206004820152601360248201527239b2b73232b91034b9903737ba1037bbb732b960691b604482015290519081900360640190fd5b806001600160a01b03811661084e576040805162461bcd60e51b8152602060048201526015602482015274696e76616c69642061646d696e206164647265737360581b604482015290519081900360640190fd5b6001600160a01b038216600081815260106020526040808220805461ffff19169055517f75063598bb424244ef6461ff8e1e0a1836998c3c84ef9e591015fbe8d94fa71f9190a25050565b60008054604080516020601f60026000196101006001881615020190951694909404938401819004810282018101909252828152606093909290918301828280156109255780601f106108fa57610100808354040283529160200191610925565b820191906000526020600020905b81548152906001019060200180831161090857829003601f168201915b5050505050905090565b600061093a826115ff565b610983576040805162461bcd60e51b81526020600482015260156024820152741d1bdad95b925108191bd95cdb89dd08195e1a5cdd605a1b604482015290519081900360640190fd5b506000908152600860205260409020546001600160a01b031690565b60006109aa82610dec565b9050806001600160a01b0316836001600160a01b03161415610a0d576040805162461bcd60e51b815260206004820152601760248201527631b0b73737ba1030b8383937bb32903cb7bab939b2b63360491b604482015290519081900360640190fd5b336001600160a01b0382161480610a295750610a2981336114fc565b610a6e576040805162461bcd60e51b81526020600482015260116024820152701c195c9b5a5cdcda5bdb8819195b9a5959607a1b604482015290519081900360640190fd5b60008281526008602090815260409182902080546001600160a01b0319166001600160a01b03878116918217909255835186815293519093918516927f8c5be1e5ebec7d5bd14f71427d1e84f3dd0314c0f7b2291e5b200ac8c7c3b925928290030190a3505050565b60055490565b6000610ae833610be2565b905090565b610af7338261161c565b610b48576040805162461bcd60e51b815260206004820152601760248201527f7370656e646572206973206e6f7420617070726f766564000000000000000000604482015290519081900360640190fd5b610b53838383611673565b505050565b6000610b6383610f55565b8210610baa576040805162461bcd60e51b81526020600482015260116024820152700d2dcc8caf040d2e640e8dede40d0d2ced607b1b604482015290519081900360640190fd5b6001600160a01b0383166000908152600c60205260409020805483908110610bce57fe5b906000526020600020015490505b92915050565b6000610bec6111fa565b6001600160a01b0316826001600160a01b03161415610c0d575060016107a6565b506001600160a01b038116600090815260106020526040902054600190810b900b6002146107a6565b610b5383838360405180602001604052806000815250610d87565b610c59610add565b610caa576040805162461bcd60e51b815260206004820181905260248201527f64656e696564203a206e6f2061646d696e206275726e696e6720726967687473604482015290519081900360640190fd5b610cb381611692565b50565b6000610cc0610ad7565b8210610d07576040805162461bcd60e51b81526020600482015260116024820152700d2dcc8caf040d2e640e8dede40d0d2ced607b1b604482015290519081900360640190fd5b60058281548110610d1457fe5b90600052602060002001549050919050565b6060610d31826116a4565b805480602002602001604051908101604052809291908181526020018280548015610d7b57602002820191906000526020600020905b815481526020019060010190808311610d67575b50505050509050919050565b610d92848484610aed565b610d9e848484846116be565b610de6576040805162461bcd60e51b81526020600482015260146024820152736461746120636865636b206973206e6f74206f6b60601b604482015290519081900360640190fd5b50505050565b6000818152600760205260408120546001600160a01b031680610bdc576040805162461bcd60e51b815260206004820152601960248201527806f776e65722063616e6e6f742062652061646472657373203603c1b604482015290519081900360640190fd5b610e5a611209565b610ea1576040805162461bcd60e51b815260206004820152601360248201527239b2b73232b91034b9903737ba1037bbb732b960691b604482015290519081900360640190fd5b806001600160a01b038116610ef5576040805162461bcd60e51b8152602060048201526015602482015274696e76616c69642061646d696e206164647265737360581b604482015290519081900360640190fd5b6001600160a01b038216600081815260106020908152604091829020805461ffff19166001908117909155825190815291517fc9650477e67b3b00a3cf84fb7f5e1c3c95d7271a855253a09dde0a403695a3679281900390910190a25050565b60006001600160a01b038216610fae576040805162461bcd60e51b815260206004820152601960248201527806f776e65722063616e6e6f742062652061646472657373203603c1b604482015290519081900360640190fd5b6001600160a01b0382166000908152600960205260409020610bdc906117f1565b610fd7611209565b61101e576040805162461bcd60e51b815260206004820152601360248201527239b2b73232b91034b9903737ba1037bbb732b960691b604482015290519081900360640190fd5b600f546040516000916001600160a01b0316907f8be0079c531659141344cd1fd0a4f28419497f9722a3daafe3b4186f6b6457e0908390a3600f80546001600160a01b0319169055565b6110706114e2565b6110c1576040805162461bcd60e51b815260206004820181905260248201527f64656e696564203a206e6f2061646d696e206d696e74696e6720726967687473604482015290519081900360640190fd5b60006110cb6117f5565b90506110d7828261180c565b6110df611829565b5050565b6110eb6114e2565b61113c576040805162461bcd60e51b815260206004820181905260248201527f64656e696564203a206e6f2061646d696e206d696e74696e6720726967687473604482015290519081900360640190fd5b60008211611188576040805162461bcd60e51b815260206004820152601460248201527336b4b73a1036b4b734b6bab69018903a37b5b2b760611b604482015290519081900360640190fd5b6001600160a01b0381166111de576040805162461bcd60e51b8152602060048201526018602482015277063616e6e6f74206d696e7420746f206164647265737320360441b604482015290519081900360640190fd5b60005b82811015610b53576111f282611068565b6001016111e1565b600f546001600160a01b031690565b600f546001600160a01b0316331490565b60018054604080516020601f600260001961010087891615020190951694909404938401819004810282018101909252828152606093909290918301828280156109255780601f106108fa57610100808354040283529160200191610925565b60006112846111fa565b6001600160a01b0316826001600160a01b031614156112a5575060026107a6565b506001600160a01b03811660009081526010602052604090205460010b6107a6565b6001600160a01b03821633141561131f576040805162461bcd60e51b815260206004820152601760248201527631b0b73737ba1030b8383937bb32903cb7bab939b2b63360491b604482015290519081900360640190fd5b336000818152600a602090815260408083206001600160a01b03871680855290835292819020805460ff1916861515908117909155815190815290519293927f17307eab39ab6107e8899845ad3d59bd9653f200f220920489ca2b5937696c31929181900390910190a35050565b611395611209565b6113dc576040805162461bcd60e51b815260206004820152601360248201527239b2b73232b91034b9903737ba1037bbb732b960691b604482015290519081900360640190fd5b806001600160a01b038116611430576040805162461bcd60e51b8152602060048201526015602482015274696e76616c69642061646d696e206164647265737360581b604482015290519081900360640190fd5b6001600160a01b038216600081815260106020908152604091829020805461ffff19166002908117909155825190815291517fc9650477e67b3b00a3cf84fb7f5e1c3c95d7271a855253a09dde0a403695a3679281900390910190a25050565b600061149a6111fa565b6001600160a01b0316826001600160a01b031614156114bb575060016107a6565b506001600160a01b038116600090815260106020526040812054600190810b900b136107a6565b6000610ae833611490565b6003546001600160a01b031681565b6003546040805163c455279160e01b81526001600160a01b0385811660048301529151600093831692851691839163c455279191602480820192602092909190829003018186803b15801561155057600080fd5b505afa158015611564573d6000803e3d6000fd5b505050506040513d602081101561157a57600080fd5b50516001600160a01b03161415611595576001915050610bdc565b61159f8484611834565b949350505050565b6115af611209565b6115f6576040805162461bcd60e51b815260206004820152601360248201527239b2b73232b91034b9903737ba1037bbb732b960691b604482015290519081900360640190fd5b610cb381611862565b6000908152600760205260409020546001600160a01b0316151590565b60008061162883610dec565b9050806001600160a01b0316846001600160a01b031614806116635750836001600160a01b03166116588461092f565b6001600160a01b0316145b8061159f575061159f81856114fc565b61167e838383611919565b6116888382611a96565b610b538282611b98565b610cb361169e82610dec565b82611bd6565b6001600160a01b03166000908152600c6020526040902090565b60006116d2846001600160a01b0316611c02565b6116de5750600161159f565b604051630a85bd0160e11b815233600482018181526001600160a01b03888116602485015260448401879052608060648501908152865160848601528651600095928a169463150b7a029490938c938b938b939260a4019060208501908083838e5b83811015611758578181015183820152602001611740565b50505050905090810190601f1680156117855780820380516001836020036101000a031916815260200191505b5095505050505050602060405180830381600087803b1580156117a757600080fd5b505af11580156117bb573d6000803e3d6000fd5b505050506040513d60208110156117d157600080fd5b50516001600160e01b031916630a85bd0160e11b14915050949350505050565b5490565b600454600090610ae890600163ffffffff611c0816565b6118168282611c69565b6118208282611b98565b6110df81611d95565b600480546001019055565b6001600160a01b039182166000908152600a6020908152604080832093909416825291909152205460ff1690565b6001600160a01b0381166118bd576040805162461bcd60e51b815260206004820152601d60248201527f6e6577206f776e65722063616e6e6f7420626520616464726573732030000000604482015290519081900360640190fd5b600f546040516001600160a01b038084169216907f8be0079c531659141344cd1fd0a4f28419497f9722a3daafe3b4186f6b6457e090600090a3600f80546001600160a01b0319166001600160a01b0392909216919091179055565b826001600160a01b031661192c82610dec565b6001600160a01b031614611987576040805162461bcd60e51b815260206004820181905260248201527f73656e646572206973206e6f74206f776e6572206f662074686520746f6b656e604482015290519081900360640190fd5b6001600160a01b0382166119e2576040805162461bcd60e51b815260206004820152601860248201527f63616e6e6f742073656e6420746f203020616464726573730000000000000000604482015290519081900360640190fd5b6119eb81611dd9565b6001600160a01b0383166000908152600960205260409020611a0c90611e14565b6001600160a01b0382166000908152600960205260409020611a2d90611e2b565b60008181526007602090815260409182902080546001600160a01b0319166001600160a01b03868116918217909255835185815293519093918716927fddf252ad1be2c89b69c2b068fc378daa952ba7f163c4a11628f55a4df523b3ef928290030190a3505050565b6001600160a01b0382166000908152600c6020526040812054611ac090600163ffffffff611e3416565b6000838152600d6020526040902054909150808214611b5b576001600160a01b0384166000908152600c60205260408120805484908110611afd57fe5b9060005260206000200154905080600c6000876001600160a01b03166001600160a01b031681526020019081526020016000208381548110611b3b57fe5b6000918252602080832090910192909255918252600d9052604090208190555b6001600160a01b0384166000908152600c60205260409020805480611b7c57fe5b6001900381819060005260206000200160009055905550505050565b6001600160a01b039091166000908152600c602081815260408084208054868652600d84529185208290559282526001810183559183529091200155565b611be08282611e91565b611bea8282611a96565b6000818152600d60205260408120556110df81611f86565b3b151590565b600082820183811015611c62576040805162461bcd60e51b815260206004820181905260248201527f626f7468206e756d62657273206861766520746f20626520706f736974697665604482015290519081900360640190fd5b9392505050565b6001600160a01b038216611cbf576040805162461bcd60e51b8152602060048201526018602482015277063616e6e6f74206d696e7420746f206164647265737320360441b604482015290519081900360640190fd5b611cc8816115ff565b15611d11576040805162461bcd60e51b8152602060048201526014602482015273746f6b656e20616c72656164792065786973747360601b604482015290519081900360640190fd5b600081815260076020908152604080832080546001600160a01b0319166001600160a01b038716908117909155835260099091529020611d5090611e2b565b6040805182815290516001600160a01b038416916000917fddf252ad1be2c89b69c2b068fc378daa952ba7f163c4a11628f55a4df523b3ef9181900360200190a35050565b600580546000838152600e60205260408120829055600182018355919091527f036b6384b5eca791c62761152d0c79bb0604c104a5fb6f4eb0703f3154bb3db00155565b6000818152600860205260409020546001600160a01b031615610cb357600090815260086020526040902080546001600160a01b0319169055565b8054611e2790600163ffffffff611e3416565b9055565b80546001019055565b600082821115611e8b576040805162461bcd60e51b815260206004820152601d60248201527f726573756c742063616e6e6f74206265206c6f776572207468616e2030000000604482015290519081900360640190fd5b50900390565b816001600160a01b0316611ea482610dec565b6001600160a01b031614611eff576040805162461bcd60e51b815260206004820152601f60248201527f61646472657373206973206e6f74206f776e6572206f6620746f6b656e494400604482015290519081900360640190fd5b611f0881611dd9565b6001600160a01b0382166000908152600960205260409020611f2990611e14565b600081815260076020908152604080832080546001600160a01b0319169055805184815290516001600160a01b038616927fddf252ad1be2c89b69c2b068fc378daa952ba7f163c4a11628f55a4df523b3ef928290030190a35050565b600554600090611f9d90600163ffffffff611e3416565b6000838152600e602052604081205460058054939450909284908110611fbf57fe5b906000526020600020015490508060058381548110611fda57fe5b6000918252602080832090910192909255828152600e90915260409020829055600580548061200557fe5b600190038181906000526020600020016000905590556000600e6000868152602001908152602001600020819055505050505056fea264697066735822122053966417e5b807d1b383ff2b2654a4d9065e9a7f7f8a415e583de62df5d3c8fe64736f6c63430006020033",
  "source": "pragma solidity 0.6.2;\n\nimport \"./ERC721Full.sol\";\nimport \"./Administrable.sol\";\nimport \"./Libraries/Strings.sol\";\nimport \"./ProxyRegistry.sol\";\n\n/**\n* @title TradeableERC721Token\n* TradeableERC721Token - ERC721 contract that whitelists a trading address, and has minting functionalities.\n* @notice an external 'burn' function restricted to owner as been added\n*/\ncontract TradeableERC721Token is ERC721Full, Administrable {\n    using Strings for string;\n    using SafeMath for uint256;\n\n    // address public proxyRegistryAddress;\n    // uint256 private _currentTokenId = 0;\n\n    function init(string memory _name, string memory _symbol, address _proxyRegistryAddress) internal {\n        ERC721Full.init(_name, _symbol);\n        proxyRegistryAddress = _proxyRegistryAddress;\n    }\n\n    /**\n    * @dev Mints a token to an address.\n    * @param _to address of the future owner of the token\n    */\n    function mintTo(address _to) public onlyMinter {\n        uint256 newTokenId = _getNextTokenId();\n        _mint(_to, newTokenId);\n        _incrementTokenId();\n    }\n\n    /**\n     * @dev Mint several tokens to an address.\n     * @param _total total number of NFT to mint (reverts if <= 0)\n     * @param _to default owner of the new created NFT (reverts if a zero address)\n     */\n    function batchMintTo(uint _total, address _to) public onlyMinter {\n        require(_total > 0, \"mint minimum 1 token\");\n        require(_to != address(0), \"cannot mint to address 0\");\n\n        for (uint i = 0; i < _total; i++) mintTo(_to);\n\n    }\n\n    /**\n    * @dev External Burn NFT method\n    */\n    function burn(uint _tokenId) public onlyMinterBurner {\n        super._burn(_tokenId);\n    }\n\n    /**\n        * @dev calculates the next token ID based on value of _currentTokenId\n        * @return uint256 for the next token ID\n        */\n    function _getNextTokenId() private view returns (uint256) {\n        return _currentTokenId.add(1);\n    }\n\n    /**\n        * @dev increments the value of _currentTokenId\n        */\n    function _incrementTokenId() private  {\n        _currentTokenId++;\n    }\n\n    /**\n    * Override isApprovedForAll to whitelist user's OpenSea proxy accounts to enable gas-less listings.\n    */\n    function isApprovedForAll(\n        address owner,\n        address operator\n    )\n    public override\n    view\n    returns (bool)\n    {\n        // Whitelist OpenSea proxy contract for easy trading.\n        ProxyRegistry proxyRegistry = ProxyRegistry(proxyRegistryAddress);\n        if (address(proxyRegistry.proxies(owner)) == operator) {\n            return true;\n        }\n\n        return super.isApprovedForAll(owner, operator);\n    }\n}",
  "sourcePath": "/Users/macos/Desktop/Mat/Apps/ETHERLAND/Etherland_ERC721/ERC721/contracts/TradeableERC721Token.sol",
  "compiler": {
    "name": "solc",
    "version": "0.6.2+commit.bacdbe57.Emscripten.clang"
  },
  "schemaVersion": "3.3.0",
  "updatedAt": "2020-11-05T20:59:24.558Z",
  "devdoc": {
    "methods": {
      "adminRightsOf(address)": {
        "details": "know if an address has admin rights and its type of rights",
        "params": {
          "_admin": "the address to find admin rights of"
        },
        "returns": {
          "_0": "int16 the admin right for _admin :      1 : address can only mint tokens       2 : address can mint AND burn tokens "
        }
      },
      "approve(address,uint256)": {
        "details": "Approves another address to transfer the given token ID The zero address indicates there is no approved address. There can only be one approved address per token at a given time. Can only be called by the token owner or an approved operator.",
        "params": {
          "to": "address to be approved for the given token ID",
          "tokenId": "uint256 ID of the token to be approved"
        }
      },
      "balanceOf(address)": {
        "details": "Gets the balance of the specified address",
        "params": {
          "owner": "address to query the balance of"
        },
        "returns": {
          "_0": "uint256 representing the amount owned by the passed address"
        }
      },
      "batchMintTo(uint256,address)": {
        "details": "Mint several tokens to an address.",
        "params": {
          "_to": "default owner of the new created NFT (reverts if a zero address)",
          "_total": "total number of NFT to mint (reverts if <= 0)"
        }
      },
      "burn(uint256)": {
        "details": "External Burn NFT method"
      },
      "canMint()": {
        "details": "canMint external ",
        "returns": {
          "_0": "bool : truthy if msg.sender has admin rights to mint new tokens"
        }
      },
      "canMintBurn()": {
        "details": "canBurn external",
        "returns": {
          "_0": "bool : truthy if msg.sender has admin rights to mint new tokens and burn existing tokens"
        }
      },
      "getApproved(uint256)": {
        "details": "Gets the approved address for a token ID, or zero if no address set Reverts if the token ID does not exist.",
        "params": {
          "tokenId": "uint256 ID of the token to query the approval of"
        },
        "returns": {
          "_0": "address currently approved for the given token ID"
        }
      },
      "grantMinterBurnerRights(address)": {
        "details": "owner can grant admin access to allow any address to mint new tokens and to burn existing tokensRestricted to CONTRACT OWNER ONLY",
        "params": {
          "_admin": ": address to grant admin minter and burner rights to"
        }
      },
      "grantMinterRights(address)": {
        "details": "owner can grant admin access to allow any address to mint new tokensRestricted to CONTRACT OWNER ONLY",
        "params": {
          "_admin": ": address to grant admin minter rights to"
        }
      },
      "isMinter(address)": {
        "details": "verifiy if an address can mint new tokens",
        "params": {
          "_admin": ": the address to verify minting rights of"
        },
        "returns": {
          "_0": "a boolean, truthy when _admin has rights to mint new tokens"
        }
      },
      "isMinterBurner(address)": {
        "details": "verifiy if an address has rights to mint and burn new tokens",
        "params": {
          "_admin": ": the address to verify minter-burner rights of"
        },
        "returns": {
          "_0": "a boolean, truthy when _admin has rights to mint and burn new tokens"
        }
      },
      "mintTo(address)": {
        "details": "Mints a token to an address.",
        "params": {
          "_to": "address of the future owner of the token"
        }
      },
      "name()": {
        "details": "Gets the token name",
        "returns": {
          "_0": "string representing the token name"
        }
      },
      "ownerOf(uint256)": {
        "details": "Gets the owner of the specified token ID",
        "params": {
          "tokenId": "uint256 ID of the token to query the owner of"
        },
        "returns": {
          "_0": "address currently marked as the owner of the given token ID"
        }
      },
      "renounceOwnership()": {
        "details": "Allows the current owner to relinquish control of the contract. It will not be possible to call the functions with the `onlyOwner` modifier anymore."
      },
      "revokeAdminRights(address)": {
        "details": "owner can revoke admin right of any admin addressRestricted to CONTRACT OWNER ONLY",
        "params": {
          "_admin": ": address to revoke admin access to"
        }
      },
      "safeTransferFrom(address,address,uint256)": {
        "details": "Safely transfers the ownership of a given token ID to another address If the target address is a contract, it must implement `onERC721Received`, which is called upon a safe transfer, and return the magic value `bytes4(keccak256(\"onERC721Received(address,address,uint256,bytes)\"))`; otherwise, the transfer is reverted. Requires the msg.sender to be the owner, approved, or operator",
        "params": {
          "from": "current owner of the token",
          "to": "address to receive the ownership of the given token ID",
          "tokenId": "uint256 ID of the token to be transferred"
        }
      },
      "safeTransferFromWithData(address,address,uint256,bytes)": {
        "details": "Safely transfers the ownership of a given token ID to another address If the target address is a contract, it must implement `onERC721Received`, which is called upon a safe transfer, and return the magic value `bytes4(keccak256(\"onERC721Received(address,address,uint256,bytes)\"))`; otherwise, the transfer is reverted. Requires the msg.sender to be the owner, approved, or operator",
        "params": {
          "_data": "bytes data to send along with a safe transfer check",
          "from": "current owner of the token",
          "to": "address to receive the ownership of the given token ID",
          "tokenId": "uint256 ID of the token to be transferred"
        }
      },
      "setApprovalForAll(address,bool)": {
        "details": "Sets or unsets the approval of a given operator An operator is allowed to transfer all tokens of the sender on their behalf",
        "params": {
          "approved": "representing the status of the approval to be set",
          "to": "operator address to set the approval"
        }
      },
      "supportsInterface(bytes4)": {
        "details": "implement supportsInterface(bytes4) using a lookup table"
      },
      "symbol()": {
        "details": "Gets the token symbol",
        "returns": {
          "_0": "string representing the token symbol"
        }
      },
      "tokenByIndex(uint256)": {
        "details": "Gets the token ID at a given index of all the tokens in this contract Reverts if the index is greater or equal to the total number of tokens",
        "params": {
          "index": "uint256 representing the index to be accessed of the tokens list"
        },
        "returns": {
          "_0": "uint256 token ID at the given index of the tokens list"
        }
      },
      "tokenOfOwnerByIndex(address,uint256)": {
        "details": "Gets the token ID at a given index of the tokens list of the requested owner",
        "params": {
          "index": "uint256 representing the index to be accessed of the requested tokens list",
          "owner": "address owning the tokens list to be accessed"
        },
        "returns": {
          "_0": "uint256 token ID at the given index of the tokens list owned by the requested address"
        }
      },
      "tokensOf(address)": {
        "details": "@notice Non-Standard method to retrieve all NFTs that specific owner owns",
        "returns": {
          "_0": "uint[] containing all NFTs that owner owns"
        }
      },
      "totalSupply()": {
        "details": "Gets the total amount of tokens stored by the contract",
        "returns": {
          "_0": "uint256 representing the total amount of tokens"
        }
      },
      "transferFrom(address,address,uint256)": {
        "details": "Transfers the ownership of a given token ID to another address Usage of this method is discouraged, use `safeTransferFrom` whenever possible Requires the msg.sender to be the owner, approved, or operator",
        "params": {
          "from": "current owner of the token",
          "to": "address to receive the ownership of the given token ID",
          "tokenId": "uint256 ID of the token to be transferred"
        }
      },
      "transferOwnership(address)": {
        "details": "Allows the current owner to transfer control of the contract to a newOwner.",
        "params": {
          "newOwner": "The address to transfer ownership to."
        }
      }
    },
    "title": "TradeableERC721Token TradeableERC721Token - ERC721 contract that whitelists a trading address, and has minting functionalities."
  },
  "userdoc": {
    "methods": {
      "isApprovedForAll(address,address)": {
        "notice": "Override isApprovedForAll to whitelist user's OpenSea proxy accounts to enable gas-less listings."
      },
      "renounceOwnership()": {
        "notice": "Renouncing ownership will leave the contract without an owner, thereby removing any functionality that is only available to the owner."
      }
    },
    "notice": "an external 'burn' function restricted to owner as been added"
  }
}